:020000040800F2
:1000000070070020CD010008D5010008D7010008C5
:10001000D9010008DB010008DD0100080000000034
:10002000000000000000000000000000DF010008E8
:10003000E101000800000000E3010008E5010008FC
:10004000E7010008E7010008E7010008E7010008F0
:10005000E7010008E7010008E7010008E7010008E0
:10006000E7010008E7010008E7010008E7010008D0
:10007000E7010008E7010008E7010008E7010008C0
:10008000E7010008E7010008E7010008E7010008B0
:10009000E7010008E7010008E7010008E7010008A0
:1000A000E7010008E7010008E7010008E701000890
:1000B000E7010008E7010008E7010008E701000880
:1000C000E7010008E7010008E7010008E701000870
:1000D000E7010008E7010008E7010008E701000860
:1000E000E7010008E7010008E701000800F002F856
:1000F00000F05DF814A696E8000CB244B344DA456B
:1001000001D100F054F8BAE80F000FA696E83000CD
:10011000A5EB040504EB0607AAEB0704A7F101070A
:100120004FEA15154FEA3414A4F10104AC4201D38F
:1001300000F03DF813F0010F18BFFB1A43F0010364
:1001400000F001F8DBE718476C1000008C1000008D
:10015000103A24BF78C878C1FAD8520724BF30C8F3
:1001600030C144BF04680C60704700007047000055
:100170000023002400250026103A28BF78C1FBD8B0
:10018000520728BF30C148BF0B607047642900F098
:100190007D80002070471FB59DE8030000F086FBBE
:1001A00000F050F91FBD10B500F0B5F910BD00F01A
:1001B000E5F91146FFF7EFFF00F07EFF00F0ECFAE3
:1001C00003B4FFF7F0FF03BC00F0EEFC09488047E2
:1001D00009480047FEE7FEE7FEE7FEE7FEE7FEE729
:1001E000FEE7FEE7FEE7FEE704480549054A064B41
:1001F00070470000990E0008ED0000087001002013
:100200007007002070030020700300200FB4044921
:1002100010B503AA029800F0E7F810BC5DF814FBD3
:10022000640000202DE9F0410E46044600202062C3
:100230002046E168884730B3252805D0D4E901215C
:100240009047206A401CF2E7E16820460027884773
:10025000050018D0A5F14100192802D820354FF427
:1002600000673246294620462760FFF78FFF40B1DE
:10027000012804D0F61D26F007060836D8E7361DFB
:10028000D6E72846DAE7206ABDE8F0812DE9F0419B
:100290000646002410687529314616A510D0AFF324
:1002A0000080002802DA404213A507E031688A077F
:1002B00001D512A502E0490704D511A5012401E0EA
:1002C000AFF3008000210A2206F1240709E0B0FB09
:1002D000F2FCB0FBF2F302FB1C00303078541846FD
:1002E000491C0028F3D123462A463046BDE8F04198
:1002F00000F021B8000000002D0000002B000000DD
:100300002000000010B5044603E000F0BDFE401CD4
:1003100009D014F8010B05490028F6D1BDE81040BA
:100320000A2000F0B1BE4FF0FF3010BD6400002085
:100330007047704770472DE9F0470D469946924641
:10034000044600F124080168880604D5E06921F01C
:100350001001216000E00120A84201DD471B00E000
:100360000027A1697A1902EB0900081AA061207818
:10037000C00602D42046AFF30080002608E0D4E98E
:1003800001211AF806009047206A401C761C206262
:100390004E45F4DB2078C0060AD52046AFF3008036
:1003A00006E0D4E9012130209047206A401C2062F9
:1003B000381EA7F10107F4DC07E0D4E9012118F8A1
:1003C00005009047206A401C2062281EA5F1010507
:1003D000F3DC2046AFF300802078000602D502202F
:1003E000BDE8F0870120FBE7074B70B50D467B4465
:1003F00000F011F80446284600F020F810B14FF044
:10040000FF3070BD204670BD970C000001694A1C8A
:1004100002610878704700B58FB0CDE90131002145
:10042000059105497944CDE9031011466846FFF767
:10043000F9FE0FB000BD0000E5FFFFFF007B00F0FC
:100440008000704710B54248542100F0B5F941488A
:10045000542100F0B1F94048542100F0ADF93F4972
:100460003B483C4A3F4B08603D490A603A491960A5
:10047000531C0365481C1065012008653B48344A3D
:1004800039A1784400F0EAF820B9384878440A38AD
:1004900000F08BF937482F4A35A1784400F0DEF898
:1004A00020B9344878440A3800F07FF932482A4AA3
:1004B0002FA1784400F0D2F820B92F4878440A38A8
:1004C00000F073F940232248DC000021224600F0AE
:1004D000A1F820B125487844543800F066F91D4849
:1004E00022464023002100F095F820B121487844AD
:1004F000543800F05AF9184822461023002100F021
:1005000089F8002806D01C487844BDE810405638C9
:1005100000F04BB910BD104870B5006D20F001041B
:100520000B4800F013F90B4800F010F90A4800F0EE
:100530000DF909E0206D20F00105204600F006F9D4
:10054000204600F040F82C46002CF3D170BD00008E
:100550001000002064000020B800002000000020EF
:100560000400002008000020720000000E0D0000B2
:1005700077000000FA0C0000E60C0000754600F061
:1005800075F9AE4605006946534620F007008546DA
:1005900018B020B5FFF728FEBDE820404FF0000658
:1005A0004FF000074FF000084FF0000BAC46ACE8EE
:1005B000C009ACE8C009ACE8C009ACE8C00921F04A
:1005C00007018D46704770B50446051F00F052F9CB
:1005D0000068002C14BF446870BD002C18BFAC42EA
:1005E0003CBF20466468F8D301680A18AA4218BFC5
:1005F000456003D12A680546114401602868411905
:10060000A1421CBF6C6070BD6168696021680844CC
:10061000286070BD70B5C468A50713D0650211D4F9
:10062000B2F5807F09D0B2F5007F06D0B2F5806FB9
:1006300008D1012300F1240106E05D1E6FF07F4622
:10064000B54201D3012070BD0161C361416024F452
:1006500070611143C160002070BD00002DE9F041C0
:100660000C461646070047D0104600F06FF8207879
:10067000611C61280AD0722802D077283CD102E0A0
:100680000125002405E00225042402E0082448F2A4
:10069000020511F8010B2B2806D0622809D011F8A9
:1006A000010C74280AD00BE045F0030544F0020465
:1006B000EFE745F0040544F00104EAE744F01004D4
:1006C0003846214600F09FF8411C15D000213161C9
:1006D00071604FF40071F560F1617061200704D51D
:1006E00030460222002100F03FF9306D40F0010059
:1006F00030653046BDE8F0810020FBE72DE9F04190
:100700000D460646104C206DC10704D0410804D0A8
:1007100020F00104F7E722460EE0542000F0F5F83F
:1007200007000ED0206D47F00101084354212065D9
:10073000384600F041F83A4629463046BDE8F041D7
:100740008CE70020D6E70000100000202DE9F047DC
:1007500004464FF0FF380026C568D4E90497A8077F
:1007600018D0204600F0BCF9384600F056F80028B2
:1007700000DA4646280502D54846FFF724FF4C21FB
:10078000204600F019F8206D20F001002065304669
:10079000BDE8F0874046FBE710B50446AFF30080A4
:1007A0002046BDE81040FFF70BBD10B500F0E2F9A0
:1007B000BDE8104000F0D8B94FF0000200B5134674
:1007C00094469646203922BFA0E80C50A0E80C5071
:1007D000B1F12001BFF4F7AF090728BFA0E80C5022
:1007E00048BF0CC05DF804EB890028BF40F8042B1B
:1007F00008BF704748BF20F8022B11F0804F18BF88
:1008000000F8012B70470EB5CDE9000100F034FA75
:10081000029069460120ABBE0EBD08B56946009046
:100820000220ABBE08BD1FB58DE807006946052054
:10083000ABBE04B010BD1FB58DE80F0069460620A1
:10084000ABBEF6E708B5694600900920ABBE08BD0F
:100850001CB5CDE9000169460A20ABBE1CBD70473E
:1008600008B5694600900C20ABBE08BD0048704733
:100870000C010020004870471401002070477047A9
:100880007047704738B504460A4600206946AFF302
:100890000080002808BF38BD02460099204600F0BD
:1008A00090F9012038BD012000F0DFB9F8B5AFF3B1
:1008B0000080054600200C460C2000BF0646A81903
:1008C000A0420DD9324669460020AFF300800700F0
:1008D00008BF00F0CAF90098A04218BF0546C41925
:1008E000FFF7C8FF05600746F01D20F00700461916
:1008F000284600F060F9B44208BFF8BDA21B31469B
:100900003868BDE8F84000F05CB970B50646FFF7FE
:10091000B1FF056806F10B0020F00704B4429CBF4C
:10092000002070BD2B466A68BAB11068A04210D38F
:1009300004F1080188423CBF5068586007D35168F1
:10094000101941601168091B016058601460101D86
:1009500070BD13465268002AE7D121462846FFF7AA
:1009600091FF0028DED170BD2DE9F0410446164606
:100970000D464769007B80072ED03846FFF762FF9F
:1009800050BB3EB3012E02D0022E25D104E02046FA
:1009900000F031F905441DE03846FFF761FFE168DA
:1009A000002841F01001E16005DA204600F058F817
:1009B0000120BDE8F081C9030BD56268E16A91426C
:1009C00000D81146A26911442269891A814200DDCA
:1009D00008460544002D01DA0220EAE7E16A606872
:1009E000E268814206D29103E06203D522F400312D
:1009F00041F01002A6690027AE4213DCE16A814291
:100A000001D90B4600E0034603EB060C2369ACEB6F
:100A1000030CAC4506DD814201D98C4600E08446DA
:100A20009C4505D1A760276042F02000A5620DE03B
:100A3000AD1BE669AE1B8142A66000D90846C01A0C
:100A4000281A20605819606022F0200003490840ED
:100A5000E060002084F84870ABE70000BFCFD7FF0C
:100A6000C16821F4001141F08001C1600021816062
:100A7000016070472DE9F74F15460C464FF0FF3BDC
:100A80003848D768D2F814A0074209D05046A9695F
:100A9000FFF7DEFE002819DB3248C0430740EF6055
:100AA0004FF000496FF000484C4501D3464600E046
:100AB000264600993B4650463246FFF7B4FEA969E8
:100AC00020F00042B21A1144A96128B12846FFF76C
:100AD000C7FF5846BDE8FE8FA41BE5D10020F9E70B
:100AE00070B504460569C06A6168884200D8084646
:100AF000E16821F42011E160C90312D5A84208D0B1
:100B00002246411B2846FFF7B5FF10B14FF0FF30DA
:100B100070BD0020E562C4E90150E06820F4803037
:100B2000E060002070BD10B50446C06820F02000D1
:100B3000E060A16AA06988420DD02046FFF7D0FF8F
:100B4000E06820F4405040F01000E060A06AA0612E
:100B50002069E062606044F24001E0688843E06040
:100B600010BD000010000200002801D000F01CB8E9
:100B70007047000010B5014602A000F05DF80120AA
:100B800010BD000053494752545245443A20526523
:100B90006469726563743A2063616E2774206F70B4
:100BA000656E3A200000000001491820ABBEFEE748
:100BB00026000200704700210160416070470C2050
:100BC0007047034640688C46002818BF88423CBFE7
:100BD00003464068F8D318681844884207D00CF1DF
:100BE000030020F00700001D411A521A0146081D9B
:100BF0000A60FFF7E8BC10B50146C268900703D051
:100C0000900607D5886A0AE000F05CF801210160CF
:100C1000881E10BD8B69486818440B69C01A91F88A
:100C200048301BB191F84910401A10BD1103FCD592
:100C30000028FADD401E10BD70B505460C460A209E
:100C400000E06D1C00F037F835B128780028F8D1A5
:100C500002E0641C00F02FF814B120780028F8D1CD
:100C6000BDE870400A2000F026B810B500F02EF85C
:100C7000BDE81040FFF778BF10B5431C02E010F844
:100C8000011B71B18107FAD14FF0013202C88C1AF1
:100C90008C4314EAC211F9D0C01A0A0603D0C01E50
:100CA00010BDC01A10BD0A0401D0801E10BD09027B
:100CB000FCD0401E10BD08B569468DF80000032029
:100CC000ABBE08BD004870470C01002010B50128DC
:100CD00005D0002103A0FFF7AFFF012010BD09A13F
:100CE000F8E7000053494752544D454D3A204F759F
:100CF00074206F662068656170206D656D6F727914
:100D0000000000003A2048656170206D656D6F72CB
:100D10007920636F7272757074656400CA7802F02E
:100D20000F0CD30644BF8B784CEA030C2DE9F04737
:100D300009880B0625D082465AF8144B00F1100E94
:100D400000254FF001094FF00F08002706E000BF13
:100D50001E600137082F05F1040511D009FA07F6C6
:100D60000E42F6D008FA05F324EA03030CFA05F460
:100D70001C43282A5346EBD0482AEAD17346E7E7BA
:100D80000460B1F5807F38BFBDE8F087436800F1AB
:100D9000100E00F1140900254FF4807A4FF00F086F
:100DA000002705E034600137082F05F1040512D053
:100DB0000AFA07F404EA0106A642F4D108FA05F695
:100DC000B3430CFA05F63343282A4E46EAD0482AA4
:100DD000E9D17646E6E74360BDE8F087002941F2B5
:100DE0001C01C4F202010A680CBF22EA0000104391
:100DF00008607047002941F21801C4F202010A6834
:100E00000CBF22EA000010430860704710B541F2A1
:100E10000404C4F20204226802F00C02082A41F21F
:100E20000022C0F27A0212D12368D4F800C0C3F3C2
:100E3000834E5FEACC330EF1020C02D523689B038C
:100E400003D540F60012C0F23D020CFB02F2026034
:100E5000226841F2A413C2F30312C0F600039A5CA5
:100E60000168D14041602268C2F302229A5C21FAF3
:100E700002F282602268C2F3C2229A5C41F2A0139D
:100E8000D140C1602268C0F60003C2F381329A5C8F
:100E9000B1FBF2F1016110BD82B041F20400C4F275
:100EA000020050F8041C002241F0010140F8041C2B
:100EB0000168CFF6FF021140016050F8041C4FF6A4
:100EC000FF72CFF6F662114040F8041C50F8041C83
:100ED00021F4802140F8041C016821F4FE01016026
:100EE0004FF41F01416000210191009150F8041C52
:100EF00041F4803140F8041C50F8041C01F4003126
:100F00000091019901310191009919B90199B1F547
:100F1000A06FF1D150F8041C890354BF00210121B6
:100F200000910099012936D142F20001C4F2020178
:100F30000A6842F010020A600A6822F007020A609A
:100F40000A6842F002020A600168016001680160FB
:100F5000016841F480610160016821F47C11016045
:100F6000016841F4E811016050F8041C41F08071FF
:100F700040F8041C50F8041C8901FBD5016821F0DD
:100F800003010160016841F002010160016801F0A4
:100F90000C010829FAD14EF60850CEF200004FF0AD
:100FA0000061016002B070478289002918BF0121E9
:100FB00022F4005242EA41318181704700880840A2
:100FC00018BF01207047000070B586B00446008A43
:100FD0000D46C98820F4405008432082A0894EF66F
:100FE000F3110840A9882A896B89084310431843E4
:100FF000A081A08AA98920F44070084301AEA08294
:101000003046FFF703FF43F6000106F10800C4F283
:1010100001018C4208BF06F10C0000681922B4F9E6
:101020000C1050432A680123B1F1FF3FC8BF0223CF
:1010300002FA03F1B0FBF1F048F21F51C5F2EB11D7
:10104000A0FB01235A096FF0630302FB0300B4F90C
:101050000C300326B3F1FF3FC8BF042600FA06F0A8
:1010600000F13200A0FB01014FF00700C8BF0F20C4
:1010700000EA511040EA0210208106B070BD000065
:101080006FF35F2181807047B0B543F600050446D9
:10109000C4F2010528468021FFF790FF0028F9D00F
:1010A000E1B22846FFF7ECFF28464021FFF786FF14
:1010B0000028F9D02046B0BD84B044F204000121DC
:1010C000FFF798FE01200121FFF788FE40F2002083
:1010D00040F60005C1F60300C4F201056C4600901D
:1010E00028462146FFF71AFE40F20040C0F20340B6
:1010F000009028462146FFF711FE4FF48040012161
:10110000FFF778FE4FF4165000904FF4402005F59D
:1011100040550024029069462846ADF80C400194E1
:10112000FFF752FF28460121FFF73EFF09A0FFF716
:10113000E9F80CA0FFF7E6F80EA0FFF7E3F814A516
:1011400028462146FFF762F80134142CF8D100BF7D
:10115000FEE700BF556E69742054657374696E674D
:101160002E2E2E0048656C6C6F20576F726C6421B8
:10117000000000004D79206E616D65206973205478
:1011800072616E205175616E67204B686169000065
:1011900025640A003A7474003A7474003A74740056
:1011A0000204060800000000010203040102030417
:1011B00006070809D81100080000002010000000F0
:1011C00050010008E811000810000020600700002E
:1011D0007001000800000000000000000000000096
:0811E000000000000000000007
:04000005080000ED02
:00000001FF
