:020000040800F2
:1000000078060020B5010008BD010008BF01000806
:10001000C1010008C3010008C5010008000000007C
:10002000000000000000000000000000C701000800
:10003000C901000800000000CB010008CD01000844
:10004000CF010008CF010008CF010008CF01000850
:10005000CF010008CF010008CF010008CF01000840
:10006000CF010008CF010008CF010008CF01000830
:10007000CF010008CF010008CF010008CF01000820
:10008000CF010008CF010008CF010008CF01000810
:10009000CF010008CF010008CF010008CF01000800
:1000A000CF010008CF010008CF010008CF010008F0
:1000B000CF010008CF010008CF010008CF010008E0
:1000C000CF010008CF010008CF010008CF010008D0
:1000D000CF010008CF010008CF010008CF010008C0
:1000E000CF010008CF010008CF01000800F002F89E
:1000F00000F050F814A696E8000CB244B344DA4578
:1001000001D100F047F8BAE80F000FA696E83000DA
:10011000A5EB040504EB0607AAEB0704A7F101070A
:100120004FEA15154FEA3414A4F10104AC4201D38F
:1001300000F030F813F0010F18BFFB1A43F0010371
:1001400000F001F8DBE71847BC0E0000DC0E0000F1
:10015000103A24BF78C878C1FAD8520724BF30C8F3
:1001600030C144BF04680C60704700007047000055
:100170000023002400250026103A28BF78C1FBD8B0
:10018000520728BF30C148BF0B6070471FB51FBD65
:1001900010B510BD00F031F81146FFF7F7FF00F081
:1001A000FBFE00F04FF803B4FFF7F2FF03BC00F0D2
:1001B00057F800000948804709480047FEE7FEE776
:1001C000FEE7FEE7FEE7FEE7FEE7FEE7FEE7FEE707
:1001D00004480549054A064B70470000C10D000858
:1001E000ED0000087800002078060020780200204A
:1001F00078020020704770477047754600F02CF871
:10020000AE4605006946534620F00700854618B003
:1002100020B5FFF7DDFFBDE820404FF000064FF0AE
:1002200000074FF000084FF0000BAC46ACE8C009E7
:10023000ACE8C009ACE8C009ACE8C00921F007018E
:100240008D46704710B50446AFF300802046BDE8E8
:100250001040FFF7A8BF00000048704708000020CA
:1002600001491820ABBEFEE72600020070470000DF
:1002700010B584B00220012100F044FD40F20000DE
:10028000C2F2000000684DF68361C4F21B31A0FB8E
:1002900001014FF0FF3000EB9140ADF80600002067
:1002A000ADF80C00002040F20044CFF6FF70C4F21D
:1002B000000402900DF10601204600F017FE2046D2
:1002C000012100F005FE04B010BD0000002808BFA9
:1002D0007047B0B540F200450446C4F2000500BFC7
:1002E0002846002100F000FE284600F0FBFDB0F596
:1002F0007A7FF9D3013CF3D1BDE8B04070470000EC
:10030000CA7802F00F0CD30644BF8B784CEA030C7A
:100310002DE9F04709880B0625D082465AF8144B80
:1003200000F1100E00254FF001094FF00F080027D3
:1003300006E000BF1E600137082F05F1040511D04B
:1003400009FA07F60E42F6D008FA05F324EA030389
:100350000CFA05F41C43282A5346EBD0482AEAD16C
:100360007346E7E70460B1F5807F38BFBDE8F087EA
:10037000436800F1100E00F1140900254FF4807A53
:100380004FF00F08002705E034600137082F05F112
:10039000040512D00AFA07F404EA0106A642F4D1D1
:1003A00008FA05F6B3430CFA05F63343282A4E46FD
:1003B000EAD0482AE9D17646E6E74360BDE8F0870F
:1003C0000288002918BF012122F4806242EA8121BB
:1003D00001807047828A008B60F3174202EA0100B5
:1003E000401AB0FA80F040097047000002880029E6
:1003F00018BF012122F00102114401807047000062
:1004000010B586B04FF40010012100F07BFC0820ED
:10041000012100F083FCC02045F20044C1F60340F6
:10042000C4F20004059004F5384005A9FFF768FF01
:1004300048F2A060C0F2010001900020CBF6FF70EE
:1004400002904FF0806003904FF48040ADF81000B0
:1004500001A9204600F032F820460121FFF7C6FF2F
:1004600006B010BD0288002918BF012122F4807255
:1004700042EA0121018070470288002918BF01214A
:1004800022F4007242EA41210180704782B00022CA
:10049000019200920090080F01900198002821F02D
:1004A0007F40009906BF000C18311431009100996B
:1004B0000968084018BF012002B0704770B586B0C7
:1004C000044680880D4620F03F0601A800F032FC6B
:1004D00003994DF68360C4F21B30A1FB000346EA8A
:1004E0009340A080208820F0010020802A6848F2F4
:1004F000A060C0F2010082424FEA934008D8520047
:10050000B1FBF2F14FF6FC72114208BF042124E066
:10051000EB884BF6FF76B34204D102EB4202B1FB0B
:10052000F2F105E019235A43B1FBF2F141F48041A5
:100530000A466FF31F32B2FA82F25209114348F2AF
:100540000002CFF6FF7211434FF49672504348F603
:100550003812C0F24102A0FB022001302084A183A6
:1005600020884FF6F53140F00100208020886A890C
:100570000840A988084310432080A8892989084396
:10058000208106B070BD000040F26801002818BF4D
:100590000120C2F20001C870481E40F27001C2F290
:1005A00000010B78082200BF10F801CFC3F3460307
:1005B000BCF1000F18BF63F07F03013AF4D14E2065
:1005C00001220B7000F03EBA012000F039B90000A2
:1005D000F0B581B03220FFF779FEFFF711FF40F24E
:1005E000680640F27004C2F200060020C2F2000465
:1005F000C6E90000751E207808212A4612F8013F3E
:10060000C0F34600002B18BF60F07F000139F5D120
:1006100020704E202146012200F014FA00213046BD
:1006200000F801192178082210F8013FC1F34601B2
:10063000002B18BF61F07F01013AF5D121704E20E7
:100640002146012200F0FEF9002070702078082178
:100650002A4600BF12F8013FC0F34600002B18BF26
:1006600060F07F000139F5D120704E202146012233
:10067000012700F0E7F940F20110706020780821AE
:100680002A46B77012F8013FC0F34600002B18BF8E
:1006900060F07F000139F5D120704E202146012203
:1006A00000F0D0F90020B070207808212A4600BF61
:1006B00012F8013FC0F34600002B18BF60F07F0026
:1006C0000139F5D120704E2021460122012700F08A
:1006D000B9F90520FFF7FAFD40F2011070602078AB
:1006E00008212A46B77000BF12F8013FC0F3460048
:1006F000002B18BF60F07F000139F5D120704E202B
:100700002146012200F09EF90020B07020780821D7
:100710002A4600BF12F8013FC0F34600002B18BF65
:1007200060F07F000139F5D120704E202146012272
:10073000012700F087F90120FFF7C8FD40F2011002
:100740007060207808212A46B77000BF12F8013F78
:10075000C0F34600002B18BF60F07F000139F5D1CF
:1007600020704E202146012200F06CF90020B0706C
:10077000207808212A4600BF12F8013FC0F3460046
:10078000002B18BF60F07F000139F5D120704E209A
:1007900021460122012700F055F90120FFF796FDBF
:1007A0004FF480707060207808212A46B77000BF2F
:1007B00012F8013FC0F34600002B18BF60F07F0025
:1007C0000139F5D120704E202146012200F03AF97E
:1007D0000020B0702078082115F8012FC0F34600E2
:1007E000002A18BF60F07F000139F5D120704E203B
:1007F0002146012200F026F90120FFF767FD28209D
:1008000000F01EF80C2000F01BF8012001B0BDE83C
:10081000F04000F015B80000C02000F011B8000052
:100820000178002908BF704710B5441EC8B200F017
:1008300029FAA17801340029F8D1BDE810407047A9
:1008400070B5044600F068F940F26806C2F200068E
:1008500040F2700500213046C2F2000500F801198F
:100860002978082210F8013FC1F34601002B18BF78
:1008700061F07F01013AF5D129704E20294601220D
:1008800000F0E0F8002070702878711E082200BF88
:1008900011F8013FC0F34600002B18BF60F07F0045
:1008A000013AF5D128704E202946012200F0CAF8FD
:1008B000200900F005F82046BDE87040AFF3008045
:1008C00070B540F26806C0F3C001C2F20006F171D3
:1008D000C0F38001B171C0F3400100F0010040F2AB
:1008E000700430710120C2F20004B070751E2078CF
:1008F000717108212A4600BF12F8013FC0F346007B
:10090000002B18BF60F07F000139F5D120704E2018
:100910002146012200F096F800202378B0700820CC
:1009200015F8011FC3F34603002918BF63F07F03C6
:100930000138F5D14E20214601222370BDE87040D8
:1009400000F080B82DE9F04381B045F2004415462F
:1009500088460646C4F200044FF6FF70009000BFC0
:1009600020464FF40031FFF791FD28B10098411E59
:1009700000280091F4D127E0012720460121C0F290
:100980000307FFF76FFD4FF6FF70009020463946D2
:10099000FFF720FD28B90098411E00280091F5D1ED
:1009A00012E020463146012200F042F84FF6FF7077
:1009B0007E1C009020463146FFF70CFD48B9009898
:1009C000411E00280091F5D10025284601B0BDE860
:1009D000F083FDB14FF6FF7907F13F06013D2F0689
:1009E00003D120460021FFF7EBFCCDF8009000BFBB
:1009F00020463146FFF7EEFC28B90098411E00283A
:100A00000091F5D1E0E7204600F00EF8002F08F83D
:100A1000010BE3D1204601210125FFF72DFD2046E2
:100A20000121FFF7CDFCD0E7008AC0B2704700007B
:100A300001F0FE01002A18BF012211440182704713
:100A4000018270472DE9F04381B045F2004614461B
:100A500088460746C4F200064FF6FF70009000BFBC
:100A600030464FF40031FFF711FD28B10098411EC8
:100A700000280091F4D129E030460121FFF7F2FC73
:100A800001254FF6FF70C0F203050090304629465D
:100A9000FFF7A0FC28B90098411E00280091F5D16D
:100AA00014E08225304639460022C0F20705FFF7E0
:100AB000BFFF4FF6FF70009030462946FFF78AFCD3
:100AC00048B90098411E00280091F5D10024204625
:100AD00001B0BDE8F083C4B14FF6FF79AF1C18F840
:100AE000011B3046013CFFF7ABFFCDF8009000BF83
:100AF00030463946FFF76EFC28B90098411E0028A1
:100B00000091F5D1E2E72006E9D130460121012428
:100B1000FFF7B2FCDBE700002DE9F04381B040F2C3
:100B2000680640F27004C2F200064FF00130C2F2D3
:100B300000047060771E207808213A4612F8013FC1
:100B4000C0F34600002B18BF60F07F000139F5D1DB
:100B500020704E2021460122FFF774FF002130460D
:100B600000F801192178082210F8013FC1F346016D
:100B7000002B18BF61F07F01013AF5D121704E20A2
:100B8000214601220125FFF75DFF207808213A4622
:100B9000757000BF12F8013FC0F34600002B18BF6C
:100BA00060F07F000139F5D120704E2021460122EE
:100BB0004FF00109FFF746FF0DF10308002500BFC4
:100BC000207808213A4686F8029000BF12F8013FCB
:100BD000C0F34600002B18BF60F07F000139F5D14B
:100BE00020704E2021460122FFF72CFF4F20414666
:100BF0000122FFF7A7FE207808213A46B57000BF12
:100C000012F8013FC0F34600002B18BF60F07F00D0
:100C10000139F5D120704E2021460122FFF712FF45
:100C2000207808213A4686F8029000BF12F8013F6A
:100C3000C0F34600002B18BF60F07F000139F5D1EA
:100C400020704E2021460122FFF7FCFE207808216B
:100C50003A46B57012F8013FC0F34600002B18BFAA
:100C600060F07F000139F5D120704E20214601222D
:100C7000FFF7E8FE9DF803000007A1D401B0BDE82E
:100C8000F083000070B50446FFF746FF40F26806A7
:100C9000C2F2000640F2700501213046C2F20005A2
:100CA00000F801192978082210F8013FC1F3460124
:100CB000002B18BF61F07F01013AF5D129704E2059
:100CC00029460122FFF7BEFE002070702878711EB1
:100CD000082200BF11F8013FC0F34600002B18BFE7
:100CE00060F07F00013AF5D128704E20294601229C
:100CF000FFF7A8FE2009FFF7E3FD2046BDE870409E
:100D0000FFF7DEBD002941F21C01C4F202010A68AE
:100D10000CBF22EA0000104308607047002941F22E
:100D20001801C4F202010A680CBF22EA0000104355
:100D30000860704710B541F20404C4F2020422684E
:100D400002F00C02082A41F20022C0F27A0212D10B
:100D50002368D4F800C0C3F3834E5FEACC330EF1AE
:100D6000020C02D523689B0303D540F60012C0F2A3
:100D70003D020CFB02F20260226840F6F473C2F3FB
:100D80000312C0F600039A5C0168D14041602268FA
:100D9000C2F302229A5C21FA02F282602268C2F354
:100DA000C2229A5C40F6F073D140C1602268C0F65E
:100DB0000003C2F381329A5CB1FBF2F1016110BD14
:100DC00082B041F20400C4F2020050F8041C002278
:100DD00041F0010140F8041C0168CFF6FF02114008
:100DE000016050F8041C4FF6FF72CFF6F662114016
:100DF00040F8041C50F8041C21F4802140F8041C25
:100E0000016821F4FE0101604FF41F0141600021DF
:100E10000191009150F8041C41F4803140F8041C09
:100E200050F8041C01F40031009101990131019145
:100E3000009919B90199B1F5A06FF1D150F8041CCE
:100E4000890354BF0021012100910099012936D165
:100E500042F20001C4F202010A6842F010020A6084
:100E60000A6822F007020A600A6842F002020A6079
:100E70000168016001680160016841F480610160FE
:100E8000016821F47C110160016841F4E8110160FE
:100E900050F8041C41F0807140F8041C50F8041C08
:100EA0008901FBD5016821F003010160016841F06F
:100EB00002010160016801F00C010829FAD14EF627
:100EC0000850CEF200004FF00061016002B07047A0
:100ED0000288002918BF012122F00102114401807B
:100EE00070470000808C70478184704740F6FF3364
:100EF000B0F800C0C4F2000398420FDCB0F1804F9C
:100F00001ED040F20043C4F20003984218D040F6CD
:100F10000003C4F20003984212D016E040F60043EA
:100F2000C4F2000398420BD043F20043C4F2010321
:100F3000984205D042F60043C4F20103984204D11E
:100F40004B882CF0700243EA020C41F2004240F45C
:100F50008063C4F20002934204D0CA882CF4407328
:100F600042EA030CA0F800C08A8883058285A0F1BC
:100F70008042A2F5963243EA92220B88072A038523
:100F800007D8012303FA02F212F0E50F1CBF097A19
:100F90000186012181827047FFF76AF9FFF718FB8C
:100FA000FFF712FB0120FFF7EFFA40F6B830FFF72A
:100FB0008DF907A0FFF734FC4FF4FA60FFF786F9CC
:100FC000FFF72AFC06A0FFF72BFC00BFFEE700BFDF
:100FD00054657374204C4344206D6F64756C6500D8
:100FE00048656C6C6F20576F726C642100000000C4
:100FF00002040608000000000102030401020304C9
:10100000060708092810000800000020080000005A
:101010005001000830100008080000207006000091
:10102000700100080000000000A24A040000000057
:04000005080000ED02
:00000001FF
