:020000040800F2
:10000000C8300020E1010008E9010008EB01000808
:10001000ED010008EF010008F101000800000000F8
:10002000000000000000000000000000F3010008D4
:10003000F501000800000000F7010008F9010008C0
:10004000FB010008FB010008FB010008FB010008A0
:10005000FB010008FB010008FB010008FB01000890
:10006000FB010008FB010008FB010008FB01000880
:10007000FB010008FB010008FB010008FB01000870
:10008000FB010008FB010008FB010008FB01000860
:10009000FB010008FB010008FB010008FB01000850
:1000A000FB010008FB010008FB010008FB01000840
:1000B000FB010008FB010008FB010008FB01000830
:1000C000FB010008FB010008FB010008FB01000820
:1000D000FB010008FB010008FB010008FB01000810
:1000E000FB010008FB010008FB01000800F002F81A
:1000F00000F066F814A696E8000CB244B344DA4562
:1001000001D100F05DF8BAE80F000FA696E83000C4
:10011000A5EB040504EB0607AAEB0704A7F101070A
:100120004FEA15154FEA3414A4F10104AC4201D38F
:1001300000F046F813F0010F18BFFB1A43F001035B
:1001400000F001F8DBE718477056000090560000F9
:10015000103A24BF78C878C1FAD8520724BF30C8F3
:1001600030C144BF04680C60704700007047000055
:100170000023002400250026103A28BF78C1FBD8B0
:10018000520728BF30C148BF0B607047782900F084
:10019000AB80002070471FB59DE8030000F0E6FB30
:1001A00001F022F904000020002104F0C1FF401CEE
:1001B000606000F00DFF1FBD10B500F072FF10BDB4
:1001C00000F0AAFF1146FFF7E6FF04F009FD01F079
:1001D00093F803B4FFF7F0FF03BC01F0FFF8000051
:1001E0000948804709480047FEE7FEE7FEE7FEE7CB
:1001F000FEE7FEE7FEE7FEE7FEE7FEE70448054907
:10020000054A064B7047000089260008ED000008EB
:10021000C8240020C8300020C8280020C82800209A
:1002200070B5064600F086FB056806F10B0020F06D
:100230000704B4429CBF002070BD2B466A68BAB167
:100240001068A04210D304F1080188423CBF5068F6
:10025000586007D35168101941601168091B01608B
:1002600058601460101D70BD13465268002AE7D113
:100270002146284600F066FB0028DED170BD000054
:100280000FB4044910B503AA029800F025FC10BC75
:100290005DF814FB7C00002070B504468569006899
:1002A000C10601D5302600E02026C00707D070BD6A
:1002B000D4E9012130469047206A401C20626D1E1F
:1002C000F6D570BD70B5044685690078C00707D1C2
:1002D00070BDD4E9012120209047206A401C206293
:1002E0006D1EF6D570BD000070B504460D46214662
:1002F0001068AFF300802188090502D50F4A7A44BF
:1003000002E00E4A7A440E32002104F1240305E093
:1003100000F00F060009965D5E54491C0028F7D1D5
:1003200020780023000704D5702D02D009B10223E4
:1003300011322046BDE8704000F074BB5A4E0000F8
:100340002DE9F05F894604464FF0000ADFF824B13A
:10035000FB44C0F820A02046E168884700287DD0F3
:10036000252806D0D4E901219047206A401C20624C
:10037000F1E700255F462046E168884720280646C9
:1003800007DB312E05D2B81910F8200C08B105434F
:10039000F1E7A80701D525F00405C4F81CA0002743
:1003A000C4F818A02A2E09D0304604F0B9FE38B39C
:1003B00004EB8708303EC8F8186019E059F8041BB0
:1003C000204604EB87029161E1688847012F0646C9
:1003D00018D1E069002820DA25F020051DE0D8F8C2
:1003E000180000EB800006EB40003038C8F8180019
:1003F0002046E1688847064604F092FE0028EED1C8
:10040000012F0AD02E2E08D12046E16888477F1C94
:100410000646022F45F02005C4DBA069002803DA58
:10042000404245F00105A061E80701D025F0100524
:10043000A6B1A6F14100192802D8203645F400657E
:100440004A463146204625604D46FFF79FFE60B183
:10045000012807D0ED1D25F0070000E007E000F1BE
:10046000080978E705F1040975E730467AE7206A5C
:10047000BDE8F09F304E00000FB400B58DB010A95C
:10048000099000910B904FF0FF300A9000200C90E3
:10049000064878440690064878446A4607900F99C3
:1004A00009A800F03FFB0DB05DF814FBAF0600009B
:1004B000C70600002DE9FF5F1D464FF0FF3B914648
:1004C0004FF000085F46D5E90146A96901987F1CF5
:1004D0008847296A824688470028F6D1BAF1FF3F4B
:1004E0000CD0002E24F4C06419DD600614D5BAF1D6
:1004F0002B0F09D0BAF12D0F0ED103E0584604B0EE
:10050000BDE8F09F44F48064A96901987F1C884786
:10051000761E8246002E02DDBAF1300F03D0B9F10B
:10052000000F26D032E0A969761E01987F1C44F4A2
:1005300000748847002E824605DDBAF1780F06D098
:10054000BAF1580F03D0B9F1000F10D01EE0B9F185
:10055000000F02D0B9F1100F18D1A969761E0198C9
:100560007F1C24F4007488478246102002E0082093
:1005700000E00A20814609E0A96908FB0908761E07
:1005800001987F1C44F4007488478246002E05DDE4
:100590004946504600F0B2FA0028EDDAE9690198C0
:1005A0008847A00502D46FF00100A8E7E00725D135
:1005B000600613D5600502D5C8F1000000E0404692
:1005C00029680A1D2A600968220501D5087015E00E
:1005D000220701D5088011E008600FE02868011D9E
:1005E00029600068210502D580F8008006E0210717
:1005F00002D5A0F8008001E0C0F8008038467EE710
:1006000010B5044603E004F057FA401C09D014F872
:10061000010B05490028F6D1BDE810400A2004F07E
:100620004BBA4FF0FF3010BD7C0000202DE9F04F99
:100630009B4616464FF00109C1B020910090A9F1E8
:10064000010920A85DF8295050F82900C5E04FEABB
:100650006A0070432C185FEACA7100D1801B5A46A9
:10066000214627182846904700280EDD304646EAE6
:100670000501890765D022782978401E05F8012BED
:1006800004F8011BF7D1AD1BA41B5A46394620467E
:100690009047002823DD5A463946284690470028CF
:1006A0000EDD304646EA0501890751D03A782978AF
:1006B000401E05F8012B07F8011BF7D1AD1BBF1B2E
:1006C000304646EA0401890749D03A782178401E2D
:1006D00004F8012B07F8011BF7D1A41BBF1B3146FF
:1006E00046EA0402B81B920740D003782278491EDC
:1006F00004F8013B00F8012BF7D12C46871BB846C4
:1007000034445A464146204690470028F8DB5A4672
:100710004146BF1B384690470028F8DC304646EA81
:100720000401A7424FEA81712ED931B33A7821787A
:10073000401E04F8012B07F8011BF7D1A41BBF1BB7
:10074000DEE722682968001F04C502C4F9D19AE7D0
:100750003A682968001F04C502C7F9D1AEE73A68B4
:100760002168001F04C402C7F9D1B6E703682268F4
:10077000091F08C404C0F9D1BFE73A682168001F07
:1007800004C402C7F9D1D9E7E1B198F80020217873
:10079000401E04F8012B08F8011BF6D1A21B501BC8
:1007A000B0FBF6F0401EAAEB0001491E884216DDA0
:1007B0000A2910DD20AB4DF8295043F8290009F132
:1007C000010918E0D8F800202168001F04C448F887
:1007D000041BF7D1E2E70A2810DD824637E70A2832
:1007E00007DD4DF8292020AA42F8291009F1010956
:1007F000F3E70A2902DD15468A4628E7B9F1000F1A
:100800007FF41DAF41B0BDE8F08F2DE9F047994668
:100810000F460646140039D0002F37D00A2F01D9D1
:10082000FFF704FF7F1E354607FB04582CE02F46D8
:10083000254400E03F1BB74205D34A4629463846C7
:1008400090470028F6DC44EA05003B1980070CD0ED
:10085000002117E029180A1B0F6802E011681151E6
:10086000121B9A42FAD2001D1751A0420CD2F1E796
:100870006818027801E007780755001B9842FAD201
:10088000491C0255A142F3D34545D0D3BDE8F087BA
:1008900040EA010310B59B070FD1042A0DD310C8FD
:1008A00008C9121F9C42F8D020BA19BA884201D94F
:1008B000012010BD4FF0FF3010BD1AB1D30703D097
:1008C000521C07E0002010BD10F8013B11F8014B4D
:1008D0001B1B07D110F8013B11F8014B1B1B01D169
:1008E000921EF1D1184610BD4FF000020429C0F04D
:1008F000128010F0030C00F04781CCF1040CBCF125
:10090000020F18BF00F8012BA8BF20F8022BA1EBA3
:100910000C0100F039B95FEAC17C24BF00F8012B5B
:1009200000F8012B48BF00F8012B70477047704753
:1009300070470000004870472C0100207047704746
:100940007047704738B504460A4600206946AFF341
:100950000080002808BF38BD02460099204600F0FC
:100960003DF9012038BD012000F0CEBBF8B5AFF352
:100970000080054600200C460C2000BF0646A81942
:10098000A0420DD9324669460020AFF3008007002F
:1009900008BF00F0B9FB0098A04218BF0546C41973
:1009A000FFF7C8FF05600746F01D20F00700461955
:1009B000284600F00AF8B44208BFF8BDA21B314631
:1009C0003868BDE8F84000F009B9002101604160D5
:1009D00070470C20704770B50446051FFFF7AAFF4B
:1009E0000068002C14BF446870BD002C18BFAC42D6
:1009F0003CBF20466468F8D301680A18AA4218BFB1
:100A0000456003D12A6805461144016028684119F0
:100A1000A1421CBF6C6070BD6168696021680844B8
:100A2000286070BD2DE9F0470D4699469246044670
:100A300000F124080168880604D5E06921F010015E
:100A4000216000E00120A84201DD471B00E00027F3
:100A5000A1697A1902EB0900081AA0612078C00682
:100A600002D42046FFF718FC002608E0D4E9012153
:100A70001AF806009047206A401C761C20624E45FA
:100A8000F4DB2078C0060AD52046FFF705FC06E017
:100A9000D4E9012130209047206A401C2062381E92
:100AA000A7F10107F4DC07E0D4E9012118F80500FB
:100AB0009047206A401C2062281EA5F10105F3DC46
:100AC0002046FFF7FFFB2078000602D50220BDE894
:100AD000F0870120FBE70000074B70B50D467B4413
:100AE00000F0A5F80446284600F06EFA10B14FF069
:100AF000FF3070BD204670BDD73F00003A2800D2BD
:100B0000303820F02002412A01D3A2F13700884278
:100B100001D34FF0FF307047026811441378016031
:100B200018467047D16005497944516104497944B8
:100B3000116200211161114600F08CB8EDFFFFFF3A
:100B4000DF000000426842B1016811F8013B23B1A7
:100B5000521EC0E90012184670470121C160881E6C
:100B6000704742685AB1C368016843B983688B42D1
:100B700005D0491E521CC0E90012002070474FF0FA
:100B8000FF3070474FF0000200B51346944696467A
:100B9000203922BFA0E80C50A0E80C50B1F1200190
:100BA000BFF4F7AF090728BFA0E80C5048BF0CC03E
:100BB0005DF804EB890028BF40F8042B08BF70479C
:100BC00048BF20F8022B11F0804F18BF00F8012B0E
:100BD0007047000000487047240100200346406829
:100BE0008C46002818BF88423CBF03464068F8D3B3
:100BF00018681844884207D00CF1030020F0070061
:100C0000001D411A521A0146081D0A60FFF7E3BE93
:100C100010B5044600F0A6FA0068005D00F001007F
:100C200010BD000001694A1C02610878704700B5D8
:100C30008FB0CDE901310021059105497944CDE915
:100C4000031011466846FFF77BFB0FB000BD0000A4
:100C5000E5FFFFFF2DE9F34F4FF0000A0C46564623
:100C60008DB001200C9001F10C000B9062690B9883
:100C700001219047051E2DD0252D2CD0216A8847B3
:100C8000C0B162690B9801219047216A884700280A
:100C9000F7D16269411E0B98904700E0761CA1696C
:100CA0000D988847216A88470028F7D1E1690D9897
:100CB0008847DBE7A1690D988847A842074601D11C
:100CC000761CD3E7E1690D9888477F1C02D1BAF101
:100CD000000F6FD06BE162690B9800273D463946E3
:100CE00090472A2804D162690B9801219047012579
:100CF000DFF8D08262690B9801219047A0F13001A2
:100D00000A290AD24745E5DC07EB870100EB4107DA
:100D1000303FDFD445F01005ECE7E90601D46FF071
:100D200000476C280AD04C2814D0682815D06A28AF
:100D30000DD074281CD07A281AD01DE062690B9857
:100D4000012190476C2802D045F0040514E045F0DD
:100D500002050DE045F020050AE062690B980121CB
:100D60009047682802D045F0080505E045F4006585
:100D700062690B9801219047C4E9015765283DD06D
:100D800019DC58287AD00CDC452837D004DC25281B
:100D900026D041289ED131E046282FD0472899D12E
:100DA0002CE05B2877D0612828D063287CD0642889
:100DB00023D15AE0F6E06F2848D008DC66281DD021
:100DC00067281BD0692821D06E2816D127E070280B
:100DD00045D0732868D0752847D078280DD14DE0CC
:100DE000A1690D988847252805463FF469AFE16958
:100DF0000D9888476D1C3FF46AAFD8E00D992346E3
:100E00006A466FF00100AFF30080C5E045F0400096
:100E100023464FF000026060A80736D43EE0E807A2
:100E20007FF447AF2068011D21600068290501D5C6
:100E300006701BE7290701D5068017E7A90703D528
:100E4000F117C0E9006111E706600FE745F04000C7
:100E500023464FF008026060A80716D41EE040F653
:100E60000E0125EA0100606016E045F040002346CF
:100E70004FF00A026060A80707D40FE045F0400079
:100E80006060A80708D5234610220D996FF0010075
:100E9000AFF3008080E007E0102223460D996FF049
:100EA0000100FFF707FB77E04FF0000963284F468A
:100EB000C8464B46CB4602D05B2806D038E0E80651
:100EC00001D40120A060012732E06269D4F80CB09F
:100ED0000B98012190475E2807D14FF00109494640
:100EE0006269D4F80CB00B989047216939B9002198
:100EF0000A4603AB43F82120491C0829FADBD8B382
:100F0000216949B308F1010862690B9801219047F2
:100F10005D28F4D1B9F1000F09D0002003A951F8E0
:100F20002020D24341F82020401C0828F7DB03ABE7
:100F30002069002820794FEA40701ED05B46224687
:100F4000CDF80080CDE901970D9900286FF00100E0
:100F500020DAAFF300801FE0C11703AA00EBD161D4
:100F60004B1121F01F0102EB8302411A136801208B
:100F7000884003431360C7E719E00D992246002813
:100F80006FF00100009702DAAFF3008004E0AFF3E6
:100F9000008001E0AFF3008000280ADA401C06D18F
:100FA0000C9820B14FF0FF300FB0BDE8F08F5046E5
:100FB000FAE7E90701D10AF1010A064400200C9082
:100FC00054E60000CCCCCC0C007B00F080007047D5
:100FD00010B542485421FFF7D5FD41485421FFF791
:100FE000D1FD40485421FFF7CDFD3F493B483C4AE5
:100FF0003F4B08603D490A603A491960531C03653C
:10100000481C1065012008653B48344A39A17844E2
:1010100000F0D4F820B9384878440A3800F07AF95A
:1010200037482F4A35A1784400F0C8F820B9344831
:1010300078440A3800F06EF932482A4A2FA17844E1
:1010400000F0BCF820B92F4878440A3800F062F963
:1010500040232248DC000021224600F08BF820B11A
:1010600025487844543800F055F91D48224640235D
:10107000002100F07FF820B121487844543800F076
:1010800049F9184822461023002100F073F800287F
:1010900006D01C487844BDE81040563800F03AB9F4
:1010A00010BD104870B5006D20F001040B4800F031
:1010B000FDF80B4800F0FAF80A4800F0F7F809E0EC
:1010C000206D20F00105204600F0F0F82046FFF7E3
:1010D00082FC2C46002CF3D170BD000028000020BB
:1010E0007C000020D0000020000000200400002030
:1010F000080000207200000083410000770000001B
:101100006F4100005B41000010B500F00BF9BDE835
:10111000104000F0FAB870477546FFF75BFDAE4629
:1011200005006946534620F00700854618B020B5F3
:10113000FFF764F8BDE820404FF000064FF00007CD
:101140004FF000084FF0000BAC46ACE8C009ACE82B
:10115000C009ACE8C009ACE8C00921F007018D4620
:101160007047000010B500F03FF9001D10BD00BF32
:10117000C13F000070B5C468A50713D0650211D443
:10118000B2F5807F09D0B2F5007F06D0B2F5806F4E
:1011900008D1012300F1240106E05D1E6FF07F46B7
:1011A000B54201D3012070BD0161C361416024F4E7
:1011B00070611143C160002070BD00002DE9F04155
:1011C0000C461646070047D0104600F06FF820780E
:1011D000611C61280AD0722802D077283CD102E035
:1011E0000125002405E00225042402E0082448F239
:1011F000020511F8010B2B2806D0622809D011F83E
:10120000010C74280AD00BE045F0030544F00204F9
:10121000EFE745F0040544F00104EAE744F0100468
:101220003846214600F0A6F8411C15D00021316156
:1012300071604FF40071F560F1617061200704D5B1
:1012400030460222002100F0D3F8306D40F001005A
:1012500030653046BDE8F0810020FBE72DE9F04124
:101260000D460646104C206DC10704D0410804D03D
:1012700020F00104F7E722460EE05420FEF7D0FFED
:1012800007000ED0206D47F001010843542120656E
:101290003846FFF777FC3A4629463046BDE8F0412C
:1012A0008CE70020D6E70000280000202DE9F04759
:1012B00004464FF0FF380026C568D4E90497A80714
:1012C00018D0204600F050F9384600F05DF80028AC
:1012D00000DA4646280502D54846FFF77CFB4C213C
:1012E0002046FFF74FFC206D20F0010020653046BE
:1012F000BDE8F0874046FBE710B50446AFF3008039
:101300002046BDE81040FEF764BF002801D000F081
:1013100065B8704710B500F085F9BDE81040FFF7DB
:10132000F4BF000010B5012805D0002103A000F093
:101330005FF9012010BD09A1F8E7000053494752A9
:10134000544D454D3A204F7574206F662068656195
:1013500070206D656D6F7279000000003A2048655D
:101360006170206D656D6F727920636F7272757038
:10137000746564000EB5CDE9000100F095F90290A6
:1013800069460120ABBE0EBD08B56946009002203B
:10139000ABBE08BD1FB58DE8070069460520ABBE92
:1013A00004B010BD1FB58DE80F0069460620ABBE26
:1013B000F6E708B5694600900920ABBE08BD1CB52C
:1013C000CDE9000169460A20ABBE1CBD704708B5D7
:1013D000694600900C20ABBE08BD000001491820F2
:1013E000ABBEFEE726000200004870474401002023
:1013F0002DE9F041044616460D464769007B8007FB
:101400002ED03846FFF7D5FF50BB3EB3012E02D099
:10141000022E25D104E0204600F025F905441DE008
:101420003846FFF7D4FFE168002841F01001E16081
:1014300005DA204600F058F80120BDE8F081C90324
:101440000BD56268E16A914200D81146A269114445
:101450002269891A814200DD08460544002D01DA1F
:101460000220EAE7E16A6068E268814206D29103FD
:10147000E06203D522F4003141F01002A669002792
:10148000AE4213DCE16A814201D90B4600E003461B
:1014900003EB060C2369ACEB030CAC4506DD814283
:1014A00001D98C4600E084469C4505D1A7602760A1
:1014B00042F02000A5620DE0AD1BE669AE1B814243
:1014C000A66000D90846C01A281A20605819606022
:1014D00022F0200003490840E060002084F84870B2
:1014E000ABE70000BFCFD7FFC16821F4001141F086
:1014F0008001C16000218160016070472DE9F74FD4
:1015000015460C464FF0FF3B3848D768D2F814A078
:10151000074209D05046A969FFF751FF002819DB9F
:101520003248C0430740EF604FF000496FF0004879
:101530004C4501D3464600E0264600993B465046BE
:101540003246FFF727FFA96920F00042B21A114482
:10155000A96128B12846FFF7C7FF5846BDE8FE8FAE
:10156000A41BE5D10020F9E770B504460569C06AFF
:101570006168884200D80846E16821F42011E160E2
:10158000C90312D5A84208D02246411B2846FFF7BE
:10159000B5FF10B14FF0FF3070BD0020E562C4E927
:1015A0000150E06820F48030E060002070BD10B58C
:1015B0000446C06820F02000E060A16AA06988426B
:1015C0000DD02046FFF7D0FFE06820F4405040F0F7
:1015D0001000E060A06AA0612069E062606044F2EF
:1015E0004001E0688843E06010BD00001000020088
:1015F00070B505460C460A2000E06D1C00F02CF882
:1016000035B128780028F8D102E0641C00F024F8F5
:1016100014B120780028F8D1BDE870400A2000F00D
:101620001BB8000010B5014602A0FFF7E1FF012042
:1016300010BD000053494752545245443A20526568
:101640006469726563743A2063616E2774206F70F9
:10165000656E3A200000000008B569468DF800006C
:101660000320ABBE08BD10B50146C268900703D089
:10167000900607D5886A0AE000F076F8012101603B
:10168000881E10BD8B69486818440B69C01A91F810
:1016900048301BB191F84910401A10BD1103FCD518
:1016A0000028FADD401E10BD10B5431C02E010F802
:1016B000011B71B18107FAD14FF0013202C88C1AB7
:1016C0008C4314EAC211F9D0C01A0A0603D0C01E16
:1016D00010BDC01A10BD0A0401D0801E10BD090241
:1016E000FCD0401E10BD00004FF0013C50F8042B10
:1016F00051F8043B9A4221D1A2EB0C03934313EA25
:10170000CC1317D150F8042B51F8043B9A4215D151
:10171000A2EB0C03934313EACC130BD150F8042B28
:1017200051F8043B9A4209D1A2EB0C03934313EA0C
:10173000CC13DBD04FF00000704700BFD01A01BAC5
:10174000B1FA81F101F0180122FA01F0CB40DBB2CD
:10175000C0B2C01AC1F120012CFA01F3D11A914391
:1017600011EAC311E6D170470048704724010020F8
:1017700080B540F2100040F2AC31C2F20000C2F27B
:10178000000100F007F842F2A441C2F20001087023
:1017900080BD000040F2B833C2F200035A7A012A39
:1017A00084BF0120704780B593F809C086460020A9
:1017B00003F80C005A7A03EB8202C2F804E05A7A6A
:1017C0001A44107293F809C00CF101025A720CF11C
:1017D00030020A7042F63A72A1F80120C87080BD4A
:1017E00070B582B00120012100F01CF90820012110
:1017F00000F018F940F600044AF20000C4F20104B7
:10180000C1F6030004F5806601AD0190304629461B
:1018100000F062F844F20000C0F20340019030464C
:10182000294600F059F80420012100F0FBF8A0201F
:10183000C1F6030001902046294600F04DF84020F3
:10184000C0F2034001902046294600F045F81020E0
:10185000C1F2030001902046294600F03DF82046E1
:10186000102100F09BF80420012100F0DBF801209A
:10187000C1F6030001902046294600F02DF8102003
:10188000012100F0CFF842F20000C1F6030004F598
:10189000006601903046294600F01EF830464FF4AD
:1018A000005100F07BF80420012100F0BBF840F269
:1018B0000040C0F2034001902046294600F00CF899
:1018C00040F20020C1F6030001902046294600F0B6
:1018D00003F802B070BD0000CA7802F00F0CD30606
:1018E00044BF8B784CEA030C2DE9F04709880B06BE
:1018F00025D082465AF8144B00F1100E00254FF007
:1019000001094FF00F08002706E000BF1E600137F5
:10191000082F05F1040511D009FA07F60E42F6D09A
:1019200008FA05F324EA03030CFA05F41C43282AF9
:101930005346EBD0482AEAD17346E7E70460B1F595
:10194000807F38BFBDE8F087436800F1100E00F1DA
:10195000140900254FF4807A4FF00F08002705E0A6
:1019600034600137082F05F1040512D00AFA07F494
:1019700004EA0106A642F4D108FA05F6B3430CFACC
:1019800005F63343282A4E46EAD0482AE9D176465E
:10199000E6E74360BDE8F087416170470161704749
:1019A0001023002A08BF1423C150704710B582B01D
:1019B0000820012100F036F841F2000040F6004412
:1019C000C1F20300C4F20104019001A92046FFF70F
:1019D00083FF20464FF48051FFF7E0FF02B010BDB7
:1019E00010B543F60004C4F200040146204600F09E
:1019F00025FE00BF2046802100F018FE0028F9D106
:101A0000204600F019FEC0B210BD0000002941F2CE
:101A10001C01C4F202010A680CBF22EA0000104354
:101A200008607047002941F21801C4F202010A68F7
:101A30000CBF22EA000010430860704710B541F265
:101A40000404C4F20204226802F00C02082A41F2E3
:101A50000022C0F27A0212D12368D4F800C0C3F386
:101A6000834E5FEACC330EF1020C02D523689B0350
:101A700003D540F60012C0F23D020CFB02F20260F8
:101A8000226845F2A513C2F30312C0F600039A5C64
:101A90000168D14041602268C2F302229A5C21FAB7
:101AA00002F282602268C2F3C2229A5C45F2A1135C
:101AB000D140C1602268C0F60003C2F381329A5C53
:101AC000B1FBF2F1016110BDF0B583B043F2000447
:101AD000C4F20104A4F52055284610210122FFF785
:101AE0005FFF012001F0D0FC002600BF204602214C
:101AF00000F09CFD0028F9D02046FF2100F09EFD5B
:101B000001360A2EF2D12846102100220026FFF7C6
:101B100047FF012001F0B8FC40208DF80600952019
:101B2000CDF807608DF80B002046022100F07EFD05
:101B30000028F9D000260DF1060700BFB95D204648
:101B400000F07CFD2046022100F070FD0028F9D055
:101B50000136062EF2D141F6FF76002720460221FB
:101B600000F064FD0028F9D02046FF2100F066FD5A
:101B70002046012100F05AFD0028F9D0204600F04F
:101B80005BFDC1B2013E47F10000012918BF0028EA
:101B9000E4D1284610210122FFF702FF012001F0C5
:101BA00073FC00BF2046022100F040FD0028F9D060
:101BB0002046FF2100F042FD40F2A630C2F20000B4
:101BC0000121017003B0F0BDB0B543F2000440F252
:101BD000AA35C4F20104C2F200054FF4FA7028805D
:101BE00009E000BF204600F027FDC0B2FF2808BF73
:101BF000B0BD298889B12046022100F017FD0028D8
:101C0000F9D02046FF2100F019FD00BF2046012138
:101C100000F00CFD0028F9D0E4E7B0BDF0B581B0CC
:101C200043F2000440F2A8370E460546C4F2010410
:101C3000C2F20007C82038802046022100F0F6FCDE
:101C40000028F9D02046FF2100F0F8FC20460121B1
:101C500000F0ECFC0028F9D0204600F0EDFCC0B20A
:101C6000FF2802D139880029E6D1FE2844D100BFDF
:101C70002046022100F0DAFC0028F9D02046FF219E
:101C800000F0DCFC2046012100F0D0FC0028F9D057
:101C9000204600F0D1FC05F8010B002EA6F101064C
:101CA000E6D100BF2046022100F0C0FC0028F9D098
:101CB0002046FF2100F0C2FC2046012100F0B6FCC6
:101CC0000028F9D0204600F0B7FC00BF20460221D2
:101CD00000F0ACFC0028F9D02046FF2100F0AEFC5B
:101CE0002046012100F0A2FC0028F9D0204600F097
:101CF000A3FC012001B0F0BD002001B0F0BD000048
:101D0000F0B581B043F2000440F2AA370E46054612
:101D1000C4F20104C2F200074FF4FA70388000BF29
:101D20002046022100F082FC0028F9D02046FF2145
:101D300000F084FC2046012100F078FC0028F9D056
:101D4000204600F079FCC0B2FF2802D03988002973
:101D5000E6D1FF2840F07B802046022100F066FC9F
:101D60000028F9D02046294600F068FC20460221D0
:101D700000F05CFC0028F9D0310E204600F05EFC3B
:101D80002046022100F052FC0028F9D0C6F307419A
:101D9000204600F053FC00BF2046022100F046FC24
:101DA0000028F9D0B0B2010A204600F047FC00BF7D
:101DB0002046022100F03AFC0028F9D0F1B220467A
:101DC00000F03CFC2046022100F030FC0028F9D055
:101DD0000120482D08BF6FF07800402D08BF6FF03C
:101DE0006A00C1B2204600F029FC4C2D13D100BF7F
:101DF0002046022100F01AFC0028F9D02046FF21DD
:101E000000F01CFC2046012100F010FC0028F9D055
:101E1000204600F011FC0A252046022100F006FCB5
:101E20000028F9D02046FF2100F008FC20460121BF
:101E300000F0FCFB0028F9D0204600F0FDFB40B28A
:101E4000B0F1FF3F04DC013D2906E5D100E0FF20B1
:101E5000C0B201B0F0BD0000F0B581B043F20004A3
:101E600040F2AA370E460546C4F20104C2F200074A
:101E70004FF4FA70388000BF2046022100F0D6FBF4
:101E80000028F9D02046FF2100F0D8FB2046012190
:101E900000F0CCFB0028F9D0204600F0CDFBC0B20A
:101EA000FF2802D039880029E6D1FF280CD100BFD5
:101EB0002046022100F0BAFB0028F9D02046314626
:101EC00000F0BCFBFD2E03D1002001B0F0BD00BF2F
:101ED0002046022100F0AAFB0028F9D0002600BF0E
:101EE000A95D204600F0AAFB2046022100F09EFBDF
:101EF0000028F9D00136B6F5007FF1D12046022145
:101F000000F094FB0028F9D02046FF2100F096FB5A
:101F10002046012100F08AFB0028F9D0204600F07D
:101F20008BFB00BF2046022100F080FB0028F9D087
:101F30002046FF2100F082FB2046012100F076FBC5
:101F40000028F9D0204600F077FB0025204602212A
:101F500000F06CFB0028F9D02046FF2100F06EFB5A
:101F60002046012100F062FB0028F9D0204600F055
:101F700063FB00F01F01052903D0402D05F1010589
:101F8000E4D3C5B22046022100F050FB0028F9D06E
:101F90002046FF2100F052FB2046012100F046FBC5
:101FA0000028F9D0204600F047FB0006EAD005F0F3
:101FB0001F000538B0FA80F0400901B0F0BD000004
:101FC00000281CBF012070472DE9F04381B040F28A
:101FD0000C09C2F2000999F80000800700F1DD80C9
:101FE00043F20004C4F20104FFF76EFDA4F520588B
:101FF0004046102100220025FFF7D2FC012001F00D
:1020000043FA40200021FFF77BFE012840F0978033
:1020100040F2A837C2F200074FF47A7038804820A7
:102020004FF4D571FFF76CFE01285BD100256E4699
:102030002046022100F0FAFA0028F9D02046FF21BC
:1020400000F0FCFA2046012100F0F0FA0028F9D057
:10205000204600F0F1FA70550135042DE8D19DF8C5
:102060000200002501286AD19DF80300AA2803D0A8
:1020700065E000BF388860B177200021FFF740FE9F
:102080000128F7D869204FF08041FFF739FE00287A
:10209000F0D13888002851D07A2000210025FFF7A0
:1020A0002FFE00284BD100252046022100F0BEFA69
:1020B0000028F9D02046FF2100F0C0FA2046012177
:1020C00000F0B4FA0028F9D0204600F0B5FA7055B7
:1020D0000135042DE8D19DF800000C25400658BFBD
:1020E00004252CE077200021FFF70AFE01284FF09D
:1020F00001050ED869200021FFF702FE022838BF33
:10210000022506E041200021FFF7FAFD58B138888A
:1021100048B1022DF6D177200021FFF7F1FD01280B
:10212000F5D86920EFE7388840B150204FF40071AE
:10213000FFF7E6FD002818BF002500E0002540F26B
:102140008410C2F200000570404610210122FFF702
:1021500027FC012001F098F92046022100F066FAE0
:102160000028F9D02046FF2100F068FA204601211E
:1021700000F05CFA0028F9D0204600F05DFA35B195
:1021800099F8000000F0FE0089F8000005E040F238
:10219000A630C2F200000021017099F8000001B0E1
:1021A000BDE8F0832DE9F04184B020B10427384622
:1021B00004B0BDE8F08116460D4605290DD13078F2
:1021C000022836D001283CD00028EFD140F2A630BA
:1021D000C2F2000000270770E9E740F20C00C2F2EB
:1021E00000000078C00722D143F20004C4F20104C9
:1021F000A4F52058404610210022FFF7D1FB012012
:1022000001F042F90D2D4FF0040700F27280DFE873
:1022100005F0071C3B707070707070707040424920
:10222000FFF7D2FCB0F1FF0718BF012761E00327D9
:10223000BDE740F2A630C2F20000007800277070BF
:10224000B5E7FFF741FC0027B1E749200021FFF780
:1022500057FD28BB68461021FFF7E0FC00B39DF84E
:10226000000000F0C000402860D19DF808009DF8F3
:102270000910800440EA81204FF6004100F580609B
:10228000C0F2FF31084070E04FF40070308000274A
:102290002FE0492000E04A200021FFF731FD10B374
:1022A000012726E07A200021FFF72AFDC8B9002582
:1022B0002046022100F0BAF90028F9D02046FF217B
:1022C00000F0BCF92046012100F0B0F90028F9D057
:1022D000204600F0B1F906F8010B032D05F10105C8
:1022E000E6D3042705E030461021FFF797FC80F085
:1022F0000107404610210122FFF752FB012001F0A7
:10230000C3F800BF2046022100F090F90028F9D060
:102310002046FF2100F092F92046012100F086F9C5
:102320000028F9D0204600F087F940E79DF8050025
:102330009DF80A3000F00F0000EBD3109DF8093033
:102340009DF808709DF806109DF8072003F0030320
:1023500000EB4300BB0901F0030143EA820242EAB9
:1023600081210131073801FA00F030608FE7000069
:102370002DE9F04381B000284FF004096DD11D46CE
:10238000002B6AD040F20C00C2F200000078C007B7
:1023900028D140F28410C2F20000007843F2000419
:1023A000C4F2010417464007A4F520580E4658BF52
:1023B0005702404610210022FFF7F2FA012001F0F7
:1023C00063F8012D11D151203946FFF799FC88B9E6
:1023D00030464FF40071FFF721FCB0FA80F04FEA6D
:1023E00050191EE04FF0030937E052203946FFF73D
:1023F00087FC38B14FF0010913E000BF013D06F53D
:10240000007606D030464FF40071FFF707FC002835
:10241000F4D1B0FA80F04FEA50194C200021FFF7B8
:102420006FFC404610210122FFF7BAFA012001F0AB
:102430002BF800BF2046022100F0F8F80028F9D060
:102440002046FF2100F0FAF82046012100F0EEF8C6
:102450000028F9D0204600F0EFF8484601B0BDE86A
:10246000F083000000281CBF0120704740F20C00E0
:10247000C2F200000078704700284FF0040018BF37
:1024800070472DE9F04381B01C46002B7BD040F211
:102490000C00C2F200000F460178C90729D100786C
:1024A000400728D440F28419C2F2000999F80000CC
:1024B00043F20005C4F2010516464007A5F5205871
:1024C00058BF5602404610210022FFF769FA01204A
:1024D00000F0DAFF012C10D158203146FFF710FC34
:1024E000E0B93846FE21FFF7B7FCB0FA80F04409A6
:1024F00029E0032047E0022045E099F8000080072A
:1025000007D577200021FFF7FBFB57202146FFF777
:10251000F7FB59203146FFF7F3FB28B1012412E005
:10252000013C07F5007706D03846FC21FFF794FC04
:102530000028F5D100E000240020FD21FFF78CFCED
:10254000002808BF0124404610210122FFF728FA85
:10255000012000F099FF00BF2846022100F066F834
:102560000028F9D02846FF2100F068F8284601210C
:1025700000F05CF80028F9D0284600F05DF8002C47
:1025800018BF0124204601B0BDE8F04370470000A9
:102590000288002918BF012122F0400242EA81117D
:1025A000018070472DE9F04786B04FF4804001214B
:1025B000FFF72CFA43F60004C4F200040DF10605FF
:1025C0004FF082784FF000094FF0007A2827072655
:1025D00020462946CDF80680CDF80A90CDF80EA009
:1025E000CDF81270ADF8166000F02AF820460121EF
:1025F000FFF7CEFF4FF480500121FFF713FA04F5E7
:10260000784420462946CDF80680CDF80A90CDF8CA
:102610000EA0CDF81270ADF8166000F011F820464B
:102620000121FFF7B5FF06B0BDE8F087008908403B
:1026300018BF012070470000808970478181704772
:102640002DE9F04102880B8802F4415C4A88B1F818
:1026500004E043EA0C03CC881A430D8942EA0E02D7
:102660004E8922438F892A43B1F80E8032433A4380
:1026700042EA08020280828B22F400628283098A85
:102680000182BDE8F081000082B041F20400C4F292
:10269000020050F8041C002241F0010140F8041C23
:1026A0000168CFF6FF021140016050F8041C4FF69C
:1026B000FF72CFF6F662114040F8041C50F8041C7B
:1026C00021F4802140F8041C016821F4FE0101601E
:1026D0004FF41F01416000210191009150F8041C4A
:1026E00041F4803140F8041C50F8041C01F400311E
:1026F0000091019901310191009919B90199B1F540
:10270000A06FF1D150F8041C890354BF00210121AE
:1027100000910099012936D142F20001C4F2020170
:102720000A6842F010020A600A6822F007020A6092
:102730000A6842F002020A600168016001680160F3
:10274000016841F480610160016821F47C1101603D
:10275000016841F4E811016050F8041C41F08071F7
:1027600040F8041C50F8041C8901FBD5016821F0D5
:1027700003010160016841F002010160016801F09C
:102780000C010829FAD14EF60850CEF200004FF0A5
:102790000061016002B070470288002918BF012162
:1027A00022F00102114401807047000070B588B02A
:1027B00001200121FFF72AF90DF11604472544F6FF
:1027C0001F664FF080402146CDF81650CDF81A60B4
:1027D00000F082F86020C0F20100CDF806004FF44E
:1027E000FA7003900DF106014FF0804000F030F8D0
:1027F0004FF08040082100F065F84FF08040012143
:10280000012200F01DF84FF080400121FFF7C4FFC6
:1028100002200121FFF7FAF8CDF8165040F20045EA
:10282000C4F2000528462146CDF81A6000F054F89D
:1028300028460121FFF7B0FF08B070BD808C7047BB
:10284000002A82890CBF22EA01011143818170476D
:10285000B0B5028C850522F001020284038C8288C7
:10286000B0F818C00C8923F002032343A0F1804480
:10287000A4F5963445EA94244D88B1F800E0072C7D
:1028800043EA050313D8012505FA04F414F0E50F13
:102890000DD04C8923F00C0324F004048D882343CD
:1028A0008C892B4322F44072CD8922432A432CF099
:1028B000730545EA0E0582800583C98881860384F5
:1028C000B0BD0000028B22F0080211430183704763
:1028D000818670478184704740F6FF33B0F800C0AE
:1028E000C4F2000398420FDCB0F1804F1ED040F2DA
:1028F0000043C4F20003984218D040F60003C4F22B
:102900000003984212D016E040F60043C4F20003E0
:1029100098420BD043F20043C4F20103984205D021
:1029200042F60043C4F20103984204D14B882CF0D4
:10293000700243EA020C41F2004240F48063C4F2A8
:102940000002934204D0CA882CF4407342EA030C7C
:10295000A0F800C08A8883058285A0F18042A2F594
:10296000963243EA92220B88072A038507D801236F
:1029700003FA02F212F0E50F1CBF097A0186012169
:1029800081827047B0B540F60044C4F2010420468D
:102990004FF48051FFF700F8A820FFF721F800203E
:1029A000FFF71EF8054620464FF48051FEF7F6FF6C
:1029B000A80718BFB0BD20464FF48051FEF7ECFFCA
:1029C000A820FFF70DF80020FFF70AF8054620467B
:1029D0004FF48051FEF7E2FF20464FF4805145F05E
:1029E0000305FEF7D9FF2820FEF7FAFF2846FEF779
:1029F000F7FF20464FF48051BDE8B040FEF7CEBF50
:102A0000B0B582B040F60045C4F201050446284640
:102A10004FF48051FEF7C0FF1A20FEF7E1FF0020BF
:102A2000FEF7DEFF28464FF48051FEF7B7FF42F273
:102A3000930020800DF106050C202146022223463A
:102A4000009500F09FF908B102B0B0BD00214FF031
:102A5000FF3200BFA3185B780132032A81EA030129
:102A6000F8D12279914218BF022002B0B0BD000017
:102A70002DE9F04140F60045C4F201050E46074637
:102A800028464FF480519046FEF786FF8A20FEF7D5
:102A9000A7FF0020FEF7A4FF044628464FF480510C
:102AA000FEF77CFF28464FF48051FEF775FF0A20A1
:102AB000FEF796FF04F0FB00FEF792FF28464FF466
:102AC0008051FEF76BFF28464FF48051FEF764FFFC
:102AD0009420FEF785FF0020FEF782FF044628467B
:102AE0004FF48051FEF75AFF28464FF4805144F0CE
:102AF0008004FEF751FF1420FEF772FF2046FEF718
:102B00006FFF28464FF48051FEF748FFA6B1013F02
:102B100017F8014F28464FF48051FEF73DFF122071
:102B2000FEF75EFF2046FEF75BFF28464FF480511C
:102B3000FEF734FF013EEBD128464FF48051FEF7FB
:102B40002BFF0220FEF74CFF0320FEF749FF28462B
:102B50004FF48051FEF722FFFF2400BF28464FF4B8
:102B60008051FEF719FF8A20FEF73AFF0020FEF79A
:102B700037FF064628464FF48051FEF70FFF013C11
:102B8000200602D016F00400E8D028464FF4805109
:102B9000FEF702FFC420FEF723FF0020FEF720FF10
:102BA000044628464FF48051FEF7F8FE28464FF4BD
:102BB000805188F80040FEF7EFFEC220FEF710FFBC
:102BC0000020FEF70DFF044628464FF48051FEF723
:102BD000E5FE88F80140BDE8F0810000B0B584B0A2
:102BE00040F60045C4F20105044628464FF48051E2
:102BF000FEF7D2FE1A20FEF7F3FE0720FEF7F0FEE6
:102C000028464FF48051FEF7C9FE2620207002AD01
:102C10000C20214601222346009500F0B3F8BDF8B0
:102C20000810054681F01000284318BF022503D183
:102C30002046FFF7E5FE054650200DF10A04ADF8E9
:102C40000A00A21C20460221FFF712FF0DF10E0C14
:102C50000C20214604222346CDF800C000F092F853
:102C6000284604B0B0BD000010B5FEF79FFEFFF788
:102C700099FC40F60044C4F2010420464FF4805110
:102C8000FEF78AFE0220FEF7ABFE0F20FEF7A8FE3D
:102C900020464FF48051FEF781FE20464FF48051CC
:102CA000FEF77AFE5420FEF79BFE8D20FEF798FE7D
:102CB00020464FF48051FEF771FE20464FF48051BC
:102CC000FEF76AFE5620FEF78BFE3E20FEF788FEDA
:102CD00020464FF48051FEF761FE20464FF48051AC
:102CE000FEF75AFE5A20FEF77BFE1E20FEF778FE06
:102CF00020464FF48051FEF751FE20464FF480519C
:102D0000FEF74AFE5820FEF76BFE0020FEF768FE35
:102D100020464FF48051FEF741FE20464FF480518B
:102D2000FEF73AFE4C20FEF75BFE7020FEF758FEE1
:102D300020464FF48051FEF731FE20464FF480517B
:102D4000FEF72AFE2A20FEF74BFE4020FEF748FE43
:102D500020464FF48051FEF721FE20464FF480516B
:102D6000FEF71AFE2220FEF73BFE3D20FEF738FE5E
:102D700020464FF48051FEF711FEBDE81040FFF7EA
:102D800001BE00002DE9F04F81B0174683460C28A4
:102D90008946009307D0BBF10E0F09D14FF01108FF
:102DA0004FF0120A08E04FF031084FF0770A03E0C5
:102DB0004FF001084FF0000A40F60044C4F201044D
:102DC00020464FF480510AF18005FEF7E5FD04200E
:102DD000FEF706FE2846FEF703FE20464FF480511C
:102DE000FEF7DCFD20464FF48051FEF7D5FD88202C
:102DF000FEF7F6FD0020FEF7F3FD054620464FF4F2
:102E00008051FEF7CBFD20464FF48051FEF7C4FD04
:102E10000820FEF7E5FD05F07F00FEF7E1FD204606
:102E20004FF48051FEF7BAFD20464FF48051FEF773
:102E3000B3FD9420FEF7D4FD0020FEF7D1FD05463A
:102E400020464FF48051FEF7A9FD20464FF48051F3
:102E500045F08005FEF7A0FD1420FEF7C1FD2846D1
:102E6000FEF7BEFD20464FF48051FEF797FD204649
:102E70004FF48051FEF790FD0220FEF7B1FD0020D7
:102E8000FEF7AEFD20464FF48051FEF787FDAFB14F
:102E9000A9F1010616F8015F20464FF48051FEF7B4
:102EA0007BFD1220FEF79CFD2846FEF799FD20468B
:102EB0004FF48051FEF772FD013FEBD120464FF4F5
:102EC0008051FEF769FD0220FEF78AFD5846FEF7A5
:102ED00087FD20464FF48051FEF760FDBBF10C0FDB
:102EE00022D120464FF48051FEF756FD9A20FEF77E
:102EF00077FD0020FEF774FD054620464FF4805113
:102F0000FEF74CFD20464FF4805145F08005FEF75A
:102F100043FD1A20FEF764FD2846FEF761FD2046BA
:102F20004FF48051FEF73AFDDDF828904FF4FA6730
:102F300020464FF48051FEF72FFD8820FEF750FD0C
:102F40000020FEF74DFD054620464FF48051FEF768
:102F500025FD013F380400F08B8018EA050FE7D00B
:102F600020464FF48051FEF717FD9A20FEF738FDFA
:102F70000020FEF735FD074620464FF48051FEF74E
:102F80000DFD20464FF48051FEF706FD1A20FEF796
:102F900027FD07F07F00FEF723FD20464FF4805108
:102FA000FEF7FCFC20464FF48051FEF7F5FC8C2028
:102FB000FEF716FD0020FEF713FD074620464FF4EE
:102FC0008051FEF7EBFC17F01B0F73D10AEA0500E6
:102FD000BBF10C0F00F001086ED120464FF4805178
:102FE000FEF7DAFC9420FEF7FBFC0020FEF7F8FC6D
:102FF000064620464FF48051FEF7D0FC20464FF4A1
:103000008051FEF7C9FC9820FEF7EAFC0020FEF78D
:10301000E7FC074620464FF48051FEF7BFFC17F04F
:10302000070040EAC600A0F1080008BFF000A9F8B8
:103030000000012E98BF0126102E28BF10260098F0
:10304000451E00BF20464FF48051FEF7A5FC92209C
:10305000FEF7C6FC0020FEF7C3FC074620464FF4EF
:103060008051FEF79BFC013E05F8017FEAD123E089
:1030700020464FF48051FEF78FFC9A20FEF7B0FCFB
:103080000020FEF7ADFC054620464FF48051FEF7C8
:1030900085FC20464FF48051FEF77EFC1A20FEF797
:1030A0009FFC05F07F00FEF79BFC20464FF480510B
:1030B000FEF774FC4FF00208404601B0BDE8F08F07
:1030C00010B584B04FF480400121FEF7ABFC4FF403
:1030D00016500090002043F60004ADF80C0001905B
:1030E0004FF44020C4F2010402906946204600F0EB
:1030F00017F82046012100F003F804B010BD0000CD
:103100008289002918BF012122F4005242EA41318C
:10311000818170470088084018BF01207047000077
:1031200070B586B00446008A0D46C98820F4405028
:1031300008432082A0894EF6F3110840A9882A8905
:103140006B89084310431843A081A08AA98920F401
:103150004070084301AEA0823046FEF76FFC43F694
:10316000000106F10800C4F201018C4208BF06F11B
:103170000C0000681922B4F90C1050432A6801238E
:10318000B1F1FF3FC8BF022302FA03F1B0FBF1F037
:1031900048F21F51C5F2EB11A0FB01235A096FF051
:1031A000630302FB0300B4F90C300326B3F1FF3FC5
:1031B000C8BF042600FA06F000F13200A0FB0101AE
:1031C0004FF00700C8BF0F2000EA511040EA02107C
:1031D000208106B070BD00006FF35F2181807047D1
:1031E000FEF7EEBEFEF7DEBFFFF7C2B8FFF73AB953
:1031F000FFF742B9B0B504460C200D46FDF710F8B4
:1032000070B129792A68017100218160216802600A
:1032100059B100BF0A4689680029FBD19060B0BD52
:1032200003A0BDE8B040FDF7EBB92060B0BD00BF22
:103230004D656D6F727920616C6C6F636174696F3D
:103240006E206661696C6564210000002DE9F04123
:10325000904605460139002201E000BFD0B1164674
:103260000F468A4216DCF01900EBD070441004EBD4
:103270008400284441460522FDF70AFB0028394610
:103280003246EBD03946324658BF611E002848BF4F
:10329000621CE3E70020BE42D8BF0120BDE8F081F8
:1032A00010B541F20004C4F2010420464FF400516D
:1032B000FEF772FB4FF47A7000F0E6F820464FF408
:1032C0000051FEF76BFB4FF47A70BDE8104000F040
:1032D000DBB8000010B5044641F2040000232218B8
:1032E00023544FF0FF309062204601F083FD002808
:1032F0001CBF032010BDB4F8FE014AF655218842D8
:103300001CBF022010BD94F8372094F8383094F890
:103310003610120244F2461042EA0342C0F2540050
:103320001144814204BF002010BD94F8532094F84A
:10333000543094F85210120242EA03421144081A1F
:1033400018BF012010BD000010B540F2DC5400BFD2
:10335000A0B201F041FE142000F096F8283CA0B283
:10336000B0F5FA7FF4D210BD0522FDF791BA000046
:1033700010B5044600284FF0000014D0012A12DBDB
:10338000D4F800C000EB800E41F80EC094F804C0E1
:1033900001EB0E0383F804C0A4680130002C08BFC1
:1033A00010BD9042ECDB10BD2DE9F041054641F225
:1033B0000500884605EB000789B12846414601F023
:1033C00093FB02283CBF0120BDE8F081411C0FD0D7
:1033D000D7F80F10444688420FD2BDE8F081D7F8E5
:1033E00007404CB1D7F80F00844228BF012404E005
:1033F0004FF0FF30BDE8F0810124264606E000BF13
:10340000012808BFBDE8F081A64229D0D7F80F00F7
:103410000136864228BF022601D3022C20D328463B
:10342000314601F061FB411CD7D00028E8D1284685
:1034300031466FF0704201F03BFDB8F1000F0146DC
:1034400006D029B928464146324601F031FD0146F1
:1034500049B10120012908BF4FF0FF30BDE8F081DC
:103460000020BDE8F081D7F80B00C7F80760411CC9
:1034700006D039780138C7F80B0041F001003870E8
:103480003046BDE8F0810000002808BF7047B0B5A5
:1034900040F200450446C4F2000500BF2846002162
:1034A000FFF718FA2846FFF7C9F9B0F57A7FF9D384
:1034B000013CF3D1BDE8B040704700002DE9F04F6A
:1034C00081B00021044600F0E7FA10B101B0BDE878
:1034D000F08F04F580564FF6FF754FF0FF30FF2751
:1034E0004FF00D0A4FF0FF0BB08400BF3068316918
:1034F00001F080FC0028E9D1D6F8148098F800107B
:10350000E5290AD0002900F09F8098F80B201307C6
:1035100002F03F020AD50F2A08D0B584FF272046C3
:10352000002100F095F80028E0D0CFE70F2A47D11E
:10353000D6F82090B9F1000FF1D0480606D598F8DA
:103540000DB0F08801F0BF010F46B084F8B281429F
:10355000E4D198F80D008345E0D198F80000CDF84B
:1035600000B000F0BF0000FB0AF0A0F10D0A012539
:103570004FF0000B05E000BF0BF1010BBBF10D0F8D
:1035800049D045F23520C0F6000010F80B0038F89D
:10359000000080B275B100F055FFBAF1FE0F42D8BD
:1035A000054639F81A0000F04DFF85423BD10AF17B
:1035B000010AE1E74FF6FF75A84243D10025DBE79A
:1035C000390612D100224FF0FF3100BF08EB010392
:1035D000D2B257085B7847EAC21201310A291A446D
:1035E000F4D1D1B28B453FF471AFB169CA7AD20739
:1035F0007FF493AF002300BF0B2B3FF467AF1A4655
:1036000018F803308F5CBB4202F10103F4D00B2A9F
:103610007FF483AF5AE798F80000400605D525B13E
:1036200039F81A0008B1012000E000204FF6FF75BC
:10363000DDF800B0013F4FF00D0A002818BF4FF031
:10364000FF376CE70120F3E7042001B0BDE8F08FFD
:103650002DE9F04700F58056F088471C380432D039
:10366000326982B330680D4641F20201431819896C
:10367000490989B2B7FBF1F404FB117181B13068DB
:1036800041F20A01415A00254909B7FBF1F2F780DE
:1036900002FB117100EB41107061E8B2BDE8F087E8
:1036A000F1680132326159B11A78013A2242E6D109
:1036B00001F01AFA02280AD20225E8B2BDE8F08722
:1036C000D8888742DBD30425E8B2BDE8F0870446FA
:1036D000013035D0306841F2140141588C4210D28B
:1036E000306841F202010844D0F81220A11E023ACB
:1036F0009142F4601DD20278D0F8260001FB02004E
:1037000018E0002DDFD0F168FFF74EFE04460130CF
:10371000032811D24FF6F871C0F2FF0101EAC00090
:1037200040F20171C0F2020121FA00F5E8B2BDE8F1
:10373000F08700203061A2E7306801F0C3FC18B1C7
:103740000125E8B2BDE8F087306841F20A01415A2C
:10375000002918BFFDF7C8F8306841F2020281184D
:10376000D1F81230A01E023B984205D20B78D1F856
:10377000265000FB035300E0002330684FF00008A0
:10378000825CC1F82A30C2B141F2040941F2020A56
:10379000012500F8095001F095FC0028C6D13068D9
:1037A00008F1010800EB0A01D1F82A2010F80A30CC
:1037B00001329845C1F82A20EBD341F22C0142583E
:1037C000A2EB080242508BE72DE9F04F87B000F5DD
:1037D000805ADAF8187001903868FB7ADAF820B06D
:1037E0007968D7F807200290D8070391CDF80F2009
:1037F00072D041F2210500204FF00108C0F201050E
:103800000DF114090093F872CAF82000DDF80F10CA
:103810000298039AC7F80710B8F1050F41467A607D
:10382000386016D9BBF8000041465A4688B100BF3F
:10383000102300BF00F001040E0444EA41014FEAE6
:10384000500048BF6940013BF4D132F8020F002814
:10385000EED10720062300BF1A4601F00F0303F143
:103860003006392E88BF03F1370609F800600138A9
:103870000909A2F10103EFD17E2109F800104FF0F0
:10388000000138B17B5C202B04D0013A01F1010129
:10389000F8D1014607289ABF19F8002001302022EC
:1038A0007A5401310829F5D30198FFF707FE30B9A2
:1038B00008F10108B8F1640FA8D14FF06408B8F11D
:1038C000640F03D1072007B0BDE8F08F042823D18F
:1038D000009BFB72CAF820B0980701D401240FE0C6
:1038E000ABF10201182000BF31F8022F0130002A8D
:1038F000FAD14EF64F41C4F6C461A0FB01018C0819
:103900000198002100F0C8F848B1042808BF07203A
:1039100010B3002800F0918007B0BDE8F08F0025BB
:1039200009E000BF0135A542EFD001980121FFF762
:103930008FFE0028E9D1DAF80000DAF8101001F063
:1039400059FA0028E1D1DAF814100978E529E9D00C
:103950000029E7D00025E8E7B4F10108D9D0BAF88A
:103960000600A0EB0801019800F096F80028D0D1DD
:10397000DAF818004FF000094FF0FF3142185FFAF3
:1039800089F35F08527847EAC31301310A2903EB30
:103990000209F3D145F2352B4FF6FF76C0F6000B46
:1039A000DAF80000DAF8101001F024FA0028B0D19B
:1039B000DAF814000F22DAF82010A0F80B205FFAD2
:1039C00088F20D277A4300230D3A002480F80D90E9
:1039D000438300BFB4421CBF31F8124001321BF8D0
:1039E0000350002C03F1010300EB050744554FEA97
:1039F000142508BF34460D2B7D70EBD1B44203D1A2
:103A000048F0400107E000BF31F81210002941469C
:103A100008BF48F040010170DAF8000041F20401EB
:103A20000122425401980021FFF712FE00287FF482
:103A300070AFB8F10108B3D16BE7DAF80000DAF83B
:103A4000101001F0D7F900287FF466AFDAF81410EF
:103A50000022CA618A614A610A61CA608A604A605A
:103A60000A60DAE905124FF0FF33013ACF1812F875
:103A7000016F01330A2B7E70F8D1DAE905120123B8
:103A8000D27A02F018020A73DAF8001041F2040246
:103A90008B5407B0BDE8F08FF0B581B000F58055CC
:103AA000AA68E980012A55D028680C4600F58050A4
:103AB00041698A424ED2BAB1EAB141898078490956
:103AC00001FB00F6A6421CD9286841F20201084415
:103AD000D0F81230911E023B994226D20378D0F8DA
:103AE000260001FB030021E0017803290CBF426A94
:103AF0000022002AE1D10189A1422BD9406A00228B
:103B000014E041F2140700BF2868114600F0ECFFF2
:103B10000246013021D0022A1CD32868C0598242B3
:103B200018D2A41BB442EFD2CEE70020EA6088B1DD
:103B3000296841F20A028A5A520992B2B4FBF2F39E
:103B400003FB1242184401EB4211C5E904010020B5
:103B500001B0F0BD022001B0F0BD012001B0F0BD08
:103B600040F2B831C2F200010A5C002A1CBF0020FA
:103B7000704701230A180B5401EB80004168107A4A
:103B80000968084740F2B83CC2F2000C0CEB800315
:103B90005B686044007A1B691847000080B540F2FA
:103BA000B83CC2F2000C0CEB800EDEF804E060447E
:103BB000007ADEF808C0BDE88040604740F2B831C6
:103BC000C2F2000101EB800252680844007A516899
:103BD0000847000080B540F2B83CC2F2000C0CEB84
:103BE000800EDEF804E06044007ADEF80CC0BDE828
:103BF0008040604710B5044600F0A0FB00B110BD46
:103C0000002C04F5805412D0206880B100F580505B
:103C1000017861B1C188A288914208D14078FFF74C
:103C2000CDFF00F00100404200F0090000E0092053
:103C3000002818BF10BDA06A411E012914D840F207
:103C40008C1C01EB410EC2F2000C0CEB8E00438980
:103C500033F4807218BF5A1E428110044FF00000E6
:103C600008BF4CF82E0000E0022001299CBF002173
:103C7000216010BD2DE9F04782B080461546012035
:103C80000129D8BF0146A1F1010900240DF1060662
:103C90006F46C2464C4516D02846314601223B4667
:103CA00000F02CFA009801280CD19DF806000D2890
:103CB000F2D00AF8010B0A2804F10104EAD14FF00E
:103CC000010900E0A1460021B9F1000F08BFC84674
:103CD00040468AF8001002B0BDE8F08770B582B0A7
:103CE00001900091B9B10023CD5C0133202D01D3A7
:103CF0003A2DF9D13A2D41D10978303909290AD81C
:103D000083F0020353EA010E18BF4FF0FF3EBEF1ED
:103D1000000F05D537E04FF0FF3EBEF1000F32D463
:103D200040F2881CC2F2000C5CF82E308BB140F2DD
:103D30008C140021C2F20004002500BF66599E4287
:103D400008BF61510C350C2DF8D04FF48051002480
:103D50005C5400281EBF4FF48051002343544CF89C
:103D60002E0000284FF0000006D0012A04D101A83F
:103D70006946002200F07CFB02B070BD4FF0000EDF
:103D8000BEF1000FCCD50B2002B070BD2DE9F04F75
:103D9000ADF5825D83B00DF1080E0EF58254216001
:103DA000D0B300F5805A08A800F58059002002F031
:103DB0001E061746CAF800000EF5825148463246E4
:103DC00000F056FB0546002840F0928105A8C9F88E
:103DD000180040F2A610C2F200002168C9F82000C5
:103DE00008A807F01F0B00F0E5FCD9F81480054681
:103DF00050B3BBF1040F11D2002D40F0EB8098F8C6
:103E00000B00C1065BD4C007284618BF07205FEA35
:103E10008B7148BF0546DDE0092569E1002D40D0E2
:103E2000042D52D140F28C110020C2F2000100BFDB
:103E30000A682AB10130012801F10C01F8D00220F2
:103E400002283ED1122540E0B8F1000F31D040F2F7
:103E50008C1CD9F80030D9F80870B9F80650C2F2B5
:103E6000000C0CF104000021002205E001210132C8
:103E7000012A00F10C000CD150F8044C002CF5D0B4
:103E80009C42F4D10468BC42F1D18488AC42EED1AA
:103E900000E00222022A0ED10025002908BF1225C7
:103EA000A7E798F80B0010F0110F72D0072595B115
:103EB00090E006259DE7002E72D0102599E7042595
:103EC00088E008A8FFF780FC0546D9F814804BF07D
:103ED000080B002D7ED11BF008007BD0CDF810B070
:103EE00000F07CFEC8F80E000020D9F8004088F8E9
:103EF0000B00C8F81C004FF48051615CB8F81A60E0
:103F0000032904F5805B07D198F8151098F8142060
:103F1000090641EA02410E44A8F81A00A8F8140064
:103F200001208BF804008EB3DBF82C10012ECDE9B4
:103F3000021628D0DBF81400B04224D9002504E092
:103F4000DBF814003E4687421ED22046314600F080
:103F5000CBFD074601302FD0B7B1012F13D020463B
:103F60003146002200F0A4FF054668B9DBF81000D6
:103F70000130E5D29BF80510CBF8100041F00100AC
:103F80008BF80500DCE70225280618D0DDF810B014
:103F900020E05FEA4B7048BF0825002D9BD019E058
:103FA00002EB42000CEB80004089A0F58070B0FA73
:103FB00080F0400905011CE701252806E6D1039899
:103FC00002990138CBF80C00204600F013FFDDF811
:103FD00010B00546280603D0280640F0898060E02E
:103FE0000BF00800D9F800204BEA800B41F22C00BE
:103FF000105840F28C11D9F80830B9F80670C2F2A6
:104000000001CAE907080E1D002004E00130012864
:1040100006F10C060AD156F8044C9442F6D13468E5
:104020009C42F3D1B488BC42F0D100E002200228C7
:104030001FD140F28C16C2F200060020334600BFAA
:104040001F682FB10130012803F10C03F8D00220C2
:1040500002284FF000071DD000EB400306EB83045D
:1040600046F82320D9F80820B9F806306260238189
:10407000678100EB400201EB82014A89BBF1020F2C
:1040800001D2013204E00AB1002703E04FF480724C
:10409000471C4A81CAF82870002F08BF022528064D
:1040A00026D10020D9F800108AF806B08AF8070057
:1040B0004FF480528A5CB8F81A30032A01F5805216
:1040C00007D198F8157098F814603F0647EA06473C
:1040D0003B44CAF81030D8F81C30CAF81800CAE9B6
:1040E0000203CAF82400CAF80010D088AAF8040015
:1040F000E8B20DF5825D03B0BDE8F08F2DE9F04F19
:1041000081B08246984615460E4600F5805700203D
:10411000BAF1000F186015D0386898B100F58050DA
:10412000017879B1C188BA8891420BD14078FFF704
:1041300045FD00F00100404200F00904002C40F071
:10414000F88003E00924002C40F0F380FC79002C77
:1041500040F0EF80B879C00701D10724E9E0D7E942
:104160000201081AA84238BF0546002D00F0DB8086
:10417000AAF1010041F2020C41F20A0E009011E096
:10418000386830F80E006043B96806440144B960ED
:10419000D8F800102D1A01444FF00004C8F80010A0
:1041A00000F0C7803868BA6800EB0C0319898CB23C
:1041B000B2FBF4F101FB1424002C6BD11B785C1EC4
:1041C0000C405FFA84FBBBF1000F25D18AB17C6AF9
:1041D0008CB162685AB1B1FBF3F004F1080100BF81
:1041E000904210D3801A4A680831002AF8D1002082
:1041F0000BE0386909E0796900F076FC41F20A0EBB
:1042000041F2020C01E0096808440228C0F08D80E8
:10421000411C00F08C807861386841F20102104442
:104220007969D0F813200239023A914205D24278D6
:10423000D0F8273001FB023100E00021002974D0C2
:10424000B0F8092001EB0B0995423CD2BA694A4506
:104250001ED0B97949060BD50078514601230124B7
:10426000FFF7B8FC002863D1B87900F0BF00B8713F
:10427000386841F20101405C51464A46012301245D
:10428000FFF78CFC002841F2020C41F20A0E4FD1DC
:10429000C7F818903868B96830F80E00B1FBF0F232
:1042A00002FB1011401AA84228BF284600283FF4FC
:1042B0006BAF5144721E034611F8014B013B02F8EB
:1042C000014FF9D160E7B5FBF2F4427804EB0B0142
:1042D0000078914288BFA2EB0B0431464A46234640
:1042E000FFF75CFC18BBB87941F2020C400641F2C2
:1042F0000A0E7FF545AFB869A0EB0901A142BFF4F2
:104300003FAF386830F80E0000283FF439AF01FBAA
:104310000061009A013900BF12F8013F013801F82D
:10432000013FF9D12CE7002403E0022400E001243E
:10433000FC71204601B0BDE8F08F000070B5044666
:1043400000F5805698B1306888B100F5805001784A
:1043500069B1C188B288914209D14078FFF72EFC3B
:1043600000F00100404200F00905E5B901E009252F
:10437000CDB9B079810616D540060ED5306841F228
:104380000101B269405C214601230125FFF722FCAF
:1043900048B9B07900F0BF00B0713068F16900F041
:1043A00029FD054608B1284670BD346AE07A40F020
:1043B0002000E072F0682077F068000A6077F089EA
:1043C000A077F07BE07730696083010C000E2175E7
:1043D000607500F003FCC4F8160000206082B1791B
:1043E000306841F20402012301F0DF018354B1710E
:1043F000BDE8704000F0FEBD802838BF704769B14D
:10440000FF2884BF0020704745F24221C0F600011A
:1044100001EB40006FF0FF01405A704745F2422225
:104420000021C0F6000200BF32F81130834204D0F0
:104430007F2901F10101F7D3802101F18000C0B291
:104440007047000045F2D6520021C0F6000200BFBE
:1044500032F81130834204D00131EF2908BF704790
:10446000F6E745F2F630C0F6000030F8110070476C
:104470002DE9F04F85B0002303600B681546CBB1E2
:10448000002200BF9F5C0132202F01D33A2FF9D1C7
:104490003A2F51D11F78A7F13004092C0AD84FF0D8
:1044A000FF36022A4FF0010708BF002C42D037B177
:1044B0000B25DFE04FF0FF360127002FF8D140F247
:1044C0008811C2F2000151F826407CB304F58057F0
:1044D0000460387858B17878FFF770FBC10706D1CF
:1044E00040070A21002D18BF01EAE075C2E0002054
:1044F0003870F0B27E70FFF733FBC10718D1002D82
:1045000018BF10F004001CD1787807F10A060221C8
:104510003246FFF737FB38B9308841F20101401AC3
:104520006FF4606188420ED20125A3E00C25A1E062
:1045300003259FE01A440A6000270026002FBED002
:10454000B6E70A2596E0204600210025FEF7C2FEC8
:1045500001285BD10DF1040800204146221892F891
:10456000C2311030002B14BFD2F8C62100224028DF
:1045700041F8042BF2D144F24619C0F254094FF02D
:10458000FF3B4FF0000A00BF58F82A5025B3002027
:10459000387120462946C7F82CB000F02BFC20B11A
:1045A0000320BAF1020F1BD930E0B4F8FE014AF63D
:1045B0005521884210D194F8371094F8382094F897
:1045C0003600090241EA0241084448450DD1002065
:1045D000BAF1020F04D919E00220BAF1020F15D87E
:1045E00000280AF1010ACFD110E094F8531094F892
:1045F000542094F85200090241EA02410844B0EB09
:10460000090018BF0120BAF1020FE9D920B103282F
:1046100014BF0D2501252DE0B4F80B103088814220
:1046200027D1B4F816B0BBF1000F08BFD4F824B0FE
:10463000267CC7F818B0721E012AFE7019D8627B5A
:10464000531EB2FA82F113404FEA511118BF0123F1
:104650001943BA700DD1B4F811A041091FFA8AFCB0
:104660008BB2BCFBF3FCA7F808A00CFB11A109045A
:1046700004D00D25284605B0BDE8F08FB4F81380AE
:10468000B8F1000F08BFD4F82080B4F80EE0BEF1F6
:10469000000FEED00BFB06F909EB0E0101EB0C0647
:1046A000B045E6D3A8EB060C9445E2D3BCFBF2F18F
:1046B00040F6F5724FF0010891424FF6F67388BF4D
:1046C0004FF00208994228BF4FF0030801F1020C95
:1046D00005EB0E022E449942C7F814C0C7E90752F1
:1046E000BE6212D25FEA0A43C3D0A1F6F6734A440F
:1046F0001B0B0E2B7A6291BF4FEA4C030CEB4C0262
:1047000001F0010303EB520306E05FEA0A42B0D175
:10471000E26A4FEA8C037A62C218013AB2FBF0F007
:104720008345A6D34FF0FF304FF6F672C7E903007A
:1047300080209142787124D3208E012821D1691CD8
:10474000204600F057FBE0B9B4F8FE114AF65522B6
:1047500000209142787114D1206845F25221C4F2B0
:10476000611188420DD1D4F8E40147F27221C6F2FA
:104770004111884205D1D4F8E801D4F8EC11C7E919
:10478000031040F2A41087F80080C2F200000188F4
:10479000002201310180F98040F28C110020C2F228
:1047A000000100258B58A34208BF88500C320C2A08
:1047B000F8D05FE72DE9F04F89B0834608780E46C0
:1047C00041F208015C280BEB010503D02F2808BF3C
:1047D000013600E0013600242C603078202807D212
:1047E00058460021FFF758F9EC6009B0BDE8F08F9A
:1047F00045F2E630C0F600000138059045F2ED3094
:10480000C0F600000BF580570138CDF810B0CDE9A7
:10481000075000E02960344601E000BF01342078F1
:104820005C28FBD02F28F9D0D5F81880202805D295
:104830004FF0040A012600212EE000BF0696002555
:10484000012609E028F8150060194078691CC2B2F9
:1048500001361F2A0D461CD9C0B22F284FF0000A7E
:1048600015D05C2813D0FF2D0ED00121FFF7C4FD19
:1048700050B17F28E6D8089911F8012F002A18BFF7
:104880009042F9D1002ADDD0DDE906653CE02946F9
:1048900001E04FF0040A079D2644A9B3484208EB03
:1048A000410103E00130A1F102012DD231F8022CC7
:1048B0002E2AF7D0202AF5D04FF00009BA69A1F8C6
:1048C00000904FF020314042C2F807105160116053
:1048D00002E000BF09F1010938F819102E29F9D0BA
:1048E0002029F7D0A8F10202B9F1000F18BF4AF051
:1048F000030A00BF014658B332F811002E28A1F177
:104900000100F7D1013024E006200021002900F049
:10491000CC805846FEF7D2FDB9690028C97A40F02C
:10492000BF80490700F1C1807869C17AC90640F1AA
:10493000BF8039684FF480528A5C418B032A7FF430
:1049400069AF427D007D120642EA0040014461E702
:10495000002001904C1E08254FF0010C00234FF061
:10496000000B002002904AF00302494602E000BF1B
:104970000131924638F811002028F9D02E2803D1B1
:104980008C42F5D102E000BF00285AD0AB4501F1BE
:1049900001093ED28C423CD0802816D300210395D9
:1049A000CDF818C01D46FFF727FD38B145F2B51107
:1049B000C0F60001084410F8800C00E000202B46EF
:1049C000DDF818C0039D4AF0020A40B1059900BF06
:1049D00011F8012F002A18BF9042F9D142B14AF0D4
:1049E000030A5F20B96901F80B000BF1010BBAE76C
:1049F000A0F1410189B2192902D843F00203F1E77D
:104A0000A0F1610189B219299CBF43F0010320384C
:104A1000E8E70298079DC007DDF810B04AF00300F0
:104A20003CD18C4218BF8246019881450CD8814602
:104A300001209B000B254FF0000C02904FF0080B5B
:104A400091E7079DDDF810B0B8694AF002020178DD
:104A5000E52904BF052101705FEACC7018BF9B00F7
:104A600003F0030103F00C00032908BF92460C2851
:104A700008BF92465FEA8A7207D4012908BF4AF04C
:104A8000100A042808BF4AF0080AB869012180F812
:104A90000BA0002000297FF43CAF06E08246D3E75C
:104AA000042802D1490758BF052009B0BDE8F08F9E
:104AB000052009B0BDE8F08FB0B543F60005044607
:104AC000C4F2010528468021FEF724FB0028F9D016
:104AD000E1B22846FEF780FB28464021FEF71AFB8C
:104AE0000028F9D02046B0BD02293CBF0120704704
:104AF0002DE9F04100F58056044670690D46884264
:104B000032D93078032832D002284ED001282BD158
:104B1000708905EB5507316AB7FBF0F00144204678
:104B200000F068F900284AD1708907F10108B7FB45
:104B3000F0F1326A01FB1071B8FBF0F0675C81188C
:104B4000204600F057F9D0BB7089EA07B8FBF0F1B6
:104B500001FB1080205C47EA002108466FF31F30FC
:104B600018BF0809BDE8F0810120BDE8F081708917
:104B7000316A8008B5FBF0F00144204600F03AF9B4
:104B8000E8B97089A900B1FBF0F14843C0EB85009A
:104B900021188B784A78C9781B04205C61F31B6369
:104BA00043EA02210844BDE8F0817089316A400877
:104BB000B5FBF0F00144204600F01CF918B14FF0AD
:104BC000FF30BDE8F08170896900B1FBF0F1484326
:104BD000C0EB4500205ABDE8F0810000002070477E
:104BE00084B0FCF7FDFDFDF7DDFCFEF769FAFDF78B
:104BF000DDFDFEF739F8FCF7BBFD5CA0FBF700FD1F
:104C000041F2F43045F2F531C2F20000C0F6000185
:104C10000022FFF763F841F2F034C2F20004207082
:104C200010B95DA0FBF7ECFC40F2C430C2F200000A
:104C300061A10122FFF7AAF8207040F2B034C2F25D
:104C40000004C8BB42F2244040F2C432C2F2000069
:104C5000C2F200028021FFF70DF858B342F2244659
:104C600040F2C43A04F1040BE71C04F10208651C8D
:104C7000C2F200060FF24C19C2F2000A06E000BFB1
:104C8000304680215246FEF7F5FF98B1304649463E
:104C900022462B46CDE90087CDF808B0FBF7ECFBA8
:104CA0000528EDD142F2AC40C2F200002146FEF7E9
:104CB000A1FAE5E7FEF7F4FA40F2C430C2F20000D0
:104CC000FEF798FF42F2AC40C2F2000042F2B04A56
:104CD0000068C2F2000A51460422FEF749FB42F284
:104CE000A84BC2F2000B0146CBF80000504600F082
:104CF00079F945F28F30C0F60000FBF781FC42F2F3
:104D0000A54545F24238C2F20005C0F600080FF290
:104D1000D40903E04846FBF773FC00BF2046FDF7CB
:104D20005DFF00282870F9D121786278A378E778B0
:104D300026794046CDE90076FBF7A2FADBF80010B1
:104D400050462246FEF782FA0028E3D045F2703042
:104D5000C0F60000FBF754FC00F098F840F6B830BD
:104D6000FEF792FBFEF7F0FAD8E700BF57656C63D9
:104D70006F6D6520746F207468652076656869635F
:104D80006C65206D616E6167656D656E7420737909
:104D90007374656D00000000534420436172642009
:104DA0006D6F756E74656420737563636573736688
:104DB000756C6C792E000000646174612E637376EB
:104DC0000000000025326868582C25326868582C8D
:104DD00025326868582C25326868582C2532686856
:104DE00058000000496E76616C69642063617264EA
:104DF000210000002DE9F04381B0814641F201001D
:104E000009EB0004D4F82B708F4201D1002638E062
:104E1000E078884620B3207849463A4601230126A7
:104E2000FEF7D8FE4FF00005E0B9D4F81F00D4F823
:104E30001710381A8842E57012D2A678022E0FD3C6
:104E4000012500BFD4F8171020780F4449463A4690
:104E50000123FEF7BFFE013E012EF3D8002601E03C
:104E6000002601256DB120784946424601230125DF
:104E7000FEF794FE00281CBF4FF0FF382E46C4F802
:104E80002B80304601B0BDE8F083000070B54FF4D0
:104E9000FA7540F2B45600BFACB2204600F09CF860
:104EA0001420FEF7F1FAB44205F12805F4D970BDDB
:104EB00002293CBF022070472DE9F04381B000F584
:104EC0008057054678690E4688421FD938781446BF
:104ED00003281FD002283DD0012817D1788906EB7E
:104EE0005609396AB9FBF0F001442846FFF782FF02
:104EF00000285AD178895FEAC678B9FBF0F101FB46
:104F0000109009F101093DD1E1B240E0022001B069
:104F1000BDE8F0837889396A8008B6FBF0F0014477
:104F20002846FFF767FF00283FD17989B200B2FB1E
:104F3000F1F25143C1EB86016A18D3786C5403F047
:104F4000F003210A44EA03635170210C9170190E99
:104F5000D17011E07889396A4008B6FBF0F001445D
:104F60002846FFF747FF00BB79897200B2FBF1F2D8
:104F70005143C1EB46016C523E1D0121317001B01D
:104F8000BDE8F083295C01F00F0164F30B11295493
:104F900001203E4606F8040FF088F169B9FBF0F0F5
:104FA00001442846FFF726FF10B101B0BDE8F083A9
:104FB0007989B8F1000FB9FBF1F202FB119107D129
:104FC0006A5CC4F3032302F0F0021A446A54D4E783
:104FD000C4F307126A54D0E701464FF08040FDF752
:104FE00077BC000043F26933C0F600030522FBF7EB
:104FF0000CBC00002DE9F04381B000F580578146DC
:10500000387918B3FE6A78784946324601234FF062
:105010000108FEF7DFFD4FF00005D0B9386AB96925
:10502000301A88423D7111D2FC78022C0ED3012532
:10503000B96978780E44494632460123FEF7CAFD25
:10504000013C012CF4D84FF0000802E04FF00008BA
:1050500001259DB33878032827D17879012824D1F8
:10506000798911B14846FBF73FFC4AF65520A9F86B
:10507000FE0145F25220C4F26110C9F8000047F267
:105080007220C6F24110D7E90321C9F8E401F8699A
:10509000C9F8EC21421C7878C9F8E8114946012387
:1050A000FA62FEF797FD00207871787800210022DF
:1050B000FEF768FD002818BF4FF00108404601B018
:1050C000BDE8F083F0B581B0044641F20100271835
:1050D000F87808B3D7F82B50387821462A460123B0
:1050E0000126FEF777FDC0B9D7F81F00D7F81710D3
:1050F000281A00268842FE700FD2BE78022E0BD3EB
:10510000D7F8171038780D4421462A460123FEF7B8
:1051100061FD013E012EF3D80026304601B0F0BDFE
:1051200030380A2801D20120704700207047000063
:1051300010B500290AD00878002807D0054878441F
:10514000FCF7D2FA002801D0002010BD02487844B4
:1051500010BD00009A060000920600003031323384
:10516000343536373839414243444546403058009B
:1051700030313233343536373839616263646566CD
:105180004030780004000008000000000000000229
:1051900000010000103A7474003A7474003A747498
:1051A00000020406080000000001020304010203DB
:1051B0000406070809809A90B68EB78F80D2D3D4A0
:1051C000D8D7DE8E8F909292E299E3EAEB59999AC2
:1051D0009D9C9D9E9FB5D6E0E9A5A5A6A7A8A9AAD6
:1051E000ABAC21AEAFB0B1B2B3B4B5B6B7B8B9BA23
:1051F000BBBCBDBEBFC0C1C2C3C4C5C7C7C8C9CA86
:10520000CBCCCDCECFD0D1D2D3D4D5D6D7D8D9DA76
:10521000DBDCDDDEDFE0E1E2E3E5E5E6E7E7E9EA66
:10522000EBEDEDEEEFF0F1F2F3F4F5F6F7F8F9FA55
:10523000FBFCFDFEFF01030507090E1012141618F2
:105240001C1EC700FC00E900E200E400E000E500ED
:10525000E700EA00EB00E800EF00EE00EC00C4001D
:10526000C500C900E600C600F400F600F200FB002D
:10527000F900FF00D600DC00F800A300D800D7003A
:105280009201E100ED00F300FA00F100D100AA0064
:10529000BA00BF00AE00AC00BD00BC00A100AB0076
:1052A000BB0091259225932502252425C100C2002B
:1052B000C000A9006325512557255D25A200A50042
:1052C0001025142534252C251C2500253C25E3001C
:1052D000C3005A25542569256625602550256C256F
:1052E000A400F000D000CA00CB00C8003101CD00FE
:1052F000CE00CF0018250C2588258425A600CC00DB
:105300008025D300DF00D400D200F500D500B50021
:10531000FE00DE00DA00DB00D900FD00DD00AF009A
:10532000B400AD00B1001720BE00B600A700F70022
:10533000B800B000A800B700B900B300B200A025C3
:10534000A0004361726420646574656374656421C0
:10535000205549443A20253032582C253032582CDB
:10536000253032582C253032582C253032580A003E
:1053700056616C6964206361726421204F70656EB0
:10538000696E6720626172726965722E2E2E0050FE
:105390006C61636520796F75722063617264206F40
:1053A0006E207468652052464944207265616465C8
:1053B00072004E4F204E414D452020202046415442
:1053C0002020202020004E4F204E414D45202020FF
:1053D00020464154333220202000EBFE904D5344B0
:1053E0004F53352E30002B2C3B3D5B5D00222A3A7B
:1053F0003C3E3F7C7F0041004200430044004500AA
:1054000046004700480049004A004B004C004D0050
:105410004E004F0050005100520053005400550000
:1054200056005700580059005A002100E0FFE1FFE4
:10543000E5FFE2FFE3FFC000C100C200C300C400FB
:10544000C500C600C700C800C900CA00CB00CC0018
:10545000CD00CE00CF00D000D100D200D300D400C8
:10546000D500D600D800D900DA00DB00DC00DD0072
:10547000DE007801000102010401060108010A01B1
:105480000C010E01100112011401160118011A017C
:105490001C011E01200122012401260128012A01EC
:1054A0002C012E01300132013401360139013B015A
:1054B0003D013F0141014301450147014A014C01C2
:1054C0004E01500152015401560158015A015C012C
:1054D0005E01600162016401660168016A016C019C
:1054E0006E01700172017401760179017B017D0109
:1054F00091019103920393039403950396039703F9
:10550000980399039A039B039C039D039E039F03A7
:10551000A003A103A303A403A503A603A703A80351
:10552000A903AA031004110412041304140415049B
:1055300016041704180419041A041B041C041D047F
:105540001E041F042004210422042304240425042F
:1055500026042704280429042A042B042C042D04DF
:105560002E042F04010402040304040405040604A9
:105570000704080409040A040B040C040E040F04B5
:1055800060216121622163216421652166216721F7
:10559000682169216A216B216C216D216E216F21A7
:1055A00021FF22FF23FF24FF25FF26FF27FF28FFDF
:1055B00029FF2AFF2BFF2CFF2DFF2EFF2FFF30FF8F
:1055C00031FF32FF33FF34FF35FF36FF37FF38FF3F
:1055D00039FF3AFF0000610062006300640065006B
:1055E00066006700680069006A006B006C006D006F
:1055F0006E006F007000710072007300740075001F
:1056000076007700780079007A00A100A200A3005C
:10561000A500AC00AF00E000E100E200E300E40020
:10562000E500E600E700E800E900EA00EB00EC0036
:10563000ED00EE00EF00F000F100F200F300F400E6
:10564000F500F600F800F900FA00FB00FC00FD0090
:10565000FE00FF00010103010501070109010B0123
:105660000D010F01110113011501170119011B0192
:105670001D011F01210123012501270129012B0102
:105680002D012F0131013301350137013A013C0170
:105690003E01400142014401460148014B014D01D8
:1056A0004F01510153015501570159015B015D0142
:1056B0005F01610163016501670169016B016D01B2
:1056C0006F0171017301750177017A017C017E011F
:1056D0009201B103B203B303B403B503B603B70336
:1056E000B803B903BA03BB03BC03BD03BE03BF03C6
:1056F000C003C103C303C403C503C603C703C80370
:10570000C903CA03300431043204330434043504B9
:1057100036043704380439043A043B043C043D049D
:105720003E043F044004410442044304440445044D
:1057300046044704480449044A044B044C044D04FD
:105740004E044F04510452045304540455045604A7
:105750005704580459045A045B045C045E045F0453
:105760007021712172217321742175217621772195
:10577000782179217A217B217C217D217E217F2145
:1057800041FF42FF43FF44FF45FF46FF47FF48FFFD
:1057900049FF4AFF4BFF4CFF4DFF4EFF4FFF50FFAD
:1057A00051FF52FF53FF54FF55FF56FF57FF58FF5D
:1057B00059FF5AFF00000000E858000800000020D0
:1057C000280000005001000810590008280000209F
:1057D000A03000007001000810010000430000002C
:1057E000F8FFFFFF00404040404040404040414102
:1057F00041414140404040404040404040404040A6
:10580000404040404005020202020202020202023F
:10581000020202020220202020202020202020023C
:1058200002020202020290909090909010101010CC
:105830001010101010101010101010101010101068
:1058400002020202020288888888888808080808FC
:1058500008080808080808080808080808080808C8
:1058600002020202400000000000000000000000F0
:105870000000000000000000000000000000000028
:105880000000000000000000000000000000000018
:105890000000000000000000000000000000000008
:1058A00000000000000000000000000000000000F8
:1058B00000000000000000000000000000000000E8
:1058C00000000000000000000000000000000000D8
:1058D00000000000000000000000000000000000C8
:1058E00000000000000000000000000000000000B8
:1058F0000000000001000000E1310008ED31000867
:10590000E9310008F1310008E5310008000000002D
:04000005080000ED02
:00000001FF
