:020000040800F2
:100000006806002099010008A1010008A30100086A
:10001000A5010008A7010008A901000800000000D0
:10002000000000000000000000000000AB0100081C
:10003000AD01000800000000AF010008B101000898
:10004000B3010008B3010008B3010008B3010008C0
:10005000B3010008B3010008B3010008B3010008B0
:10006000B3010008B3010008B3010008B3010008A0
:10007000B3010008B3010008B3010008B301000890
:10008000B3010008B3010008B3010008B301000880
:10009000B3010008B3010008B3010008B301000870
:1000A000B3010008B3010008B3010008B301000860
:1000B000B3010008B3010008B3010008B301000850
:1000C000B3010008B3010008B3010008B301000840
:1000D000B3010008B3010008B3010008B301000830
:1000E000B3010008B3010008B301000800F002F8F2
:1000F00000F042F814A696E8000CB244B344DA4586
:1001000001D100F039F8BAE80F000FA696E83000E8
:10011000A5EB040504EB0607AAEB0704A7F101070A
:100120004FEA15154FEA3414A4F10104AC4201D38F
:1001300000F022F813F0010F18BFFB1A43F001037F
:1001400000F001F8DBE718473C0D00004C0D000003
:10015000704700000023002400250026103A28BF25
:1001600078C1FBD8520728BF30C148BF0B60704729
:100170001FB51FBD10B510BD00F031F81146FFF7D7
:10018000F7FF00F049FE00F04FF803B4FFF7F2FF6D
:1001900003BC00F057F800000948804709480047B1
:1001A000FEE7FEE7FEE7FEE7FEE7FEE7FEE7FEE727
:1001B000FEE7FEE704480549054A064B7047000084
:1001C000D5040008ED000008680000206806002043
:1001D000680200206802002070477047704775462B
:1001E00000F02CF8AE4605006946534620F00700A3
:1001F000854618B020B5FFF7DDFFBDE820404FF081
:1002000000064FF000074FF000084FF0000BAC461F
:10021000ACE8C009ACE8C009ACE8C009ACE8C0096A
:1002200021F007018D46704710B50446AFF30080FA
:100230002046BDE81040FFF7A8BF00000048704707
:100240000000002001491820ABBEFEE72600020096
:1002500070470000B0B582B00820012100F0B8F866
:100260004AF2000040F60044C1F60300C4F2010463
:1002700001AD01902046294600F020F844F200002C
:10028000C0F2034001902046294600F017F81020E4
:10029000012100F09DF842F20000C1F2030004F5D4
:1002A000806401902046294600F008F820464FF46B
:1002B000005100F065F802B0B0BD0000CA7802F04D
:1002C0000F0CD30644BF8B784CEA030C2DE9F047A2
:1002D00009880B0625D082465AF8144B00F1100EFF
:1002E00000254FF001094FF00F08002706E000BF7E
:1002F0001E600137082F05F1040511D009FA07F631
:100300000E42F6D008FA05F324EA03030CFA05F4CA
:100310001C43282A5346EBD0482AEAD17346E7E724
:100320000460B1F5807F38BFBDE8F087436800F115
:10033000100E00F1140900254FF4807A4FF00F08D9
:10034000002705E034600137082F05F1040512D0BD
:100350000AFA07F404EA0106A642F4D108FA05F6FF
:10036000B3430CFA05F63343282A4E46EAD0482A0E
:10037000E9D17646E6E74360BDE8F0874161704722
:100380000161704710B582B00820012100F020F80B
:1003900041F2000040F60044C1F20300C4F201043F
:1003A000019001A92046FFF789FF20464FF48051B4
:1003B000FFF7E6FF02B010BD002941F21C01C4F2B4
:1003C00002010A680CBF22EA00001043086070476F
:1003D000002941F21801C4F202010A680CBF22EAA6
:1003E00000001043086070470288002918BF0121EF
:1003F00022F0400242EA81110180704710B586B0B8
:100400004FF480400121FFF7D7FF4FF08270CDF805
:1004100006000020CDF80A004FF00070CDF80E0065
:10042000282043F60004CDF812000720C4F200048F
:10043000ADF816000DF10601204600F011F8204637
:100440000121FFF7D1FF06B010BD00000089084070
:1004500018BF012070470000808970478181704774
:100460002DE9F04102880B8802F4415C4A88B1F81A
:1004700004E043EA0C03CC881A430D8942EA0E02D9
:100480004E8922438F892A43B1F80E8032433A4382
:1004900042EA08020280828B22F400628283098A87
:1004A0000182BDE8F081000010B543F60004C4F2FB
:1004B000000401462046FFF7D1FF00BF20468021FF
:1004C000FFF7C4FF0128F9D02046FFF7C5FFC0B2EF
:1004D00010BD000082B041F20400C4F2020050F8E6
:1004E000041C002241F0010140F8041C0168CFF611
:1004F000FF021140016050F8041C4FF6FF72CFF666
:10050000F662114040F8041C50F8041C21F48021CC
:1005100040F8041C016821F4FE0101604FF41F0142
:10052000416000210191009150F8041C41F4803198
:1005300040F8041C50F8041C01F4003100910199AA
:1005400001310191009919B90199B1F5A06FF1D16B
:1005500050F8041C890354BF002101210091009927
:10056000012936D142F20001C4F202010A6842F0C8
:1005700010020A600A6822F007020A600A6842F064
:1005800002020A600168016001680160016841F4CB
:1005900080610160016821F47C110160016841F40F
:1005A000E811016050F8041C41F0807140F8041C0F
:1005B00050F8041C8901FBD5016821F0030101609A
:1005C000016841F002010160016801F00C01082995
:1005D000FAD14EF60850CEF200004FF000610160F3
:1005E00002B0704780B584B001200121FFF7E4FE1E
:1005F00041F61F40CDF806004FF6FE70CDF80A0018
:100600000DF106014FF0804000F012F84FF08040ED
:10061000012100F003F804B080BD00000288002929
:1006200018BF012122F0010211440180704700002F
:1006300040F6FF33B0F800C0C4F2000398420FDC6C
:10064000B0F1804F1ED040F20043C4F20003984244
:1006500018D040F60003C4F20003984212D016E00E
:1006600040F60043C4F2000398420BD043F200432B
:10067000C4F20103984205D042F60043C4F20103DC
:10068000984204D14B882CF0700243EA020C41F2EC
:10069000004240F48063C4F20002934204D0CA884E
:1006A0002CF4407342EA030CA0F800C08A8883054A
:1006B0008285A0F18042A2F5963243EA92220B880D
:1006C000072A038507D8012303FA02F212F0E50F87
:1006D0001CBF097A0186012181827047B0B540F6BE
:1006E0000044C4F2010420464FF48051FFF746FE57
:1006F000A820FFF7D9FE0020FFF7D6FE05462046CA
:100700004FF48051FFF73CFEA80718BFB0BD20464C
:100710004FF48051FFF732FEA820FFF7C5FE0020FE
:10072000FFF7C2FE054620464FF48051FFF728FE32
:1007300020464FF4805145F00305FFF71FFE2820A7
:10074000FFF7B2FE2846FFF7AFFE20464FF4805178
:10075000BDE8B040FFF714BEB0B582B040F600452A
:10076000C4F20105044628464FF48051FFF706FE07
:100770001A20FFF799FE0020FFF796FE28464FF457
:100780008051FFF7FDFD42F2930020800DF1060538
:100790000C20214602222346009500F09FF908B163
:1007A00002B0B0BD00214FF0FF3200BFA3185B784C
:1007B0000132032A81EA0301F8D12279914218BF5C
:1007C000022002B0B0BD00002DE9F04140F6004526
:1007D000C4F201050E46074628464FF48051904664
:1007E000FFF7CCFD8A20FFF75FFE0020FFF75CFEDD
:1007F000044628464FF48051FFF7C2FD28464FF4C7
:100800008051FFF7BBFD0A20FFF74EFE04F0FB000E
:10081000FFF74AFE28464FF48051FFF7B1FD284606
:100820004FF48051FFF7AAFD9420FFF73DFE002012
:10083000FFF73AFE044628464FF48051FFF7A0FD2B
:1008400028464FF4805144F08004FFF797FD1420B0
:10085000FFF72AFE2046FFF727FE28464FF4805177
:10086000FFF78EFDA6B1013F17F8014F28464FF460
:100870008051FFF783FD1220FFF716FE2046FFF799
:1008800013FE28464FF48051FFF77AFD013EEBD16D
:1008900028464FF48051FFF771FD0220FFF704FE58
:1008A0000320FFF701FE28464FF48051FFF768FD53
:1008B000FF2400BF28464FF48051FFF75FFD8A20D8
:1008C000FFF7F2FD0020FFF7EFFD064628464FF444
:1008D0008051FFF755FD013C200602D016F00400C0
:1008E000E8D028464FF48051FFF748FDC420FFF7B9
:1008F000DBFD0020FFF7D8FD044628464FF4805169
:10090000FFF73EFD28464FF4805188F80040FFF77E
:1009100035FDC220FFF7C8FD0020FFF7C5FD0446E6
:1009200028464FF48051FFF72BFD88F80140BDE8C1
:10093000F0810000B0B584B040F60045C4F2010576
:10094000044628464FF48051FFF718FD1A20FFF7A0
:10095000ABFD0720FFF7A8FD28464FF48051FFF7B5
:100960000FFD2620207002AD0C20214601222346D7
:10097000009500F0B3F8BDF80810054681F01000AE
:10098000284318BF022503D12046FFF7E5FE0546A0
:1009900050200DF10A04ADF80A00A21C20460221E5
:1009A000FFF712FF0DF10E0C0C2021460422234606
:1009B000CDF800C000F092F8284604B0B0BD0000A9
:1009C00010B5FFF7DFFCFFF719FD40F60044C4F255
:1009D000010420464FF48051FFF7D0FC0220FFF7BE
:1009E00063FD0F20FFF760FD20464FF48051FFF7B5
:1009F000C7FC20464FF48051FFF7C0FC5420FFF79E
:100A000053FD8D20FFF750FD20464FF48051FFF736
:100A1000B7FC20464FF48051FFF7B0FC5620FFF79B
:100A200043FD3E20FFF740FD20464FF48051FFF785
:100A3000A7FC20464FF48051FFF7A0FC5A20FFF797
:100A400033FD1E20FFF730FD20464FF48051FFF7A5
:100A500097FC20464FF48051FFF790FC5820FFF799
:100A600023FD0020FFF720FD20464FF48051FFF7C3
:100A700087FC20464FF48051FFF780FC4C20FFF7A5
:100A800013FD7020FFF710FD20464FF48051FFF753
:100A900077FC20464FF48051FFF770FC2A20FFF7C7
:100AA00003FD4020FFF700FD20464FF48051FFF783
:100AB00067FC20464FF48051FFF760FC2220FFF7CF
:100AC000F3FC3D20FFF7F0FC20464FF48051FFF788
:100AD00057FCBDE81040FFF701BE00002DE9F04FC4
:100AE00081B0174683460C288946009307D0BBF196
:100AF0000E0F09D14FF011084FF0120A08E04FF025
:100B000031084FF0770A03E04FF001084FF0000A78
:100B100040F60044C4F2010420464FF480510AF12B
:100B20008005FFF72BFC0420FFF7BEFC2846FFF7EB
:100B3000BBFC20464FF48051FFF722FC20464FF4C7
:100B40008051FFF71BFC8820FFF7AEFC0020FFF769
:100B5000ABFC054620464FF48051FFF711FC2046C0
:100B60004FF48051FFF70AFC0820FFF79DFC05F0C9
:100B70007F00FFF799FC20464FF48051FFF700FCFF
:100B800020464FF48051FFF7F9FB9420FFF78CFCCF
:100B90000020FFF789FC054620464FF48051FFF7FF
:100BA000EFFB20464FF4805145F08005FFF7E6FB50
:100BB0001420FFF779FC2846FFF776FC20464FF417
:100BC0008051FFF7DDFB20464FF48051FFF7D6FB45
:100BD0000220FFF769FC0020FFF766FC20464FF477
:100BE0008051FFF7CDFBAFB1A9F1010616F8015F07
:100BF00020464FF48051FFF7C1FB1220FFF754FC51
:100C00002846FFF751FC20464FF48051FFF7B8FB10
:100C1000013FEBD120464FF48051FFF7AFFB02209C
:100C2000FFF742FC5846FFF73FFC20464FF4805147
:100C3000FFF7A6FBBBF10C0F22D120464FF48051E9
:100C4000FFF79CFB9A20FFF72FFC0020FFF72CFCFE
:100C5000054620464FF48051FFF792FB20464FF4A3
:100C6000805145F08005FFF789FB1A20FFF71CFC37
:100C70002846FFF719FC20464FF48051FFF780FB10
:100C8000DDF828904FF4FA6720464FF48051FFF7C3
:100C900075FB8820FFF708FC0020FFF705FC0546E0
:100CA00020464FF48051FFF76BFB013F380400F002
:100CB0008B8018EA050FE7D020464FF48051FFF7EC
:100CC0005DFB9A20FFF7F0FB0020FFF7EDFB0746E6
:100CD00020464FF48051FFF753FB20464FF48051DC
:100CE000FFF74CFB1A20FFF7DFFB07F07F00FFF751
:100CF000DBFB20464FF48051FFF742FB20464FF4C8
:100D00008051FFF73BFB8C20FFF7CEFB0020FFF765
:100D1000CBFB074620464FF48051FFF731FB17F01D
:100D20001B0F73D10AEA0500BBF10C0F00F001089C
:100D30006ED120464FF48051FFF720FB9420FFF73F
:100D4000B3FB0020FFF7B0FB064620464FF480516E
:100D5000FFF716FB20464FF48051FFF70FFB98205A
:100D6000FFF7A2FB0020FFF79FFB074620464FF44A
:100D70008051FFF705FB17F0070040EAC600A0F11D
:100D8000080008BFF000A9F80000012E98BF012656
:100D9000102E28BF10260098451E00BF20464FF495
:100DA0008051FFF7EBFA9220FFF77EFB0020FFF760
:100DB0007BFB074620464FF48051FFF7E1FA013EE6
:100DC00005F8017FEAD123E020464FF48051FFF778
:100DD000D5FA9A20FFF768FB0020FFF765FB054670
:100DE00020464FF48051FFF7CBFA20464FF4805154
:100DF000FFF7C4FA1A20FFF757FB05F07F00FFF753
:100E000053FB20464FF48051FFF7BAFA4FF0020827
:100E1000404601B0BDE8F08F41F20004C4F2010485
:100E2000FFF718FAFFF7DEFBFFF7E8FAFFF7C8FD58
:100E300040F2600540F2660640F26507C2F2000526
:100E4000C2F20006C2F2000707E000BF20464FF4DE
:100E50000051FFF793FA012038702846FFF76AFD2A
:100E60003978307050EA0102F0D0002818BF00290C
:100E7000F3D020464FF40051FFF782FA002038707B
:100E8000EBE70000940E0008000000206806000058
:040E90005401000801
:04000005080000ED02
:00000001FF
