:020000040800F2
:100000006006002099010008A1010008A301000872
:10001000A5010008A7010008A901000800000000D0
:10002000000000000000000000000000AB0100081C
:10003000AD01000800000000AF010008B101000898
:10004000B3010008B3010008B3010008B3010008C0
:10005000B3010008B3010008B3010008B3010008B0
:10006000B3010008B3010008B3010008B3010008A0
:10007000B3010008B3010008B3010008B301000890
:10008000B3010008B3010008B3010008B301000880
:10009000B3010008B3010008B3010008B301000870
:1000A000B3010008B3010008B3010008B301000860
:1000B000B3010008B3010008B3010008B301000850
:1000C000B3010008B3010008B3010008B301000840
:1000D000B3010008B3010008B3010008B301000830
:1000E000B3010008B3010008B301000800F002F8F2
:1000F00000F042F814A696E8000CB244B344DA4586
:1001000001D100F039F8BAE80F000FA696E83000E8
:10011000A5EB040504EB0607AAEB0704A7F101070A
:100120004FEA15154FEA3414A4F10104AC4201D38F
:1001300000F022F813F0010F18BFFB1A43F001037F
:1001400000F001F8DBE71847AC050000BC05000033
:10015000704700000023002400250026103A28BF25
:1001600078C1FBD8520728BF30C148BF0B60704729
:100170001FB51FBD10B510BD00F031F81146FFF7D7
:10018000F7FF00F00DFA00F04FF803B4FFF7F2FFAD
:1001900003BC00F057F800000948804709480047B1
:1001A000FEE7FEE7FEE7FEE7FEE7FEE7FEE7FEE727
:1001B000FEE7FEE704480549054A064B7047000084
:1001C00045030008ED0000086000002060060020E4
:1001D000600200206002002070477047704775463B
:1001E00000F02CF8AE4605006946534620F00700A3
:1001F000854618B020B5FFF7DDFFBDE820404FF081
:1002000000064FF000074FF000084FF0000BAC461F
:10021000ACE8C009ACE8C009ACE8C009ACE8C0096A
:1002200021F007018D46704710B50446AFF30080FA
:100230002046BDE81040FFF7A8BF00000048704707
:100240000000002001491820ABBEFEE72600020096
:1002500070470000CA7802F00F0CD30644BF8B78B9
:100260004CEA030C2DE9F04709880B0625D082469D
:100270005AF8144B00F1100E00254FF001094FF011
:100280000F08002706E000BF1E600137082F05F1A8
:10029000040511D009FA07F60E42F6D008FA05F364
:1002A00024EA03030CFA05F41C43282A5346EBD036
:1002B000482AEAD17346E7E70460B1F5807F38BF8A
:1002C000BDE8F087436800F1100E00F11409002525
:1002D0004FF4807A4FF00F08002705E034600137B3
:1002E000082F05F1040512D00AFA07F404EA010602
:1002F000A642F4D108FA05F6B3430CFA05F63343E7
:10030000282A4E46EAD0482AE9D17646E6E74360F5
:10031000BDE8F087002941F21C01C4F202010A681D
:100320000CBF22EA0000104308607047002941F228
:100330001801C4F202010A680CBF22EA000010434F
:100340000860704782B041F20400C4F2020050F825
:10035000041C002241F0010140F8041C0168CFF6A2
:10036000FF021140016050F8041C4FF6FF72CFF6F7
:10037000F662114040F8041C50F8041C21F480215E
:1003800040F8041C016821F4FE0101604FF41F01D4
:10039000416000210191009150F8041C41F480312A
:1003A00040F8041C50F8041C01F40031009101993C
:1003B00001310191009919B90199B1F5A06FF1D1FD
:1003C00050F8041C890354BF0021012100910099B9
:1003D000012936D142F20001C4F202010A6842F05A
:1003E00010020A600A6822F007020A600A6842F0F6
:1003F00002020A600168016001680160016841F45D
:1004000080610160016821F47C110160016841F4A0
:10041000E811016050F8041C41F0807140F8041CA0
:1004200050F8041C8901FBD5016821F0030101602B
:10043000016841F002010160016801F00C01082926
:10044000FAD14EF60850CEF200004FF00061016084
:1004500002B070470288002918BF012122F0010272
:100460001144018070470000808C7047B0B5028C49
:10047000850522F001020284038C8288B0F818C03E
:100480000C8923F002032343A0F18044A4F59634A1
:1004900045EA94244D88B1F800E0072C43EA0503AF
:1004A00013D8012505FA04F414F0E50F0DD04C899A
:1004B00023F00C0324F004048D8823438C892B4300
:1004C00022F44072CD8922432A432CF0730545EA79
:1004D0000E0582800583C98881860384B0BD000033
:1004E000028B22F008021143018370478186704716
:1004F0008184704740F6FF33B0F800C0C4F20003B7
:1005000098420FDCB0F1804F1ED040F20043C4F29D
:100510000003984218D040F60003C4F2000398424A
:1005200012D016E040F60043C4F2000398420BD00C
:1005300043F20043C4F20103984205D042F600435F
:10054000C4F20103984204D14B882CF0700243EAB4
:10055000020C41F2004240F48063C4F20002934274
:1005600004D0CA882CF4407342EA030CA0F800C0FF
:100570008A8883058285A0F18042A2F5963243EAFB
:1005800092220B88072A038507D8012303FA02F277
:1005900012F0E50F1CBF097A0186012181827047A4
:1005A00088B040F2004404200121C4F200044FF658
:1005B000FE78FFF7BBFE01200121FFF7ABFE012013
:1005C000C1F60300079004F5823007A9FFF742FE49
:1005D0004720CDF8120044F61F60CDF816000DF14B
:1005E00012014FF08040FFF785FF6020C0F201004C
:1005F000CDF802004FF47A700DF1020902904FF02D
:1006000080404946FFF732FF4FF080400821FFF756
:1006100067FF4FF080400121FFF71CFF002741F6E4
:100620001F4644F6206500BF4FF080404FF4FA713A
:10063000FFF75CFF02200121FFF76CFE20464946D0
:10064000ADF80870CDF80260ADF80680FFF752FFF4
:1006500020460121FFF7FEFE20460021FFF748FF5C
:100660002046FFF701FFA842FAD34FF0804040F246
:10067000DC51FFF73BFF02200121FFF74BFE204634
:100680004946ADF80870CDF80260ADF80680FFF776
:1006900031FF20460121FFF7DDFE20460021FFF754
:1006A00027FF00BF2046FFF7DFFEA842FAD34FF036
:1006B000804040F6C411FFF719FF02200121FFF727
:1006C00029FE20464946ADF80870CDF80260ADF825
:1006D0000680FFF70FFF20460121FFF7BBFE2046F3
:1006E0000021FFF705FF00BF2046FFF7BDFEA8422F
:1006F000FAD399E704070008000000206006000014
:040700005401000898
:04000005080000ED02
:00000001FF
