:020000040800F2
:1000000078070020CD010008D5010008D7010008BD
:10001000D9010008DB010008DD0100080000000034
:10002000000000000000000000000000DF010008E8
:10003000E101000800000000E3010008E5010008FC
:10004000E7010008E7010008E7010008E7010008F0
:10005000E7010008E7010008E7010008E7010008E0
:10006000E7010008E7010008E7010008E7010008D0
:10007000E7010008E7010008E7010008E7010008C0
:10008000E7010008E7010008E7010008E7010008B0
:10009000E7010008E7010008E7010008E7010008A0
:1000A000E7010008E7010008E7010008E701000890
:1000B000E7010008E7010008E7010008E701000880
:1000C000E7010008E7010008E7010008E701000870
:1000D000E7010008E7010008E7010008E701000860
:1000E000E7010008E7010008E701000800F002F856
:1000F00000F05DF814A696E8000CB244B344DA456B
:1001000001D100F054F8BAE80F000FA696E83000CD
:10011000A5EB040504EB0607AAEB0704A7F101070A
:100120004FEA15154FEA3414A4F10104AC4201D38F
:1001300000F03DF813F0010F18BFFB1A43F0010364
:1001400000F001F8DBE71847E41B0000041C000086
:10015000103A24BF78C878C1FAD8520724BF30C8F3
:1001600030C144BF04680C60704700007047000055
:100170000023002400250026103A28BF78C1FBD8B0
:10018000520728BF30C148BF0B607047782900F084
:100190007180002070471FB59DE8030000F006FC49
:1001A00000F0D0F91FBD10B500F035FA10BD00F019
:1001B00065FA1146FFF7EFFF01F02EFD00F06CFB32
:1001C00003B4FFF7F0FF03BC00F06EFD0948804761
:1001D00009480047FEE7FEE7FEE7FEE7FEE7FEE729
:1001E000FEE7FEE7FEE7FEE704480549054A064B41
:1001F0007047000059110008ED0000087801002048
:100200007807002078030020780300200FB4044909
:1002100010B503AA029800F067F910BC5DF814FB52
:100220006400002070B5044685690068C10601D5E8
:10023000302600E02026C00707D070BDD4E9012198
:1002400030469047206A401C20626D1EF6D570BD76
:1002500070B5044685690078C00707D170BDD4E940
:10026000012120209047206A401C20626D1EF6D597
:1002700070BD000070B504460D4621461068AFF30E
:1002800000802188090502D50F4A7A4402E00E4A0F
:100290007A440E32002104F1240305E000F00F0639
:1002A0000009965D5E54491C0028F7D12078002390
:1002B000000704D5702D02D009B102231132204667
:1002C000BDE8704000F0B7B8441A00002DE9F05FB7
:1002D000894604464FF0000ADFF824B1FB44C0F819
:1002E00020A02046E168884700287DD0252806D038
:1002F000D4E901219047206A401C2062F1E70025E3
:100300005F462046E16888472028064607DB312EF5
:1003100005D2B81910F8200C08B10543F1E7A80779
:1003200001D525F00405C4F81CA00027C4F818A0C6
:100330002A2E09D0304601F0C5FC38B304EB8708FB
:10034000303EC8F8186019E059F8041B204604EB49
:1003500087029161E1688847012F064618D1E0695C
:10036000002820DA25F020051DE0D8F8180000EB61
:10037000800006EB40003038C8F818002046E168DD
:100380008847064601F09EFC0028EED1012F0AD0D6
:100390002E2E08D12046E16888477F1C0646022F92
:1003A00045F02005C4DBA069002803DA404245F08F
:1003B0000105A061E80701D025F01005A6B1A6F15E
:1003C0004100192802D8203645F400654A463146D6
:1003D000204625604D46FFF7D9FE60B1012807D0C1
:1003E000ED1D25F0070000E007E000F1080978E7BF
:1003F00005F1040975E730467AE7206ABDE8F09F09
:100400001A1A000010B5044603E001F0EDFB401C91
:1004100009D014F8010B05490028F6D1BDE81040B9
:100420000A2001F0E1BB4FF0FF3010BD6400002056
:100430007047704770472DE9F0470D469946924640
:10044000044600F124080168880604D5E06921F01B
:100450001001216000E00120A84201DD471B00E0FF
:100460000027A1697A1902EB0900081AA061207817
:10047000C00602D42046FFF7D5FE002608E0D4E9E6
:1004800001211AF806009047206A401C761C206261
:100490004E45F4DB2078C0060AD52046FFF7C2FEA1
:1004A00006E0D4E9012130209047206A401C2062F8
:1004B000381EA7F10107F4DC07E0D4E9012118F8A0
:1004C00005009047206A401C2062281EA5F1010506
:1004D000F3DC2046FFF7BCFE2078000602D50220A0
:1004E000BDE8F0870120FBE7074B70B50D467B4464
:1004F00000F011F80446284600F020F810B14FF043
:10050000FF3070BD204670BDF716000001694A1C1F
:1005100002610878704700B58FB0CDE90131002144
:10052000059105497944CDE9031011466846FFF766
:10053000CDFE0FB000BD0000E5FFFFFF007B00F027
:100540008000704710B54248542100F0B5F9414889
:10055000542100F0B1F94048542100F0ADF93F4971
:100560003B483C4A3F4B08603D490A603A491960A4
:10057000531C0365481C1065012008653B48344A3C
:1005800039A1784400F0EAF820B9384878440A38AC
:1005900000F08BF937482F4A35A1784400F0DEF897
:1005A00020B9344878440A3800F07FF932482A4AA2
:1005B0002FA1784400F0D2F820B92F4878440A38A7
:1005C00000F073F940232248DC000021224600F0AD
:1005D000A1F820B125487844543800F066F91D4848
:1005E00022464023002100F095F820B121487844AC
:1005F000543800F05AF9184822461023002100F020
:1006000089F8002806D01C487844BDE810405638C8
:1006100000F04BB910BD104870B5006D20F001041A
:100620000B4800F013F90B4800F010F90A4800F0ED
:100630000DF909E0206D20F00105204600F006F9D3
:10064000204600F040F82C46002CF3D170BD00008D
:100650001000002064000020B800002000000020EE
:100660000400002008000020720000008517000030
:1006700077000000711700005D170000754600F05C
:1006800075F9AE4605006946534620F007008546D9
:1006900018B020B5FFF7A8FDBDE820404FF00006D8
:1006A0004FF000074FF000084FF0000BAC46ACE8ED
:1006B000C009ACE8C009ACE8C009ACE8C00921F049
:1006C00007018D46704770B50446051F00F052F9CA
:1006D0000068002C14BF446870BD002C18BFAC42E9
:1006E0003CBF20466468F8D301680A18AA4218BFC4
:1006F000456003D12A680546114401602868411904
:10070000A1421CBF6C6070BD6168696021680844CB
:10071000286070BD70B5C468A50713D0650211D4F8
:10072000B2F5807F09D0B2F5007F06D0B2F5806FB8
:1007300008D1012300F1240106E05D1E6FF07F4621
:10074000B54201D3012070BD0161C361416024F451
:1007500070611143C160002070BD00002DE9F041BF
:100760000C461646070047D0104600F06FF8207878
:10077000611C61280AD0722802D077283CD102E09F
:100780000125002405E00225042402E0082448F2A3
:10079000020511F8010B2B2806D0622809D011F8A8
:1007A000010C74280AD00BE045F0030544F0020464
:1007B000EFE745F0040544F00104EAE744F01004D3
:1007C0003846214600F09FF8411C15D000213161C8
:1007D00071604FF40071F560F1617061200704D51C
:1007E00030460222002100F03FF9306D40F0010058
:1007F00030653046BDE8F0810020FBE72DE9F0418F
:100800000D460646104C206DC10704D0410804D0A7
:1008100020F00104F7E722460EE0542000F0F5F83E
:1008200007000ED0206D47F00101084354212065D8
:10083000384600F041F83A4629463046BDE8F041D6
:100840008CE70020D6E70000100000202DE9F047DB
:1008500004464FF0FF380026C568D4E90497A8077E
:1008600018D0204600F0BCF9384600F056F80028B1
:1008700000DA4646280502D54846FFF724FF4C21FA
:10088000204600F019F8206D20F001002065304668
:10089000BDE8F0874046FBE710B50446AFF30080A3
:1008A0002046BDE81040FFF78BBC10B500F0E2F920
:1008B000BDE8104000F0D8B94FF0000200B5134673
:1008C00094469646203922BFA0E80C50A0E80C5070
:1008D000B1F12001BFF4F7AF090728BFA0E80C5021
:1008E00048BF0CC05DF804EB890028BF40F8042B1A
:1008F00008BF704748BF20F8022B11F0804F18BF87
:1009000000F8012B70470EB5CDE9000100F034FA74
:10091000029069460120ABBE0EBD08B56946009045
:100920000220ABBE08BD1FB58DE807006946052053
:10093000ABBE04B010BD1FB58DE80F0069460620A0
:10094000ABBEF6E708B5694600900920ABBE08BD0E
:100950001CB5CDE9000169460A20ABBE1CBD70473D
:1009600008B5694600900C20ABBE08BD0048704732
:100970000C010020004870471401002070477047A8
:100980007047704738B504460A4600206946AFF301
:100990000080002808BF38BD02460099204600F0BC
:1009A00090F9012038BD012000F0DFB9F8B5AFF3B0
:1009B0000080054600200C460C2000BF0646A81902
:1009C000A0420DD9324669460020AFF300800700EF
:1009D00008BF00F0CAF90098A04218BF0546C41924
:1009E000FFF7C8FF05600746F01D20F00700461915
:1009F000284600F060F9B44208BFF8BDA21B31469A
:100A00003868BDE8F84000F05CB970B50646FFF7FD
:100A1000B1FF056806F10B0020F00704B4429CBF4B
:100A2000002070BD2B466A68BAB11068A04210D38E
:100A300004F1080188423CBF5068586007D35168F0
:100A4000101941601168091B016058601460101D85
:100A500070BD13465268002AE7D121462846FFF7A9
:100A600091FF0028DED170BD2DE9F0410446164605
:100A70000D464769007B80072ED03846FFF762FF9E
:100A800050BB3EB3012E02D0022E25D104E02046F9
:100A900000F031F905441DE03846FFF761FFE168D9
:100AA000002841F01001E16005DA204600F058F816
:100AB0000120BDE8F081C9030BD56268E16A91426B
:100AC00000D81146A26911442269891A814200DDC9
:100AD00008460544002D01DA0220EAE7E16A606871
:100AE000E268814206D29103E06203D522F400312C
:100AF00041F01002A6690027AE4213DCE16A814290
:100B000001D90B4600E0034603EB060C2369ACEB6E
:100B1000030CAC4506DD814201D98C4600E08446D9
:100B20009C4505D1A760276042F02000A5620DE03A
:100B3000AD1BE669AE1B8142A66000D90846C01A0B
:100B4000281A20605819606022F0200003490840EC
:100B5000E060002084F84870ABE70000BFCFD7FF0B
:100B6000C16821F4001141F08001C1600021816061
:100B7000016070472DE9F74F15460C464FF0FF3BDB
:100B80003848D768D2F814A0074209D05046A9695E
:100B9000FFF7DEFE002819DB3248C0430740EF6054
:100BA0004FF000496FF000484C4501D3464600E045
:100BB000264600993B4650463246FFF7B4FEA969E7
:100BC00020F00042B21A1144A96128B12846FFF76B
:100BD000C7FF5846BDE8FE8FA41BE5D10020F9E70A
:100BE00070B504460569C06A6168884200D8084645
:100BF000E16821F42011E160C90312D5A84208D0B0
:100C00002246411B2846FFF7B5FF10B14FF0FF30D9
:100C100070BD0020E562C4E90150E06820F4803036
:100C2000E060002070BD10B50446C06820F02000D0
:100C3000E060A16AA06988420DD02046FFF7D0FF8E
:100C4000E06820F4405040F01000E060A06AA0612D
:100C50002069E062606044F24001E0688843E0603F
:100C600010BD000010000200002801D000F01CB8E8
:100C70007047000010B5014602A000F05DF80120A9
:100C800010BD000053494752545245443A20526522
:100C90006469726563743A2063616E2774206F70B3
:100CA000656E3A200000000001491820ABBEFEE747
:100CB00026000200704700210160416070470C204F
:100CC0007047034640688C46002818BF88423CBFE6
:100CD00003464068F8D318681844884207D00CF1DE
:100CE000030020F00700001D411A521A0146081D9A
:100CF0000A60FFF7E8BC10B50146C268900703D050
:100D0000900607D5886A0AE000F05CF801210160CE
:100D1000881E10BD8B69486818440B69C01A91F889
:100D200048301BB191F84910401A10BD1103FCD591
:100D30000028FADD401E10BD70B505460C460A209D
:100D400000E06D1C00F037F835B128780028F8D1A4
:100D500002E0641C00F02FF814B120780028F8D1CC
:100D6000BDE870400A2000F026B810B500F02EF85B
:100D7000BDE81040FFF778BF10B5431C02E010F843
:100D8000011B71B18107FAD14FF0013202C88C1AF0
:100D90008C4314EAC211F9D0C01A0A0603D0C01E4F
:100DA00010BDC01A10BD0A0401D0801E10BD09027A
:100DB000FCD0401E10BD08B569468DF80000032028
:100DC000ABBE08BD004870470C01002010B50128DB
:100DD00005D0002103A0FFF7AFFF012010BD09A13E
:100DE000F8E7000053494752544D454D3A204F759E
:100DF00074206F662068656170206D656D6F727913
:100E0000000000003A2048656170206D656D6F72CA
:100E10007920636F727275707465640070B582B00A
:100E20000820012100F0D0F840F600044AF200004A
:100E3000C4F20104C1F6030004F5806601AD01901F
:100E40003046294600F036F844F20000C0F2034074
:100E500001903046294600F02DF80420012100F0D1
:100E6000B3F840F20040C0F203400190204629460A
:100E700000F020F840F20020C1F603000190204667
:100E8000294600F017F81020012100F09DF842F2E9
:100E90000000C1F2030004F50064019020462946D9
:100EA00000F008F820464FF4005100F065F802B059
:100EB00070BD0000CA7802F00F0CD30644BF8B78D7
:100EC0004CEA030C2DE9F04709880B0625D0824631
:100ED0005AF8144B00F1100E00254FF001094FF0A5
:100EE0000F08002706E000BF1E600137082F05F13C
:100EF000040511D009FA07F60E42F6D008FA05F3F8
:100F000024EA03030CFA05F41C43282A5346EBD0C9
:100F1000482AEAD17346E7E70460B1F5807F38BF1D
:100F2000BDE8F087436800F1100E00F114090025B8
:100F30004FF4807A4FF00F08002705E03460013746
:100F4000082F05F1040512D00AFA07F404EA010695
:100F5000A642F4D108FA05F6B3430CFA05F633437A
:100F6000282A4E46EAD0482AE9D17646E6E7436089
:100F7000BDE8F087416170470161704710B582B0EC
:100F80000820012100F020F841F2000040F6004462
:100F9000C1F20300C4F20104019001A92046FFF749
:100FA00089FF20464FF48051FFF7E6FF02B010BDE5
:100FB000002941F21C01C4F202010A680CBF22EAB6
:100FC0000000104308607047002941F21801C4F284
:100FD00002010A680CBF22EA000010430860704753
:100FE00010B541F20404C4F20204226802F00C02BB
:100FF000082A41F20022C0F27A0212D12368D4F802
:1010000000C0C3F3834E5FEACC330EF1020C02D56D
:1010100023689B0303D540F60012C0F23D020CFB8F
:1010200002F20260226841F61B53C2F30312C0F6BB
:1010300000039A5C0168D14041602268C2F3022239
:101040009A5C21FA02F282602268C2F3C2229A5CA0
:1010500041F61753D140C1602268C0F60003C2F3C5
:1010600081329A5CB1FBF2F1016110BD0288002966
:1010700018BF012122F0400242EA8111018070472D
:1010800010B586B04FF480400121FFF791FF4FF07B
:101090008270CDF806000020CDF80A004FF00070F5
:1010A000CDF80E00282043F60004CDF812000720EA
:1010B000C4F20004ADF816000DF10601204600F060
:1010C00011F820460121FFF7D1FF06B010BD000046
:1010D0000089084018BF01207047000080897047D0
:1010E000818170472DE9F04102880B8802F4415C50
:1010F0004A88B1F804E043EA0C03CC881A430D890E
:1011000042EA0E024E8922438F892A43B1F80E80AB
:1011100032433A4342EA08020280828B22F40062A0
:101120008283098A0182BDE8F081000010B543F690
:101130000004C4F2000401462046FFF7D1FF00BFBF
:1011400020468021FFF7C4FF0128F9D02046FFF791
:10115000C5FFC0B210BD000082B041F20400C4F26D
:10116000020050F8041C002241F0010140F8041C68
:101170000168CFF6FF021140016050F8041C4FF6E1
:10118000FF72CFF6F662114040F8041C50F8041CC0
:1011900021F4802140F8041C016821F4FE01016063
:1011A0004FF41F01416000210191009150F8041C8F
:1011B00041F4803140F8041C50F8041C01F4003163
:1011C0000091019901310191009919B90199B1F585
:1011D000A06FF1D150F8041C890354BF00210121F4
:1011E00000910099012936D142F20001C4F20201B6
:1011F0000A6842F010020A600A6822F007020A60D8
:101200000A6842F002020A60016801600168016038
:10121000016841F480610160016821F47C11016082
:10122000016841F4E811016050F8041C41F080713C
:1012300040F8041C50F8041C8901FBD5016821F01A
:1012400003010160016841F002010160016801F0E1
:101250000C010829FAD14EF60850CEF200004FF0EA
:101260000061016002B0704780B584B001200121A7
:10127000FFF79EFE41F61F40CDF806004FF6FE70C8
:10128000CDF80A000DF106014FF0804000F016F88D
:101290004FF08040012100F003F804B080BD000051
:1012A0000288002918BF012122F0010211440180A7
:1012B00070470000808C70478184704740F6FF3390
:1012C000B0F800C0C4F2000398420FDCB0F1804FC8
:1012D0001ED040F20043C4F20003984218D040F6FA
:1012E0000003C4F20003984212D016E040F6004317
:1012F000C4F2000398420BD043F20043C4F201034E
:10130000984205D042F60043C4F20103984204D14A
:101310004B882CF0700243EA020C41F2004240F488
:101320008063C4F20002934204D0CA882CF4407354
:1013300042EA030CA0F800C08A8883058285A0F1E8
:101340008042A2F5963243EA92220B88072A03854F
:1013500007D8012303FA02F212F0E50F1CBF097A45
:101360000186012181827047B0B540F60044C4F285
:10137000010420464FF48051FFF7FCFDA820FFF741
:10138000D5FE0020FFF7D2FE054620464FF48051DF
:10139000FFF7F2FDA80718BFB0BD20464FF48051FB
:1013A000FFF7E8FDA820FFF7C1FE0020FFF7BEFE13
:1013B000054620464FF48051FFF7DEFD20464FF4EE
:1013C000805145F00305FFF7D5FD2820FFF7AEFE5D
:1013D0002846FFF7ABFE20464FF48051BDE8B040F1
:1013E000FFF7CABDB0B582B040F60045C4F20105B2
:1013F000044628464FF48051FFF7BCFD1A20FFF742
:1014000095FE0020FFF792FE28464FF48051FFF72B
:10141000B3FD42F2930020800DF106050C20214619
:1014200002222346009500F09FF908B102B0B0BD3A
:1014300000214FF0FF3200BFA3185B780132032A6E
:1014400081EA0301F8D12279914218BF022002B04B
:10145000B0BD00002DE9F04140F60045C4F20105A1
:101460000E46074628464FF480519046FFF782FD0E
:101470008A20FFF75BFE0020FFF758FE044628464F
:101480004FF48051FFF778FD28464FF48051FFF765
:1014900071FD0A20FFF74AFE04F0FB00FFF746FE4D
:1014A00028464FF48051FFF767FD28464FF48051DE
:1014B000FFF760FD9420FFF739FE0020FFF736FEAE
:1014C000044628464FF48051FFF756FD28464FF456
:1014D000805144F08004FFF74DFD1420FFF726FEF5
:1014E0002046FFF723FE28464FF48051FFF744FDC6
:1014F000A6B1013F17F8014F28464FF48051FFF77E
:1015000039FD1220FFF712FE2046FFF70FFE284696
:101510004FF48051FFF730FD013EEBD128464FF4E8
:101520008051FFF727FD0220FFF700FE0320FFF7A1
:10153000FDFD28464FF48051FFF71EFDFF2400BF3C
:1015400028464FF48051FFF715FD8A20FFF7EEFD86
:101550000020FFF7EBFD064628464FF48051FFF7C9
:101560000BFD013C200602D016F00400E8D028460E
:101570004FF48051FFF7FEFCC420FFF7D7FD002099
:10158000FFF7D4FD044628464FF48051FFF7F4FCE2
:1015900028464FF4805188F80040FFF7EBFCC2204A
:1015A000FFF7C4FD0020FFF7C1FD044628464FF4B5
:1015B0008051FFF7E1FC88F80140BDE8F0810000B0
:1015C000B0B584B040F60045C4F201050446284693
:1015D0004FF48051FFF7CEFC1A20FFF7A7FD07203C
:1015E000FFF7A4FD28464FF48051FFF7C5FC2620E5
:1015F000207002AD0C20214601222346009500F008
:10160000B3F8BDF80810054681F01000284318BF54
:10161000022503D12046FFF7E5FE054650200DF1D7
:101620000A04ADF80A00A21C20460221FFF712FFAF
:101630000DF10E0C0C20214604222346CDF800C0EB
:1016400000F092F8284604B0B0BD000010B5FFF7D6
:1016500095FCFFF715FD40F60044C4F20104204656
:101660004FF48051FFF786FC0220FFF75FFD0F204B
:10167000FFF75CFD20464FF48051FFF77DFC2046CC
:101680004FF48051FFF776FC5420FFF74FFD8D207B
:10169000FFF74CFD20464FF48051FFF76DFC2046CC
:1016A0004FF48051FFF766FC5620FFF73FFD3E20C8
:1016B000FFF73CFD20464FF48051FFF75DFC2046CC
:1016C0004FF48051FFF756FC5A20FFF72FFD1E20E4
:1016D000FFF72CFD20464FF48051FFF74DFC2046CC
:1016E0004FF48051FFF746FC5820FFF71FFD002004
:1016F000FFF71CFD20464FF48051FFF73DFC2046CC
:101700004FF48051FFF736FC4C20FFF70FFD70209F
:10171000FFF70CFD20464FF48051FFF72DFC2046CB
:101720004FF48051FFF726FC2A20FFF7FFFC4020F2
:10173000FFF7FCFC20464FF48051FFF71DFC2046CC
:101740004FF48051FFF716FC2220FFF7EFFC3D20FD
:10175000FFF7ECFC20464FF48051FFF70DFCBDE88D
:101760001040FFF701BE00002DE9F04F81B0174691
:1017700083460C288946009307D0BBF10E0F09D190
:101780004FF011084FF0120A08E04FF031084FF007
:10179000770A03E04FF001084FF0000A40F60044DA
:1017A000C4F2010420464FF480510AF18005FFF78E
:1017B000E1FB0420FFF7BAFC2846FFF7B7FC204600
:1017C0004FF48051FFF7D8FB20464FF48051FFF7CC
:1017D000D1FB8820FFF7AAFC0020FFF7A7FC0546F5
:1017E00020464FF48051FFF7C7FB20464FF480514D
:1017F000FFF7C0FB0820FFF799FC05F07F00FFF71B
:1018000095FC20464FF48051FFF7B6FB20464FF47D
:101810008051FFF7AFFB9420FFF788FC0020FFF713
:1018200085FC054620464FF48051FFF7A5FB204676
:101830004FF4805145F08005FFF79CFB1420FFF723
:1018400075FC2846FFF772FC20464FF48051FFF7E5
:1018500093FB20464FF48051FFF78CFB0220FFF7EB
:1018600065FC0020FFF762FC20464FF48051FFF733
:1018700083FBAFB1A9F1010616F8015F20464FF4D2
:101880008051FFF777FB1220FFF750FC2846FFF747
:101890004DFC20464FF48051FFF76EFB013FEBD12A
:1018A00020464FF48051FFF765FB0220FFF73EFC16
:1018B0005846FFF73BFC20464FF48051FFF75CFB96
:1018C000BBF10C0F22D120464FF48051FFF752FBA1
:1018D0009A20FFF72BFC0020FFF728FC0546204646
:1018E0004FF48051FFF748FB20464FF4805145F0FC
:1018F0008005FFF73FFB1A20FFF718FC2846FFF78B
:1019000015FC20464FF48051FFF736FBDDF8289098
:101910004FF4FA6720464FF48051FFF72BFB8820E5
:10192000FFF704FC0020FFF701FC054620464FF4BA
:101930008051FFF721FB013F380400F08B8018EA4B
:10194000050FE7D020464FF48051FFF713FB9A2094
:10195000FFF7ECFB0020FFF7E9FB074620464FF4BA
:101960008051FFF709FB20464FF48051FFF702FB3F
:101970001A20FFF7DBFB07F07F00FFF7D7FB2046BD
:101980004FF48051FFF7F8FA20464FF48051FFF7EB
:10199000F1FA8C20FFF7CAFB0020FFF7C7FB0746D0
:1019A00020464FF48051FFF7E7FA17F01B0F73D171
:1019B0000AEA0500BBF10C0F00F001086ED12046C9
:1019C0004FF48051FFF7D6FA9420FFF7AFFB0020C9
:1019D000FFF7ACFB064620464FF48051FFF7CCFAE8
:1019E00020464FF48051FFF7C5FA9820FFF79EFB81
:1019F0000020FFF79BFB074620464FF48051FFF77E
:101A0000BBFA17F0070040EAC600A0F1080008BFC3
:101A1000F000A9F80000012E98BF0126102E28BF63
:101A200010260098451E00BF20464FF48051FFF756
:101A3000A1FA9220FFF77AFB0020FFF777FB074619
:101A400020464FF48051FFF797FA013E05F8017FD9
:101A5000EAD123E020464FF48051FFF78BFA9A2019
:101A6000FFF764FB0020FFF761FB054620464FF4BB
:101A70008051FFF781FA20464FF48051FFF77AFA40
:101A80001A20FFF753FB05F07F00FFF74FFB2046BE
:101A90004FF48051FFF770FA4FF00208404601B052
:101AA000BDE8F08F10B584B04FF480400121FFF7FE
:101AB0008BFA4FF416500090002043F60004ADF866
:101AC0000C0001904FF44020C4F2010402906946DA
:101AD000204600F017F82046012100F003F804B07A
:101AE00010BD00008289002918BF012122F4005294
:101AF00042EA4131818170470088084018BF0120C7
:101B00007047000070B586B00446008A0D46C9884B
:101B100020F4405008432082A0894EF6F31108407B
:101B2000A9882A896B89084310431843A081A08A99
:101B3000A98920F44070084301AEA0823046FFF727
:101B40004FFA43F6000106F10800C4F201018C428D
:101B500008BF06F10C0000681922B4F90C105043BC
:101B60002A680123B1F1FF3FC8BF022302FA03F143
:101B7000B0FBF1F048F21F51C5F2EB11A0FB0123BD
:101B80005A096FF0630302FB0300B4F90C3003261B
:101B9000B3F1FF3FC8BF042600FA06F000F132009F
:101BA000A0FB01014FF00700C8BF0F2000EA511051
:101BB00040EA0210208106B070BD00006FF35F2183
:101BC0008180704710B504464FF080400021FFF738
:101BD00073FB04EB840044004FF08040FFF76AFB86
:101BE0008442F9D810BD0000B0B543F600050446A4
:101BF000C4F2010528468021FFF77EFF0028F9D0B6
:101C0000E1B22846FFF7DAFF28464021FFF774FFCC
:101C10000028F9D02046B0BD82B0FFF7FFF8FFF7EB
:101C200041FFFFF721FBFFF72BFAFFF70FFD13A092
:101C3000FEF7E8FB40F26C1440F27117C2F20004A8
:101C4000C2F200070FF24C080FF258094FF47A70F5
:101C5000FFF7B8FF2046FFF7B3FC00283870F9D132
:101C60004046FEF7CFFB21786278A378E5782679A5
:101C70004846CDE90056FEF7C9FAE7E757656C63B9
:101C80006F6D6520746F2052464944206D6F6475F6
:101C90006C650000436172642064657465637465FB
:101CA000642100005549443A20253032582025301F
:101CB00032582025303258202530325820253032F5
:101CC000580A000030380A2801D20120704700204D
:101CD0007047303132333435363738394142434436
:101CE0004546403058003031323334353637383994
:101CF000616263646566403078000400000800009B
:101D000000000000000200010000103A7474003A64
:101D10007474003A747400020406080000000001A4
:101D2000020304010203040607080900501D00080D
:101D3000000000201000000050010008601D000895
:101D4000100000206807000070010008000000007B
:101D50000000000000000000000000000000000083
:04000005080000ED02
:00000001FF
