:020000040800F2
:1000000048290020B5010008BD010008BF01000813
:10001000C1010008C3010008C5010008000000007C
:10002000000000000000000000000000C701000800
:10003000C901000800000000CB010008CD01000844
:10004000CF010008CF010008CF010008CF01000850
:10005000CF010008CF010008CF010008CF01000840
:10006000CF010008CF010008CF010008CF01000830
:10007000CF010008CF010008CF010008CF01000820
:10008000CF010008CF010008CF010008CF01000810
:10009000CF010008CF010008CF010008CF01000800
:1000A000CF010008CF010008CF010008CF010008F0
:1000B000CF010008CF010008CF010008CF010008E0
:1000C000CF010008CF010008CF010008CF010008D0
:1000D000CF010008CF010008CF010008CF010008C0
:1000E000CF010008CF010008CF01000800F002F89E
:1000F00000F050F814A696E8000CB244B344DA4578
:1001000001D100F047F8BAE80F000FA696E83000DA
:10011000A5EB040504EB0607AAEB0704A7F101070A
:100120004FEA15154FEA3414A4F10104AC4201D38F
:1001300000F030F813F0010F18BFFB1A43F0010371
:1001400000F001F8DBE71847583200007832000071
:10015000103A24BF78C878C1FAD8520724BF30C8F3
:1001600030C144BF04680C60704700007047000055
:100170000023002400250026103A28BF78C1FBD8B0
:10018000520728BF30C148BF0B6070471FB51FBD65
:1001900010B510BD00F07AF81146FFF7F7FF02F036
:1001A0007DFC00F098F803B4FFF7F2FF03BC00F009
:1001B0009FF800000948804709480047FEE7FEE72E
:1001C000FEE7FEE7FEE7FEE7FEE7FEE7FEE7FEE707
:1001D00004480549054A064B7047000075100008A1
:1001E000ED00000848230020482900204825002071
:1001F000482500204FF000020429C0F0128010F0C2
:10020000030C00F01E80CCF1040CBCF1020F18BFEF
:1002100000F8012BA8BF20F8022BA1EB0C0100F085
:1002200010B85FEAC17C24BF00F8012B00F8012B55
:1002300048BF00F8012B70477047704770474FF078
:10024000000200B5134694469646203922BFA0E826
:100250000C50A0E80C50B1F12001BFF4F7AF090732
:1002600028BFA0E80C5048BF0CC05DF804EB890023
:1002700028BF40F8042B08BF704748BF20F8022B66
:1002800011F0804F18BF00F8012B7047754600F041
:100290002BF8AE4605006946534620F00700854618
:1002A00018B020B5FFF794FFBDE820404FF00006DE
:1002B0004FF000074FF000084FF0000BAC46ACE8E1
:1002C000C009ACE8C009ACE8C009ACE8C00921F03D
:1002D00007018D46704710B50446AFF300802046F5
:1002E000BDE81040FFF75FBF0048704718000020CE
:1002F00001491820ABBEFEE726000200704700004F
:1003000080B540F2040041F2D021C2F20000C2F2F6
:10031000000100F007F842F24531C2F20001087016
:1003200080BD000041F20C33C2F200035A7A012A68
:1003300084BF0120704780B593F809C0864600202D
:1003400003F80C005A7A03EB8202C2F804E05A7AEE
:100350001A44107293F809C00CF101025A720CF1A0
:1003600030020A7042F63A72A1F80120C87080BDCE
:10037000B0B582B00420012100F0ACF8A02040F616
:100380000004C1F60300C4F2010401AD019020464F
:10039000294600F02BF84020C0F20340019020468F
:1003A000294600F023F81020C1F2030001902046F6
:1003B000294600F01BF82046102100F077F81020A5
:1003C000012100F087F842F20000C1F2030004F5B9
:1003D000006400906946204600F008F820464FF47B
:1003E000005100F063F802B0B0BD0000CA7802F01E
:1003F0000F0CD30644BF8B784CEA030C2DE9F04771
:1004000009880B0625D082465AF8144B00F1100ECD
:1004100000254FF001094FF00F08002706E000BF4C
:100420001E600137082F05F1040511D009FA07F6FF
:100430000E42F6D008FA05F324EA03030CFA05F499
:100440001C43282A5346EBD0482AEAD17346E7E7F3
:100450000460B1F5807F38BFBDE8F087436800F1E4
:10046000100E00F1140900254FF4807A4FF00F08A8
:10047000002705E034600137082F05F1040512D08C
:100480000AFA07F404EA0106A642F4D108FA05F6CE
:10049000B3430CFA05F63343282A4E46EAD0482ADD
:1004A000E9D17646E6E74360BDE8F0870161704731
:1004B0001023002A08BF1423C1507047002941F2BD
:1004C0001C01C4F202010A680CBF22EA00001043BA
:1004D00008607047002941F21801C4F202010A685D
:1004E0000CBF22EA0000104308607047F0B583B0EB
:1004F00043F20004C4F20104A4F52055284610215B
:100500000122FFF7D5FF012000F070FF002600BF99
:100510002046022100F080FD0028F9D02046FF216E
:1005200000F082FD01360A2EF2D128461021002269
:100530000026FFF7BDFF012000F058FF40208DF896
:1005400006009520CDF807608DF80B0020460221AB
:1005500000F062FD0028F9D000260DF1060700BF6B
:10056000B95D204600F060FD2046022100F054FDF8
:100570000028F9D00136062EF2D141F6FF76002789
:100580002046022100F048FD0028F9D02046FF2136
:1005900000F04AFD2046012100F03EFD0028F9D080
:1005A000204600F03FFDC1B2013E47F100000129A5
:1005B00018BF0028E4D1284610210122FFF778FF58
:1005C000012000F013FF00BF2046022100F024FDAF
:1005D0000028F9D02046FF2100F026FD41F2CA2074
:1005E000C2F200000121017003B0F0BDB0B543F2CA
:1005F000000441F2CE25C4F20104C2F200054FF41A
:10060000FA70288009E000BF204600F00BFDC0B260
:10061000FF2808BFB0BD298889B12046022100F01B
:10062000FBFC0028F9D02046FF2100F0FDFC00BFB4
:100630002046012100F0F0FC0028F9D0E4E7B0BD2D
:10064000F0B581B043F2000441F2CC270E460546D6
:10065000C4F20104C2F20007C820388020460221FB
:1006600000F0DAFC0028F9D02046FF2100F0DCFC85
:100670002046012100F0D0FC0028F9D0204600F0EF
:10068000D1FCC0B2FF2802D139880029E6D1FE286A
:1006900044D100BF2046022100F0BEFC0028F9D062
:1006A0002046FF2100F0C0FC2046012100F0B4FCF0
:1006B0000028F9D0204600F0B5FC05F8010B002E0B
:1006C000A6F10106E6D100BF2046022100F0A4FCFD
:1006D0000028F9D02046FF2100F0A6FC2046012189
:1006E00000F09AFC0028F9D0204600F09BFC00BFE7
:1006F0002046022100F090FC0028F9D02046FF217E
:1007000000F092FC2046012100F086FC0028F9D080
:10071000204600F087FC012001B0F0BD002001B0B0
:10072000F0BD0000F0B581B043F2000441F2CE27E5
:100730000E460546C4F20104C2F200074FF4FA70F7
:10074000388000BF2046022100F066FC0028F9D066
:100750002046FF2100F068FC2046012100F05CFCEF
:100760000028F9D0204600F05DFCC0B2FF2802D07E
:1007700039880029E6D1FF2840F07B8020460221FD
:1007800000F04AFC0028F9D02046294600F04CFC35
:100790002046022100F040FC0028F9D0310E20460E
:1007A00000F042FC2046022100F036FC0028F9D07F
:1007B000C6F30741204600F037FC00BF2046022167
:1007C00000F02AFC0028F9D0B0B2010A204600F05F
:1007D0002BFC00BF2046022100F01EFC0028F9D0AF
:1007E000F1B2204600F020FC2046022100F014FC6B
:1007F0000028F9D00120482D08BF6FF07800402D67
:1008000008BF6FF06A00C1B2204600F00DFC4C2D0D
:1008100013D100BF2046022100F0FEFB0028F9D0D2
:100820002046FF2100F000FC2046012100F0F4FBEF
:100830000028F9D0204600F0F5FB0A2520460221C9
:1008400000F0EAFB0028F9D02046FF2100F0ECFB85
:100850002046012100F0E0FB0028F9D0204600F0FE
:10086000E1FB40B2B0F1FF3F04DC013D2906E5D1D8
:1008700000E0FF20C0B201B0F0BD0000F0B581B0D3
:1008800043F2000441F2CE270E460546C4F20104AD
:10089000C2F200074FF4FA70388000BF20460221F0
:1008A00000F0BAFB0028F9D02046FF2100F0BCFB85
:1008B0002046012100F0B0FB0028F9D0204600F0CE
:1008C000B1FBC0B2FF2802D039880029E6D1FF2849
:1008D0000CD100BF2046022100F09EFB0028F9D079
:1008E0002046314600F0A0FBFD2E03D1002001B0D0
:1008F000F0BD00BF2046022100F08EFB0028F9D099
:10090000002600BFA95D204600F08EFB2046022194
:1009100000F082FB0028F9D00136B6F5007FF1D156
:100920002046022100F078FB0028F9D02046FF2164
:1009300000F07AFB2046012100F06EFB0028F9D080
:10094000204600F06FFB00BF2046022100F064FB50
:100950000028F9D02046FF2100F066FB2046012147
:1009600000F05AFB0028F9D0204600F05BFB002580
:100970002046022100F050FB0028F9D02046FF213C
:1009800000F052FB2046012100F046FB0028F9D080
:10099000204600F047FB00F01F01052903D0402D41
:1009A00005F10105E4D3C5B22046022100F034FB75
:1009B0000028F9D02046FF2100F036FB2046012117
:1009C00000F02AFB0028F9D0204600F02BFB00069F
:1009D000EAD005F01F000538B0FA80F0400901B0F8
:1009E000F0BD000000281CBF012070472DE9F04336
:1009F00081B040F20009C2F2000999F800008007B6
:100A000000F1DD8043F20004C4F20104FFF76EFD43
:100A1000A4F520584046102100220025FFF748FD8C
:100A2000012000F0E3FC40200021FFF77BFE0128BD
:100A300040F0978041F2CC27C2F200074FF47A7061
:100A4000388048204FF4D571FFF76CFE01285BD148
:100A500000256E462046022100F0DEFA0028F9D07B
:100A60002046FF2100F0E0FA2046012100F0D4FAF0
:100A70000028F9D0204600F0D5FA70550135042D34
:100A8000E8D19DF80200002501286AD19DF80300F5
:100A9000AA2803D065E000BF388860B17720002124
:100AA000FFF740FE0128F7D869204FF08041FFF79B
:100AB00039FE0028F0D13888002851D07A20002152
:100AC0000025FFF72FFE00284BD1002520460221EC
:100AD00000F0A2FA0028F9D02046FF2100F0A4FA85
:100AE0002046012100F098FA0028F9D0204600F0B5
:100AF00099FA70550135042DE8D19DF800000C25B8
:100B0000400658BF04252CE077200021FFF70AFE9D
:100B100001284FF001050ED869200021FFF702FEE1
:100B2000022838BF022506E041200021FFF7FAFD28
:100B300058B1388848B1022DF6D177200021FFF74F
:100B4000F1FD0128F5D86920EFE7388840B1502041
:100B50004FF40071FFF7E6FD002818BF002500E004
:100B6000002540F27800C2F20000057040461021D6
:100B70000122FFF79DFC012000F038FC20460221F5
:100B800000F04AFA0028F9D02046FF2100F04CFA84
:100B90002046012100F040FA0028F9D0204600F05C
:100BA00041FA35B199F8000000F0FE0089F8000024
:100BB00005E041F2CA20C2F200000021017099F85C
:100BC000000001B0BDE8F0832DE9F04184B020B110
:100BD0000427384604B0BDE8F08116460D460529C5
:100BE0000DD13078022836D001283CD00028EFD132
:100BF00041F2CA20C2F2000000270770E9E740F284
:100C00000000C2F200000078C00722D143F20004C5
:100C1000C4F20104A4F52058404610210022FFF739
:100C200047FC012000F0E2FB0D2D4FF0040700F21D
:100C30007280DFE805F0071C3B7070707070707098
:100C400070404249FFF7D2FCB0F1FF0718BF0127FF
:100C500061E00327BDE741F2CA20C2F2000000783C
:100C600000277070B5E7FFF741FC0027B1E7492086
:100C70000021FFF757FD28BB68461021FFF7E0FC75
:100C800000B39DF8000000F0C000402860D19DF83E
:100C900008009DF80910800440EA81204FF60041C9
:100CA00000F58060C0F2FF31084070E04FF4007042
:100CB000308000272FE0492000E04A200021FFF784
:100CC00031FD10B3012726E07A200021FFF72AFD2D
:100CD000C8B900252046022100F09EF90028F9D06D
:100CE0002046FF2100F0A0F92046012100F094F9F0
:100CF0000028F9D0204600F095F906F8010B032DE5
:100D000005F10105E6D3042705E030461021FFF781
:100D100097FC80F00107404610210122FFF7C8FB35
:100D2000012000F063FB00BF2046022100F074F9AF
:100D30000028F9D02046FF2100F076F92046012155
:100D400000F06AF90028F9D0204600F06BF940E77E
:100D50009DF805009DF80A3000F00F0000EBD3105D
:100D60009DF809309DF808709DF806109DF8072041
:100D700003F0030300EB4300BB0901F0030143EA66
:100D8000820242EA81210131073801FA00F0306025
:100D90008FE700002DE9F04381B000284FF00409EF
:100DA0006DD11D46002B6AD040F20000C2F2000057
:100DB0000078C00728D140F27800C2F20000007825
:100DC00043F20004C4F2010417464007A4F520587A
:100DD0000E4658BF5702404610210022FFF768FB1D
:100DE000012000F003FB012D11D151203946FFF7FE
:100DF00099FC88B930464FF40071FFF721FCB0FA36
:100E000080F04FEA50191EE04FF0030937E05220FE
:100E10003946FFF787FC38B14FF0010913E000BFF6
:100E2000013D06F5007606D030464FF40071FFF71D
:100E300007FC0028F4D1B0FA80F04FEA50194C209A
:100E40000021FFF76FFC404610210122FFF730FB25
:100E5000012000F0CBFA00BF2046022100F0DCF8B0
:100E60000028F9D02046FF2100F0DEF820460121BD
:100E700000F0D2F80028F9D0204600F0D3F8484618
:100E800001B0BDE8F083000000281CBF01207047BE
:100E900040F20000C2F200000078704700284FF0D6
:100EA000040018BF70472DE9F04381B01C46002BA9
:100EB0007BD040F20000C2F200000F460178C90763
:100EC00029D10078400728D440F27809C2F20009FD
:100ED00099F8000043F20005C4F2010516464007E8
:100EE000A5F5205858BF5602404610210022FFF7B2
:100EF000DFFA012000F07AFA012C10D15820314697
:100F0000FFF710FCE0B93846FE21FFF7B7FCB0FA56
:100F100080F0440929E0032047E0022045E099F8E9
:100F20000000800707D577200021FFF7FBFB572043
:100F30002146FFF7F7FB59203146FFF7F3FB28B1B5
:100F4000012412E0013C07F5007706D03846FC2169
:100F5000FFF794FC0028F5D100E000240020FD21DB
:100F6000FFF78CFC002808BF012440461021012215
:100F7000FFF79EFA012000F039FA00BF284602214F
:100F800000F04AF80028F9D02846FF2100F04CF87C
:100F90002846012100F040F80028F9D0284600F04A
:100FA00041F8002C18BF0124204601B0BDE8F043F1
:100FB000704700000288002918BF012122F040027A
:100FC00042EA81110180704710B586B04FF480501D
:100FD0000121FFF77FFA4FF08270CDF80600002064
:100FE000CDF80A004FF00070CDF80E00282043F233
:100FF0000004CDF812000720C4F20104ADF8160079
:101000000DF10601204600F011F820460121FFF7FE
:10101000D1FF06B010BD00000089084018BF0120B4
:101020007047000080897047818170472DE9F04149
:1010300002880B8802F4415C4A88B1F804E043EA74
:101040000C03CC881A430D8942EA0E024E892243D2
:101050008F892A43B1F80E8032433A4342EA0802AC
:101060000280828B22F400628283098A0182BDE8B9
:10107000F081000082B041F20400C4F2020050F896
:10108000041C002241F0010140F8041C0168CFF665
:10109000FF021140016050F8041C4FF6FF72CFF6BA
:1010A000F662114040F8041C50F8041C21F4802121
:1010B00040F8041C016821F4FE0101604FF41F0197
:1010C000416000210191009150F8041C41F48031ED
:1010D00040F8041C50F8041C01F4003100910199FF
:1010E00001310191009919B90199B1F5A06FF1D1C0
:1010F00050F8041C890354BF00210121009100997C
:10110000012936D142F20001C4F202010A6842F01C
:1011100010020A600A6822F007020A600A6842F0B8
:1011200002020A600168016001680160016841F41F
:1011300080610160016821F47C110160016841F463
:10114000E811016050F8041C41F0807140F8041C63
:1011500050F8041C8901FBD5016821F003010160EE
:10116000016841F002010160016801F00C010829E9
:10117000FAD14EF60850CEF200004FF00061016047
:1011800002B0704780B584B001200121FFF796F9C5
:1011900041F61F40CDF806004FF6FE70CDF80A006C
:1011A0000DF106014FF0804000F016F84FF080403E
:1011B000012100F003F804B080BD0000028800297E
:1011C00018BF012122F00102114401807047000084
:1011D000808C70478184704740F6FF33B0F800C0C0
:1011E000C4F2000398420FDCB0F1804F1ED040F2F1
:1011F0000043C4F20003984218D040F60003C4F242
:101200000003984212D016E040F60043C4F20003F7
:1012100098420BD043F20043C4F20103984205D038
:1012200042F60043C4F20103984204D14B882CF0EB
:10123000700243EA020C41F2004240F48063C4F2BF
:101240000002934204D0CA882CF4407342EA030C93
:10125000A0F800C08A8883058285A0F18042A2F5AB
:10126000963243EA92220B88072A038507D8012386
:1012700003FA02F212F0E50F1CBF097A0186012180
:1012800081827047FFF7AEBBFFF79EBCFFF782BDC0
:10129000FFF7FABDFFF702BE10B5044641F20400A5
:1012A0000023221823544FF0FF309062204601F0B3
:1012B00037FC00281CBF032010BDB4F8FE014AF61D
:1012C000552188421CBF022010BD94F8372094F8A5
:1012D000383094F83610120244F2461042EA0342C3
:1012E000C0F254001144814204BF002010BD94F8A4
:1012F000532094F8543094F85210120242EA0342F8
:101300001144081A18BF012010BD00002DE9F0415A
:10131000054641F20500884605EB000789B12846DD
:10132000414601F03FFB02283CBF0120BDE8F081AF
:10133000411C0FD0D7F80F10444688420FD2BDE8A9
:10134000F081D7F807404CB1D7F80F00844228BF8E
:10135000012404E04FF0FF30BDE8F081012426466F
:1013600006E000BF012808BFBDE8F081A64229D0F1
:10137000D7F80F000136864228BF022601D3022C7F
:1013800020D32846314601F00DFB411CD7D0002860
:10139000E8D1284631466FF0704201F00DFCB8F1FB
:1013A000000F014606D029B928464146324601F0D1
:1013B00003FC014649B10120012908BF4FF0FF306D
:1013C000BDE8F0810020BDE8F081D7F80B00C7F838
:1013D0000760411C06D039780138C7F80B0041F08E
:1013E000010038703046BDE8F081000010B50446B9
:1013F0004FF080400021FFF7EDFE04EB8400440035
:101400004FF08040FFF7E4FE8442F9D810BD0000A1
:101410002DE9F04F81B00021044600F0E7FA10B149
:1014200001B0BDE8F08F04F580564FF6FF754FF020
:10143000FF30FF274FF00D0A4FF0FF0BB08400BFC5
:101440003068316901F06CFB0028E9D1D6F81480CE
:1014500098F80010E5290AD0002900F09F8098F83C
:101460000B20130702F03F020AD50F2A08D0B584DB
:10147000FF272046002100F095F80028E0D0CFE7B4
:101480000F2A47D1D6F82090B9F1000FF1D04806C5
:1014900006D598F80DB0F08801F0BF010F46B08472
:1014A000F8B28142E4D198F80D008345E0D198F874
:1014B0000000CDF800B000F0BF0000FB0AF0A0F182
:1014C0000D0A01254FF0000B05E000BF0BF1010BE9
:1014D000BBF10D0F49D042F68C60C0F6000010F849
:1014E0000B0038F8000080B275B100F021FFBAF1AE
:1014F000FE0F42D8054639F81A0000F019FF854260
:101500003BD10AF1010AE1E74FF6FF75A84243D14A
:101510000025DBE7390612D100224FF0FF3100BF72
:1015200008EB0103D2B257085B7847EAC2120131D7
:101530000A291A44F4D1D1B28B453FF471AFB16995
:10154000CA7AD2077FF493AF002300BF0B2B3FF47E
:1015500067AF1A4618F803308F5CBB4202F10103F3
:10156000F4D00B2A7FF483AF5AE798F800004006C6
:1015700005D525B139F81A0008B1012000E0002096
:101580004FF6FF75DDF800B0013F4FF00D0A00285F
:1015900018BF4FF0FF376CE70120F3E7042001B0DC
:1015A000BDE8F08F2DE9F04700F58056F088471C24
:1015B000380432D0326982B330680D4641F20201FC
:1015C00043181989490989B2B7FBF1F404FB117179
:1015D00081B1306841F20A01415A00254909B7FB3F
:1015E000F1F2F78002FB117100EB41107061E8B27B
:1015F000BDE8F087F1680132326159B11A78013AD9
:101600002242E6D101F0CEF902280AD20225E8B240
:10161000BDE8F087D8888742DBD30425E8B2BDE86F
:10162000F0870446013035D0306841F2140141584A
:101630008C4210D2306841F202010844D0F81220E6
:10164000A11E023A9142F4601DD20278D0F8260021
:1016500001FB020018E0002DDFD0F168FFF756FE15
:1016600004460130032811D24FF6F871C0F2FF0191
:1016700001EAC00040F20171C0F2020121FA00F556
:10168000E8B2BDE8F08700203061A2E7306801F0E1
:101690008FFB18B10125E8B2BDE8F087306841F250
:1016A0000A01415A002918BFFEF7A4FD306841F233
:1016B00002028118D1F81230A01E023B984205D2D6
:1016C0000B78D1F8265000FB035300E0002330686C
:1016D0004FF00008825CC1F82A30C2B141F204091F
:1016E00041F2020A012500F8095001F061FB0028CF
:1016F000C6D1306808F1010800EB0A01D1F82A20B0
:1017000010F80A3001329845C1F82A20EBD341F293
:101710002C014258A2EB080242508BE72DE9F04F12
:1017200087B000F5805ADAF8187001903868FB7AB3
:10173000DAF820B07968D7F807200290D80703912B
:10174000CDF80F2072D041F2210500204FF00108A2
:10175000C0F201050DF114090093F872CAF82000D7
:10176000DDF80F100298039AC7F80710B8F1050FBB
:1017700041467A60386016D9BBF8000041465A46A7
:1017800088B100BF102300BF00F001040E0444EA3A
:1017900041014FEA500048BF6940013BF4D132F8A3
:1017A000020F0028EED10720062300BF1A4601F0E1
:1017B0000F0303F13006392E88BF03F1370609F80D
:1017C000006001380909A2F10103EFD17E2109F877
:1017D00000104FF0000138B17B5C202B04D0013A9F
:1017E00001F10101F8D1014607289ABF19F800203C
:1017F000013020227A5401310829F5D30198FFF7EE
:1018000007FE30B908F10108B8F1640FA8D14FF014
:101810006408B8F1640F03D1072007B0BDE8F08F6A
:10182000042823D1009BFB72CAF820B0980701D48A
:1018300001240FE0ABF10201182000BF31F8022FA4
:101840000130002AFAD14EF64F41C4F6C461A0FB24
:1018500001018C080198002100F0C8F848B1042863
:1018600008BF072010B3002800F0918007B0BDE842
:10187000F08F002509E000BF0135A542EFD00198A7
:101880000121FFF78FFE0028E9D1DAF80000DAF82D
:10189000101001F045F90028E1D1DAF814100978A8
:1018A000E529E9D00029E7D00025E8E7B4F10108EF
:1018B000D9D0BAF80600A0EB0801019800F096F81C
:1018C0000028D0D1DAF818004FF000094FF0FF31AE
:1018D00042185FFA89F35F08527847EAC31301316F
:1018E0000A2903EB0209F3D142F68C6B4FF6FF761F
:1018F000C0F6000BDAF80000DAF8101001F010F969
:101900000028B0D1DAF814000F22DAF82010A0F87D
:101910000B205FFA88F20D277A4300230D3A00244A
:1019200080F80D90438300BFB4421CBF31F81240D1
:1019300001321BF80350002C03F1010300EB0507F3
:1019400044554FEA142508BF34460D2B7D70EBD16A
:10195000B44203D148F0400107E000BF31F8121053
:101960000029414608BF48F040010170DAF8000044
:1019700041F204010122425401980021FFF712FEB6
:1019800000287FF470AFB8F10108B3D16BE7DAF843
:101990000000DAF8101001F0C3F800287FF466AFF9
:1019A000DAF814100022CA618A614A610A61CA60C9
:1019B0008A604A600A60DAE905124FF0FF33013AA3
:1019C000CF1812F8016F01330A2B7E70F8D1DAE9D3
:1019D00005120123D27A02F018020A73DAF8001015
:1019E00041F204028B5407B0BDE8F08FF0B581B02E
:1019F00000F58055AA68E980012A55D028680C4670
:101A000000F5805041698A424ED2BAB1EAB14189AB
:101A10008078490901FB00F6A6421CD9286841F2EA
:101A200002010844D0F81230911E023B994226D29E
:101A30000378D0F8260001FB030021E00178032998
:101A40000CBF426A0022002AE1D10189A1422BD9B0
:101A5000406A002214E041F2140700BF28681146D2
:101A600000F0A0FF0246013021D0022A1CD32868D2
:101A7000C059824218D2A41BB442EFD2CEE7002054
:101A8000EA6088B1296841F20A028A5A520992B280
:101A9000B4FBF2F303FB1242184401EB4211C5E917
:101AA0000401002001B0F0BD022001B0F0BD012012
:101AB00001B0F0BD41F20C31C2F200010A5C002A13
:101AC0001CBF0020704701230A180B5401EB800053
:101AD0004168107A0968084741F20C3CC2F2000CD8
:101AE0000CEB80035B686044007A1B6918470000B8
:101AF00080B541F20C3CC2F2000C0CEB800EDEF81B
:101B000004E06044007ADEF808C0BDE88040604729
:101B100041F20C31C2F2000101EB8002526808442C
:101B2000007A51680847000080B541F20C3CC2F2CF
:101B3000000C0CEB800EDEF804E06044007ADEF866
:101B40000CC0BDE88040604710B5044600F06CFB57
:101B500000B110BD002C04F5805412D0206880B173
:101B600000F58050017861B1C188A288914208D106
:101B70004078FFF7CDFF00F00100404200F009007F
:101B800000E00920002818BF10BDA06A411E0129ED
:101B900014D841F2B00C01EB410EC2F2000C0CEB78
:101BA0008E00438933F4807218BF5A1E428110049C
:101BB0004FF0000008BF4CF82E0000E00220012981
:101BC0009CBF0021216010BD70B582B001900091D2
:101BD000B9B10023CD5C0133202D01D33A2DF9D1C9
:101BE0003A2D41D10978303909290AD883F0020306
:101BF00053EA010E18BF4FF0FF3EBEF1000F05D5AE
:101C000037E04FF0FF3EBEF1000F32D441F2AC0C92
:101C1000C2F2000C5CF82E308BB141F2B00400210E
:101C2000C2F20004002500BF66599E4208BF615100
:101C30000C350C2DF8D04FF4805100245C54002852
:101C40001EBF4FF48051002343544CF82E0000284F
:101C50004FF0000006D0012A04D101A869460022F5
:101C600000F07CFB02B070BD4FF0000EBEF1000F23
:101C7000CCD50B2002B070BD2DE9F04FADF5825DE3
:101C800083B00DF1080E0EF582542160D0B300F53B
:101C9000805A08A800F58059002002F01E06174659
:101CA000CAF800000EF582514846324600F056FB55
:101CB0000546002840F0928105A8C9F8180041F2B5
:101CC000CA00C2F200002168C9F8200008A807F085
:101CD0001F0B00F0E5FCD9F81480054650B3BBF1AA
:101CE000040F11D2002D40F0EB8098F80B00C106D4
:101CF0005BD4C007284618BF07205FEA8B7148BF36
:101D00000546DDE0092569E1002D40D0042D52D1C2
:101D100041F2B0010020C2F2000100BF0A682AB1FE
:101D20000130012801F10C01F8D0022002283ED137
:101D3000122540E0B8F1000F31D041F2B00CD9F8D3
:101D40000030D9F80870B9F80650C2F2000C0CF156
:101D500004000021002205E001210132012A00F1E6
:101D60000C000CD150F8044C002CF5D09C42F4D15E
:101D70000468BC42F1D18488AC42EED100E002227A
:101D8000022A0ED10025002908BF1225A7E798F8DE
:101D90000B0010F0110F72D0072595B190E00625C9
:101DA0009DE7002E72D0102599E7042588E008A849
:101DB000FFF7B4FC0546D9F814804BF0080B002D52
:101DC0007ED11BF008007BD0CDF810B000F064FE8F
:101DD000C8F80E000020D9F8004088F80B00C8F8B9
:101DE0001C004FF48051615CB8F81A60032904F5B7
:101DF000805B07D198F8151098F81420090641EA7D
:101E000002410E44A8F81A00A8F8140001208BF82B
:101E100004008EB3DBF82C10012ECDE9021628D079
:101E2000DBF81400B04224D9002504E0DBF81400EC
:101E30003E4687421ED22046314600F0B3FD07469B
:101E400001302FD0B7B1012F13D0204631460022E8
:101E500000F0B2FE054668B9DBF810000130E5D2AB
:101E60009BF80510CBF8100041F001008BF805003D
:101E7000DCE70225280618D0DDF810B020E05FEA84
:101E80004B7048BF0825002D9BD019E002EB4200A3
:101E90000CEB80004089A0F58070B0FA80F040091A
:101EA00005011CE701252806E6D1039802990138AF
:101EB000CBF80C00204600F033FEDDF810B00546EC
:101EC000280603D0280640F0898060E00BF0080067
:101ED000D9F800204BEA800B41F22C00105841F257
:101EE000B001D9F80830B9F80670C2F20001CAE9A9
:101EF00007080E1D002004E00130012806F10C0641
:101F00000AD156F8044C9442F6D134689C42F3D17D
:101F1000B488BC42F0D100E0022002281FD141F277
:101F2000B006C2F200060020334600BF1F682FB182
:101F30000130012803F10C03F8D0022002284FF0F1
:101F400000071DD000EB400306EB830446F8232076
:101F5000D9F80820B9F8063062602381678100EB68
:101F6000400201EB82014A89BBF1020F01D201322A
:101F700004E00AB1002703E04FF48072471C4A8155
:101F8000CAF82870002F08BF0225280626D1002095
:101F9000D9F800108AF806B08AF807004FF480528A
:101FA0008A5CB8F81A30032A01F5805207D198F8F4
:101FB000157098F814603F0647EA06473B44CAF894
:101FC0001030D8F81C30CAF81800CAE90203CAF861
:101FD0002400CAF80010D088AAF80400E8B20DF571
:101FE000825D03B0BDE8F08F2DE9F04F81B08246ED
:101FF000984615460E4600F580570020BAF1000FAE
:10200000186015D0386898B100F58050017879B122
:10201000C188BA8891420BD14078FFF779FD00F072
:102020000100404200F00904002C40F0F88003E079
:102030000924002C40F0F380FC79002C40F0EF8064
:10204000B879C00701D10724E9E0D7E90201081AED
:10205000A84238BF0546002D00F0DB80AAF1010040
:1020600041F2020C41F20A0E009011E0386830F89B
:102070000E006043B96806440144B960D8F8001006
:102080002D1A01444FF00004C8F8001000F0C7807A
:102090003868BA6800EB0C0319898CB2B2FBF4F112
:1020A00001FB1424002C6BD11B785C1E0C405FFAE2
:1020B00084FBBBF1000F25D18AB17C6A8CB16268C8
:1020C0005AB1B1FBF3F004F1080100BF904210D304
:1020D000801A4A680831002AF8D100200BE03869DC
:1020E00009E0796900F05EFC41F20A0E41F2020C4F
:1020F00001E0096808440228C0F08D80411C00F00E
:102100008C807861386841F2010210447969D0F816
:1021100013200239023A914205D24278D0F8273092
:1021200001FB023100E00021002974D0B0F8092041
:1021300001EB0B0995423CD2BA694A451ED0B979E8
:1021400049060BD50078514601230124FFF7ECFC2A
:10215000002863D1B87900F0BF00B871386841F247
:102160000101405C51464A4601230124FFF7C0FCAF
:10217000002841F2020C41F20A0E4FD1C7F8189024
:102180003868B96830F80E00B1FBF0F202FB1011AC
:10219000401AA84228BF284600283FF46BAF51449C
:1021A000721E034611F8014B013B02F8014FF9D1B1
:1021B00060E7B5FBF2F4427804EB0B010078914242
:1021C00088BFA2EB0B0431464A462346FFF790FC3A
:1021D00018BBB87941F2020C400641F20A0E7FF5B5
:1021E00045AFB869A0EB0901A142BFF43FAF386821
:1021F00030F80E0000283FF439AF01FB0061009A6F
:10220000013900BF12F8013F013801F8013FF9D14F
:102210002CE7002403E0022400E00124FC712046A6
:1022200001B0BDE8F08F000070B5044600F580569F
:1022300098B1306888B100F58050017869B1C188E3
:10224000B288914209D14078FFF762FC00F00100AA
:10225000404200F00905E5B901E00925CDB9B079A2
:10226000810616D540060ED5306841F20101B269EB
:10227000405C214601230125FFF756FC48B9B0799F
:1022800000F0BF00B0713068F16900F049FC05460C
:1022900008B1284670BD346AE07A40F02000E07250
:1022A000F0682077F068000A6077F089A077F07B0B
:1022B000E07730696083010C000E2175607500F0D5
:1022C000EBFBC4F8160000206082B179306841F25F
:1022D0000402012301F0DF018354B171BDE87040B5
:1022E00000F0FEBC802838BF704769B1FF2884BF6A
:1022F0000020704742F69A61C0F6000101EB4000F1
:102300006FF0FF01405A704742F69A620021C0F612
:10231000000200BF32F81130834204D07F2901F15E
:102320000101F7D3802101F18000C0B270470000A5
:1023300043F2BE120021C0F6000200BF32F8113095
:10234000834204D00131EF2908BF7047F6E742F617
:10235000DE70C0F6000030F8110070472DE9F04F34
:1023600085B0002303600B681546CBB1002200BF87
:102370009F5C0132202F01D33A2FF9D13A2F51D14E
:102380001F78A7F13004092C0AD84FF0FF36022A33
:102390004FF0010708BF002C42D037B10B25DFE01A
:1023A0004FF0FF360127002FF8D141F2AC01C2F205
:1023B000000151F826407CB304F58057046038785A
:1023C00058B17878FFF7A4FBC10706D140070A216E
:1023D000002D18BF01EAE075C2E000203870F0B2AD
:1023E0007E70FFF767FBC10718D1002D18BF10F0F2
:1023F00004001CD1787807F10A0602213246FFF763
:102400006BFB38B9308841F20101401A6FF460610A
:1024100088420ED20125A3E00C25A1E003259FE010
:102420001A440A6000270026002FBED0B6E70A250E
:1024300096E0204600210025FEF72EFF01285BD103
:102440000DF1040800204146221892F8C2311030E4
:10245000002B14BFD2F8C6210022402841F8042BDB
:10246000F2D144F24619C0F254094FF0FF3B4FF04D
:10247000000A00BF58F82A5025B3002038712046C2
:102480002946C7F82CB000F04BFB20B10320BAF16D
:10249000020F1BD930E0B4F8FE014AF655218842FC
:1024A00010D194F8371094F8382094F836000902C7
:1024B00041EA0241084448450DD10020BAF1020F1B
:1024C00004D919E00220BAF1020F15D800280AF148
:1024D000010ACFD110E094F8531094F8542094F8E6
:1024E0005200090241EA02410844B0EB090018BF5A
:1024F0000120BAF1020FE9D920B1032814BF0D253C
:1025000001252DE0B4F80B103088814227D1B4F8B2
:1025100016B0BBF1000F08BFD4F824B0267CC7F872
:1025200018B0721E012AFE7019D8627B531EB2FACF
:1025300082F113404FEA511118BF01231943BA70B9
:102540000DD1B4F811A041091FFA8AFC8BB2BCFB73
:10255000F3FCA7F808A00CFB11A1090404D00D2579
:10256000284605B0BDE8F08FB4F81380B8F1000F2D
:1025700008BFD4F82080B4F80EE0BEF1000FEED012
:102580000BFB06F909EB0E0101EB0C06B045E6D397
:10259000A8EB060C9445E2D3BCFBF2F140F6F572D1
:1025A0004FF0010891424FF6F67388BF4FF00208D2
:1025B000994228BF4FF0030801F1020C05EB0E020F
:1025C0002E449942C7F814C0C7E90752BE6212D21E
:1025D0005FEA0A43C3D0A1F6F6734A441B0B0E2BE5
:1025E0007A6291BF4FEA4C030CEB4C0201F00103FD
:1025F00003EB520306E05FEA0A42B0D1E26A4FEA17
:102600008C037A62C218013AB2FBF0F08345A6D37C
:102610004FF0FF304FF6F672C7E903008020914279
:10262000787124D3208E012821D1691C204600F026
:1026300077FAE0B9B4F8FE114AF65522002091422B
:10264000787114D1206845F25221C4F26111884298
:102650000DD1D4F8E40147F27221C6F2411188424B
:1026600005D1D4F8E801D4F8EC11C7E9031041F220
:10267000C80087F80080C2F2000001880022013102
:102680000180F98041F2B0010020C2F20001002572
:102690008B58A34208BF88500C320C2AF8D05FE751
:1026A0002DE9F04F89B0834608780E4641F20801C3
:1026B0005C280BEB010503D02F2808BF013600E092
:1026C000013600242C603078202807D2584600219B
:1026D000FFF78CF9EC6009B0BDE8F08F42F6CE70E0
:1026E000C0F600000138059042F6D570C0F6000033
:1026F0000BF580570138CDF810B0CDE9075000E058
:102700002960344601E000BF013420785C28FBD00A
:102710002F28F9D0D5F81880202805D24FF0040AC8
:10272000012600212EE000BF06960025012609E0C3
:1027300028F8150060194078691CC2B201361F2ABA
:102740000D461CD9C0B22F284FF0000A15D05C28C6
:1027500013D0FF2D0ED00121FFF7C4FD50B17F280B
:10276000E6D8089911F8012F002A18BF9042F9D134
:10277000002ADDD0DDE906653CE0294601E04FF0A6
:10278000040A079D2644A9B3484208EB410103E02F
:102790000130A1F102012DD231F8022C2E2AF7D0FE
:1027A000202AF5D04FF00009BA69A1F800904FF047
:1027B00020314042C2F807105160116002E000BFB2
:1027C00009F1010938F819102E29F9D02029F7D07C
:1027D000A8F10202B9F1000F18BF4AF0030A00BFC6
:1027E000014658B332F811002E28A1F10100F7D1AB
:1027F000013024E006200021002900F0CC8058465A
:10280000FEF706FEB9690028C97A40F0BF80490783
:1028100000F1C1807869C17AC90640F1BF8039688A
:102820004FF480528A5C418B032A7FF469AF427D6A
:10283000007D120642EA0040014461E70020019059
:102840004C1E08254FF0010C00234FF0000B002018
:1028500002904AF00302494602E000BF013192466D
:1028600038F811002028F9D02E2803D18C42F5D158
:1028700002E000BF00285AD0AB4501F101093ED269
:102880008C423CD0802816D300210395CDF818C087
:102890001D46FFF727FD38B142F60C61C0F6000176
:1028A000084410F8800C00E000202B46DDF818C02A
:1028B000039D4AF0020A40B1059900BF11F8012FAB
:1028C000002A18BF9042F9D142B14AF0030A5F20B2
:1028D000B96901F80B000BF1010BBAE7A0F1410156
:1028E00089B2192902D843F00203F1E7A0F161018E
:1028F00089B219299CBF43F001032038E8E7029808
:10290000079DC007DDF810B04AF003003CD18C42AF
:1029100018BF8246019881450CD8814601209B0052
:102920000B254FF0000C02904FF0080B91E7079D2C
:10293000DDF810B0B8694AF002020178E52904BF59
:10294000052101705FEACC7018BF9B0003F0030102
:1029500003F00C00032908BF92460C2808BF9246DA
:102960005FEA8A7207D4012908BF4AF0100A0428D6
:1029700008BF4AF0080AB869012180F80BA00020BE
:1029800000297FF43CAF06E08246D3E7042802D159
:10299000490758BF052009B0BDE8F08F052009B0F0
:1029A000BDE8F08F02293CBF012070472DE9F041BE
:1029B00000F58056044670690D46884232D9307859
:1029C000032832D002284ED001282BD1708905EB84
:1029D0005507316AB7FBF0F00144204600F0A0F83B
:1029E00000284AD1708907F10108B7FBF0F1326A7B
:1029F00001FB1071B8FBF0F0675C8118204600F015
:102A00008FF8D0BB7089EA07B8FBF0F101FB1080AA
:102A1000205C47EA002108466FF31F3018BF080901
:102A2000BDE8F0810120BDE8F0817089316A80083D
:102A3000B5FBF0F00144204600F072F8E8B9708967
:102A4000A900B1FBF0F14843C0EB850021188B7859
:102A50004A78C9781B04205C61F31B6343EA0221B6
:102A60000844BDE8F0817089316A4008B5FBF0F098
:102A70000144204600F054F818B14FF0FF30BDE893
:102A8000F08170896900B1FBF0F14843C0EB45006B
:102A9000205ABDE8F081000000207047FDF768FC77
:102AA000FEF792FAFEF76EFBFDF72AFC40F27C007F
:102AB00042F6DD71C2F20000C0F6000100220027DC
:102AC000FFF782F842F24434C2F20004207041F26F
:102AD0001830C2F200000FA10122FFF7CDF82070DC
:102AE000B0B941F2183441F2D82541F2D426C2F2ED
:102AF0000004C2F20005C2F2000620462946312237
:102B00003346FFF771FA30682F542046FFF71CF860
:102B1000FEE700BF646174612E63737600000000FD
:102B20002DE9F04381B0814641F2010009EB000438
:102B3000D4F82B708F4201D1002638E0E078884627
:102B400020B3207849463A4601230126FEF7ECFFE0
:102B50004FF00005E0B9D4F81F00D4F81710381A68
:102B60008842E57012D2A678022E0FD3012500BF4D
:102B7000D4F8171020780F4449463A460123FEF74F
:102B8000D3FF013E012EF3D8002601E000260125E7
:102B90006DB120784946424601230125FEF7A8FF82
:102BA00000281CBF4FF0FF382E46C4F82B8030465B
:102BB00001B0BDE8F083000002293CBF022070474D
:102BC0002DE9F04381B000F58057054678690E463F
:102BD00088421FD93878144603281FD002283DD0D8
:102BE000012817D1788906EB5609396AB9FBF0F04C
:102BF00001442846FFF794FF00285AD178895FEAFC
:102C0000C678B9FBF0F101FB109009F101093DD143
:102C1000E1B240E0022001B0BDE8F0837889396A72
:102C20008008B6FBF0F001442846FFF779FF002842
:102C30003FD17989B200B2FBF1F25143C1EB860179
:102C40006A18D3786C5403F0F003210A44EA036352
:102C50005170210C9170190ED17011E07889396A88
:102C60004008B6FBF0F001442846FFF759FF00BBCF
:102C700079897200B2FBF1F25143C1EB46016C520B
:102C80003E1D0121317001B0BDE8F083295C01F0E7
:102C90000F0164F30B11295401203E4606F8040F7E
:102CA000F088F169B9FBF0F001442846FFF738FFDE
:102CB00010B101B0BDE8F0837989B8F1000FB9FB1C
:102CC000F1F202FB119107D16A5CC4F3032302F015
:102CD000F0021A446A54D4E7C4F307126A54D0E7E6
:102CE0002DE9F04381B000F580578146387918B35B
:102CF000FE6A78784946324601234FF00108FEF714
:102D000013FF4FF00005D0B9386AB969301A88420C
:102D10003D7111D2FC78022C0ED30125B969787867
:102D20000E44494632460123FEF7FEFE013C012CCB
:102D3000F4D84FF0000802E04FF0000801259DB3E1
:102D40003878032827D17879012824D1798911B1DD
:102D50004846FDF74FFA4AF65520A9F8FE0145F21C
:102D60005220C4F26110C9F8000047F27220C6F286
:102D70004110D7E90321C9F8E401F869C9F8EC2149
:102D8000421C7878C9F8E81149460123FA62FEF737
:102D9000CBFE00207871787800210022FEF79CFE9F
:102DA000002818BF4FF00108404601B0BDE8F0838D
:102DB000F0B581B0044641F201002718F87808B355
:102DC000D7F82B50387821462A4601230126FEF7F2
:102DD000ABFEC0B9D7F81F00D7F81710281A002685
:102DE0008842FE700FD2BE78022E0BD3D7F8171090
:102DF00038780D4421462A460123FEF795FE013E10
:102E0000012EF3D80026304601B0F0BD809A90B66E
:102E10008EB78F80D2D3D4D8D7DE8E8F909292E2A5
:102E200099E3EAEB59999A9D9C9D9E9FB5D6E0E95E
:102E3000A5A5A6A7A8A9AAABAC21AEAFB0B1B2B365
:102E4000B4B5B6B7B8B9BABBBCBDBEBFC0C1C2C3CA
:102E5000C4C5C7C7C8C9CACBCCCDCECFD0D1D2D3B9
:102E6000D4D5D6D7D8D9DADBDCDDDEDFE0E1E2E3AA
:102E7000E5E5E6E7E7E9EAEBEDEDEEEFF0F1F2F399
:102E8000F4F5F6F7F8F9FAFBFCFDFEFF0103050780
:102E9000090E10121416181C1E00C700FC00E900D1
:102EA000E200E400E000E500E700EA00EB00E800F3
:102EB000EF00EE00EC00C400C500C900E600C6004B
:102EC000F400F600F200FB00F900FF00D600DC0081
:102ED000F800A300D800D7009201E100ED00F30054
:102EE000FA00F100D100AA00BA00BF00AE00AC00A9
:102EF000BD00BC00A100AB00BB009125922593252D
:102F000002252425C100C200C000A9006325512567
:102F100057255D25A200A5001025142534252C2554
:102F20001C2500253C25E300C3005A2554256925AE
:102F30006625602550256C25A400F000D000CA004D
:102F4000CB00C8003101CD00CE00CF0018250C25E4
:102F500088258425A600CC008025D300DF00D4007E
:102F6000D200F500D500B500FE00DE00DA00DB007F
:102F7000D900FD00DD00AF00B400AD00B1001720A6
:102F8000BE00B600A700F700B800B000A800B70068
:102F9000B900B300B200A025A0004E4F204E414D15
:102FA00045202020204641542020202020004E4F44
:102FB000204E414D452020202046415433322020D0
:102FC0002000EBFE904D53444F53352E30002B2CF8
:102FD0003B3D5B5D00222A3A3C3E3F7C7F00410046
:102FE00042004300440045004600470048004900B5
:102FF0004A004B004C004D004E004F005000510065
:103000005200530054005500560057005800590014
:103010005A002100E0FFE1FFE5FFE2FFE3FFC0000F
:10302000C100C200C300C400C500C600C700C8007C
:10303000C900CA00CB00CC00CD00CE00CF00D0002C
:10304000D100D200D300D400D500D600D800D900DA
:10305000DA00DB00DC00DD00DE00780100010201A7
:103060000401060108010A010C010E011001120100
:103070001401160118011A011C011E012001220170
:103080002401260128012A012C012E0130013201E0
:103090003401360139013B013D013F01410143014A
:1030A000450147014A014C014E01500152015401B2
:1030B000560158015A015C015E0160016201640120
:1030C000660168016A016C016E0170017201740190
:1030D000760179017B017D019101910392039303B4
:1030E0009403950396039703980399039A039B030C
:1030F0009C039D039E039F03A003A103A303A403BA
:10310000A503A603A703A803A903AA031004110497
:1031100012041304140415041604170418041904E3
:103120001A041B041C041D041E041F042004210493
:103130002204230424042504260427042804290443
:103140002A042B042C042D042E042F040104020451
:1031500003040404050406040704080409040A041B
:103160000B040C040E040F04602161216221632111
:103170006421652166216721682169216A216B210B
:103180006C216D216E216F2121FF22FF23FF24FF7F
:1031900025FF26FF27FF28FF29FF2AFF2BFF2CFFF3
:1031A0002DFF2EFF2FFF30FF31FF32FF33FF34FFA3
:1031B00035FF36FF37FF38FF39FF3AFF0000610067
:1031C00062006300640065006600670068006900D3
:1031D0006A006B006C006D006E006F007000710083
:1031E0007200730074007500760077007800790033
:1031F0007A00A100A200A300A500AC00AF00E0008F
:10320000E100E200E300E400E500E600E700E8009A
:10321000E900EA00EB00EC00ED00EE00EF00F0004A
:10322000F100F200F300F400F500F600F800F900F8
:10323000FA00FB00FC00FD00FE00FF00010103019D
:103240000501070109010B010D010F011101130116
:103250001501170119011B011D011F012101230186
:103260002501270129012B012D012F0131013301F6
:10327000350137013A013C013E0140014201440160
:10328000460148014B014D014F01510153015501C8
:10329000570159015B015D015F0161016301650136
:1032A000670169016B016D016F01710173017501A6
:1032B00077017A017C017E019201B103B203B3036D
:1032C000B403B503B603B703B803B903BA03BB032A
:1032D000BC03BD03BE03BF03C003C103C303C403D8
:1032E000C503C603C703C803C903CA0330043104B6
:1032F0003204330434043504360437043804390402
:103300003A043B043C043D043E043F0440044104B1
:103310004204430444044504460447044804490461
:103320004A044B044C044D044E044F04510452040F
:1033300053045404550456045704580459045A04B9
:103340005B045C045E045F047021712172217321AF
:103350007421752176217721782179217A217B21A9
:103360007C217D217E217F2141FF42FF43FF44FFDD
:1033700045FF46FF47FF48FF49FF4AFF4BFF4CFF11
:103380004DFF4EFF4FFF50FF51FF52FF53FF54FFC1
:1033900055FF56FF57FF58FF59FF5AFF0000000026
:1033A000C033000800000020180000005001000891
:1033B000D8330008180000203029000070010008F0
:1033C0000100000085120008911200088D1200080B
:0833D0009512000889120008A3
:04000005080000ED02
:00000001FF
